:020000040800F2
:1000000000000824A54C0008FD1000080511000898
:10001000191100082D11000841110008000000000E
:10002000000000000000000000000000F13E010898
:100030005511000800000000814101086511000809
:10004000F94C0008F94C0008F94C0008F94C00087C
:10005000F94C0008F94C0008F94C0008F94C00086C
:10006000F94C0008F94C0008F94C0008F94C00085C
:10007000F94C0008F94C0008F94C0008F94C00084C
:10008000F94C0008F94C0008F94C0008F94C00083C
:10009000F94C0008F94C0008F94C0008F94C00082C
:1000A000F94C0008F94C0008F94C0008F94C00081C
:1000B000F94C0008F94C0008F94C0008F94C00080C
:1000C000F94C0008F94C0008F94C0008F94C0008FC
:1000D000F94C0008F94C0008F94C0008F94C0008EC
:1000E000F94C0008F94C000800000000F94C000829
:1000F000F94C0008F94C0008F94C0008F94C0008CC
:10010000F94C0008F94C0008F94C0008F94C0008BB
:10011000F94C0008F94C0008F94C0008F94C0008AB
:10012000F94C0008F94C0008F94C0008F94C00089B
:10013000F94C000889110008F94C0008F94C000836
:1001400000000000000000000000000000000000AF
:10015000F94C0008F94C0008F94C0008F94C00086B
:10016000F94C0008F94C0008F94C0008F94C00085B
:10017000F94C0008F94C0008F94C00080000000098
:10018000F94C0008F94C00089D110008F94C0008D2
:10019000F94C0008F94C0008F94C0008F94C00082B
:1001A000F94C0008F94C0008F94C0008F94C00081B
:1001B000F94C0008F94C0008F94C0008F94C00080B
:1001C000F94C0008F94C0008F94C0008F94C0008FB
:1001D000F94C0008F94C0008F94C0008F94C0008EB
:1001E000F94C0008F94C0008F94C0008F94C0008DB
:1001F000F94C0008F94C0008F94C0008F94C0008CB
:10020000F94C0008F94C0008F94C0008F94C0008BA
:10021000F94C0008F94C0008F94C0008F94C0008AA
:10022000F94C0008F94C0008F94C000800000000E7
:10023000F94C0008F94C000800000000F94C0008D7
:10024000F94C0008F94C0008F94C0008F94C00087A
:10025000F94C0008F94C0008F94C0008F94C00086A
:10026000F94C0008F94C0008F94C0008F94C00085A
:10027000F94C0008F94C0008F94C00080000000097
:10028000F94C0008F94C0008F94C00080000000087
:0802900000000000F94C000819
:1002A00010B5054C237833B9044B13B10448AFF3B0
:1002B00000800123237010BD940000240000000082
:1002C0002C59020808B5034B1BB103490348AFF38F
:1002D000008008BD00000000980000242C5902088E
:1002E00010F8012B11F8013B012A28BF9A42F7D0E0
:1002F000D01A7047034613F8012B002AFBD1181AB5
:1003000001387047000000000000000000000000FD
:1003100001F0FF01102A2BDB10F0070F08D010F8B6
:10032000013B013A8B422DD010F0070F42B3F6D1BA
:10033000F0B441EA012141EA014122F007047FF0D3
:1003400000070023F0E80256083C85EA010586EA2A
:10035000010685FA47F5A3FA87F586FA47F6A5FA66
:1003600087F68EB9EED1F0BC01F0FF0102F0070272
:1003700032B110F8013B013A83EA010313B1F8D11D
:100380000020704701387047002D06BF35460338FE
:10039000073815F0010F07D1013015F4807F02BF37
:1003A000013015F4C03F0130F0BC0138704700BF88
:1003B00053B94AB9002908BF00281CBF4FF0FF31CC
:1003C0004FF0FF3000F088B9ADF1080C6DE904CEB4
:1003D00000F006F8DDF804E0DDE9022304B0704720
:1003E0002DE9F047089D0F4604468C46002B48D166
:1003F0008A42164661D9B2FA82F34BB1C3F12002A8
:1004000001FA03FC20FA02F29E4042EA0C0C9C40E6
:100410004FEA164EB7B2BCFBFEF1220C0EFB11CC1C
:1004200042EA0C4201FB07F0904209D9B21801F1EF
:10043000FF3C80F0EE80904240F2EB800239324483
:10044000121AA4B2B2FBFEF00EFB102244EA0244E0
:1004500000FB07F7A74209D9341900F1FF3280F0F9
:10046000DA80A74240F2D7803444023840EA0140A3
:10047000E41B00211DB1DC400023C5E90043BDE8B9
:10048000F0878B4206D90DB1C5E90001002108466D
:10049000BDE8F087B3FA83F1002948D1BB4202D30B
:1004A000824200F20781841A67EB0302012094461E
:1004B000002DE4D0C5E9004CE1E7002A00F092806D
:1004C000B2FA82F3002B40F0A8808A1A4FEA164E47
:1004D0001FFA86FC0121200CB2FBFEF70EFB17224F
:1004E00040EA02420CFB07F0904207D9B21807F12C
:1004F000FF3802D2904200F2E2804746121AA4B2BC
:10050000B2FBFEF00EFB102244EA02440CFB00FC9E
:10051000A44507D9341900F1FF3202D2A44500F2F4
:10052000CB801046A4EB0C0440EA0740A2E7C1F1DF
:1005300020068B4022FA06FC4CEA030C07FA01F471
:1005400020FA06F3F7404FEA1C49234300FA01F86A
:100550001FFA8CFEB7FBF9F01C0C09FB107744EA7C
:10056000074400FB0EF7A74202FA01F20AD91CEB7E
:10057000040400F1FF3A80F09B80A74240F298808B
:1005800002386444E41B9FB2B4FBF9F309FB134443
:1005900047EA044403FB0EFEA64509D91CEB0404FC
:1005A00003F1FF3780F08280A6457FD9023B644487
:1005B00043EA0040A4EB0E04A0FB02E7BC427346F2
:1005C000B94663D360D05DB1B8EB030264EB0904B4
:1005D00004FA06F622FA01F31E43CC40C5E9006492
:1005E00000214CE76208480842EAC1710B0C43EA5B
:1005F00000438AB242EA0342B3FBF6F1E407B44691
:100600003746B6461F23B0FBF6F0D21B41EA004145
:1006100061E7614614E7104628E7C3F1200120FA9C
:1006200001F29E4027FA01F19F403A434FEA164EED
:100630001FFA86FCB1FBFEF70EFB1710110C41EA06
:10064000004107FB0CF8884504FA03F43AD9711805
:1006500007F1FF3001D288451FD8A1EB0801B1FB9B
:10066000FEF808FB0CF70EFB181192B242EA0142A9
:10067000BA422FD2B21808F1FF31C6D2BA42C4D260
:10068000A8F102013244C0E7F0459CD2BEEB020360
:1006900067EB0C070138B94695E7A6EB080841441B
:1006A000B81EB1FBFEF808FB0CF7DCE73B467FE722
:1006B000504667E70846FBE63444023832E7023F1B
:1006C00032441BE7A1EB08013846B1FBFEF808FBFA
:1006D0000CF7C8E7414698E7704700BF80B500AF08
:1006E0002E4B2F4A1A602D4B00229A602B4B002272
:1006F000DA602A4B00221A74284B00225A74274BC6
:1007000000229A74254B10225A61244B01229A61CF
:10071000224B0122DA61214B01221A621F4B012276
:100720005A621E4B01229A621C4B0122DA621B4B59
:1007300001221A63194B00225A63184B00229A6354
:10074000164B0022DA63154B00221A64134B042265
:100750005A64124B00229A64104B0422DA640F4B45
:1007600000221A650D4B04225A650C4B00229A6533
:100770000A4B0022DA65094B00221A66074B002259
:100780005A66064B04229A66044807F005F90346A8
:10079000002B01D000F0D8FA00BF80BDB0000024CB
:1007A00000A0004080B5BAB000AF786007F1D40374
:1007B00000221A605A609A60DA601A6107F1100329
:1007C000C0220021184623F0B4FC7B681B68274A2E
:1007D000934246D14FF400424FF00003C7E904238F
:1007E0004FF08053C7F8803007F11003184609F026
:1007F00043FE0346002B01D000F0A6FA1C4BD3F8B1
:10080000EC301B4A43F48073C2F8EC30184BD3F839
:10081000EC3003F48073FB60FB68154BD3F8E030D9
:10082000134A43F00803C2F8E030114BD3F8E0302C
:1008300003F00803BB60BB680323C7F8D43002236E
:10084000C7F8D8300023C7F8DC300023C7F8E03001
:100850000923C7F8E43007F1D4031946054808F026
:10086000DBFA00BFE837BD4680BD00BF00A00040F6
:1008700000440258000C025880B582B000AF786086
:100880007B681B68094A93420BD1094BD3F8EC30C3
:10089000074A23F48073C2F8EC300321054808F0BE
:1008A00075FC00BF0837BD4680BD00BF00A00040FA
:1008B00000440258000C025880B500AF044A0021E1
:1008C00004480FF083FE0346034A136000BF80BD57
:1008D000A08D0208DD0800085001002480B582B018
:1008E00000AF786000F076FF0EF088FE00F0A2FF07
:1008F00000F0B8FF01200FF0FAFE00BFF8E700009B
:10090000B0B588B000AF0D4B3C461D460FCD0FC4AF
:1009100095E8070003C4227039466423182208486A
:100920000CF097F94FF0500383F31188BFF36F8FEA
:10093000BFF34F8FFB6100BF00BFFDE7DC5902082A
:10094000E0010024B0B58AB000AF78603960184B80
:1009500007F108041D460FCD0FC495E8070003C436
:10096000228007F108016423192212480CF071F962
:100970003B68002B09D03868FFF7BCFC03469AB2ED
:10098000642339680B480CF064F9642302220A4995
:1009900008480CF05EF94FF0500383F31188BFF361
:1009A0006F8FBFF34F8F7B6200BF00BFFDE700BFBB
:1009B000F8590208E0010024E05B020880B58CB021
:1009C00000AF07F11C0300221A605A609A60DA60D7
:1009D0001A61694BD3F8E030674A43F01003C2F85C
:1009E000E030654BD3F8E03003F01003BB61BB6926
:1009F000614BD3F8E030604A43F00403C2F8E030C2
:100A00005D4BD3F8E03003F004037B617B695A4B04
:100A1000D3F8E030584A43F02003C2F8E030564B98
:100A2000D3F8E03003F020033B613B69524BD3F82D
:100A3000E030514A43F08003C2F8E0304E4BD3F827
:100A4000E03003F08003FB60FB684B4BD3F8E030F1
:100A5000494A43F00103C2F8E030474BD3F8E03095
:100A600003F00103BB60BB68434BD3F8E030424A5C
:100A700043F00203C2F8E0303F4BD3F8E03003F01C
:100A800002037B607B683C4BD3F8E0303A4A43F08A
:100A90000803C2F8E030384BD3F8E03003F0080325
:100AA0003B603B68002248F27801344808F090FC33
:100AB00000224FF47C51324808F08AFC00220621C3
:100AC000304808F085FC00224FF440712E4808F0B1
:100AD0007FFC002204212D4808F07AFC48F27803BC
:100AE000FB6101233B6200237B620023BB6207F1B1
:100AF0001C031946214808F08FF94FF47C53FB6121
:100B000001233B6200237B620023BB6207F11C03CD
:100B100019461B4808F080F90623FB6101233B625C
:100B200000237B620023BB6207F11C0319461548B2
:100B300008F072F94FF44073FB6101233B6200231C
:100B40007B620023BB6207F11C0319460E4808F0C4
:100B500063F90423FB6101233B6200237B620023D2
:100B6000BB6207F11C031946084808F055F900BF9D
:100B70003037BD4680BD00BF004402580010025807
:100B8000000802580004025800000258000C0258E5
:100B900080B500AF00F090F804F0B6F900F012F85C
:100BA000FFF70CFFFFF79AFD00F0E8F800F076FC85
:100BB00000F0C0FC0FF0A6FCFFF77EFE0FF0C8FCB3
:100BC00000BFFDE780B59CB000AF07F124034C22C5
:100BD0000021184623F0ADFA3B1D202200211846C3
:100BE00023F0A7FA022008F027FC00233B60304BDB
:100BF0009B692F4A43F4404393612D4B9B6903F457
:100C000040433B602B4BDB6A2A4A43F00103D3622B
:100C1000284BDB6A03F001033B603B6800BF244BB9
:100C20009B6903F40053B3F5005FF8D101237B62A5
:100C30004FF48033BB620223BB640223FB640523B1
:100C40003B65C0237B650223BB650823FB6502234C
:100C50003B6608237B660023BB660023FB6607F127
:100C60002403184608F022FC0346002B01D000F0B4
:100C70006BF83F237B600323BB600023FB600923E9
:100C80003B6100237B610023BB610023FB610023E8
:100C90003B623B1D0121184609F062F80346002B18
:100CA00001D000F051F800BF7037BD4680BD00BFD5
:100CB000004802580004005880B584B000AF3B469D
:100CC00000221A605A609A60DA6004F003FB012384
:100CD0003B7000237B7000237B601F233B728723C4
:100CE0007B720023BB720023FB7201233B73012341
:100CF0007B730023BB730023FB733B46184604F051
:100D000021FB01233B7001237B704FF040537B603C
:100D10000E233B7200237B720123BB720323FB7201
:100D200000233B7300237B730023BB730023FB73FF
:100D30003B46184604F006FB042004F0E3FA00BF2B
:100D40001037BD4680BD0000B0B58AB000AF094B7A
:100D50003C1D1D460FCD0FC40FCD0FC42B68238043
:100D6000391D6423212204480BF073FF72B600BFC3
:100D700000BFFDE7145A0208E001002480B500AF6F
:100D8000274B284A1A60264B4FF480025A60244BA6
:100D900000229A60224B0322DA60214B00221A6162
:100DA0001F4B00225A611E4B4FF080629A611C4B10
:100DB0000022DA611A4B00221A62194B00225A6291
:100DC000174B00229A62164B0022DA62144B4FF046
:100DD00080425A63124B00229A63114B0022DA635D
:100DE0000F4B00221A640E4B00225A640C4B002257
:100DF0009A640B4B0022DA64094B00221A65084BF7
:100E000000225A65064B00229A6505480BF060F9EE
:100E10000346002B01D0FFF797FF00BF80BD00BF46
:100E2000540100240050014080B5BAB000AF786092
:100E300007F1D40300221A605A609A60DA601A61DE
:100E400007F11003C0220021184623F072F97B68D5
:100E50001B68264A934245D14FF400524FF00003DD
:100E6000C7E9042300237B6707F11003184609F044
:100E700003FB0346002B01D0FFF766FF1C4BD3F8A2
:100E8000F0301B4A43F48013C2F8F030184BD3F80B
:100E9000F03003F48013FB60FB68154BD3F8E030AF
:100EA000134A43F02003C2F8E030114BD3F8E0308E
:100EB00003F02003BB60BB684FF46073C7F8D43005
:100EC0000223C7F8D8300023C7F8DC300023C7F866
:100ED000E0300523C7F8E43007F1D403194605488C
:100EE00007F09AFF00BFE837BD4680BD00500140C3
:100EF000004402580014025880B582B000AF7860F8
:100F00007B681B68094A93420CD1094BD3F8F03037
:100F1000074A23F48013C2F8F0304FF4607105489B
:100F200008F034F900BF0837BD4680BD00500140CD
:100F3000004402580014025880B582B000AF0C4B38
:100F4000D3F8F4300A4A43F00203C2F8F430084BF5
:100F5000D3F8F43003F002037B607B6800220F219A
:100F60006FF0010004F081F900BF0837BD4680BD75
:100F70000044025880B584B000AF78607B68BB60E5
:100F80000023FB817B68002B10D002E0FB8901333A
:100F9000FB81FB89BA6813441B78002BF6D1FA89D0
:100FA0006423796803480BF054FE00E000BF10375B
:100FB000BD4680BDE001002480B588B000AF7860F8
:100FC00039607868FFF7D6FF1548FFF7D3FF002395
:100FD000FB6113E0FB69C3F107039B003A6822FA47
:100FE00003F303F00F030F4AD15C07F10802FB691A
:100FF00013440A461A70FB690133FB61FB69072B36
:10100000E8D90D233B740A237B740023BB7407F1DA
:1010100008031846FFF7AEFF00BF2037BD4680BD6E
:10102000385A0208C48D020880B582B000AF7860DB
:101030002648FFF79FFF7868FFF79CFF2448FFF7DB
:1010400099FF12F0B5F90346012B0AD012F0A0F96E
:101050000346184611F03CFD03461846FFF78AFF89
:1010600002E01C48FFF786FF1B48FFF783FF1B4B7E
:10107000DB6A19461A48FFF79FFF184B9B6A19460F
:101080001848FFF799FF154B5B6B19461648FFF799
:1010900093FF124B9B6B19461448FFF78DFF1448C2
:1010A00005F0DEFE034619461248FFF785FF104B98
:1010B0001B6803F58053D3F8603119460E48FFF7DB
:1010C0007BFF00BF0837BD4680BD00BF3C5A020809
:1010D000485A0208505A0208E05B020800ED00E09E
:1010E000585A0208605A0208685A0208705A0208E0
:1010F000741E0024785A0208805A020880B400AF97
:1011000000BFFDE780B500AF0248FFF78DFF00BFCD
:10111000FDE700BF885A020880B500AF0248FFF71C
:1011200083FF00BFFDE700BF9C5A020880B500AFF7
:101130000248FFF779FF00BFFDE700BFB05A020881
:1011400080B500AF0248FFF76FFF00BFFDE700BFAB
:10115000C45A020880B400AF00BFBD465DF8047BEE
:101160007047000080B500AF064B1B6803F03EFFE0
:1011700012F01EF90346012B01D013F035F800BF21
:1011800080BD00BF10E000E080B500AF024805F070
:101190006FFA00BF80BD00BF741E002480B500AF91
:1011A00002480BF00BFF00BF80BD00BFE001002430
:1011B00080B400AF01231846BD465DF8047B70473C
:1011C00080B483B000AF78603960054B16221A6096
:1011D0004FF0FF3318460C37BD465DF8047B70476F
:1011E000609B012480B582B000AF78604FF0FF3182
:1011F0007868FFF7E5FF00BFFDE780B586B000AF78
:10120000F860B9607A6000237B610AE0AFF3008088
:101210000146BB685A1CBA60CAB21A707B690133B6
:101220007B617A697B689A42F0DB7B6818461837E5
:10123000BD4680BD80B586B000AFF860B9607A6009
:1012400000237B6109E0BB685A1CBA601B78184612
:10125000AFF300807B6901337B617A697B689A42D6
:10126000F1DB7B6818461837BD4680BD80B483B07B
:1012700000AF78604FF0FF3318460C37BD465DF87D
:10128000047B704780B483B000AF786039603B68FE
:101290004FF400525A60002318460C37BD465DF8E3
:1012A000047B704780B483B000AF78600123184698
:1012B0000C37BD465DF8047B704780B485B000AF45
:1012C000F860B9607A60002318461437BD465DF8AF
:1012D000047B704780B487B000AF7860144A154B28
:1012E000D31A7B617B693B61134B1B68002B02D1D6
:1012F000114B124A1A60104B1A687B6813443A6902
:101300009A4205D20E4B0C221A604FF0FF3309E0CF
:10131000094B1B68FB60084B1A687B681344064A3C
:101320001360FB6818461C37BD465DF8047B7047A8
:101330000000082400100000DC010024709B012440
:10134000609B012480B400AF434BD3F88830424AFD
:1013500043F47003C2F88830404B1B6803F00F035E
:10136000062B07D83D4B1B6823F00F033B4A43F085
:10137000070313603A4B1B68394A43F001031360BB
:10138000374B00221A61364B1A683549354B1340EA
:101390000B60324B1B6803F00803002B07D02F4B68
:1013A0001B6823F00F032D4A43F0070313602C4BF7
:1013B00000229A612A4B0022DA61294B00221A622C
:1013C000274B294A9A62264B284ADA62244B284A3C
:1013D0001A63234B00225A63214B254A9A63204B00
:1013E0000022DA631E4B224A1A641D4B00225A6403
:1013F0001B4B1B681A4A23F480231360184B0022EE
:101400001A661C4B1A681C4B1340B3F1005F02D2E2
:101410001A4B01221A60124BD3F8D43003F48053D4
:10142000002B13D10E4BD3F8D4300D4A43F4805324
:10143000C2F8D430124B43F2D2021A60084BD3F8F0
:10144000D430074A23F48053C2F8D43000BFBD46DD
:101450005DF8047B704700BF00ED00E00020005203
:10146000004402587FEDF6EA000202020000FF018C
:10147000800201010010005C0000FFFF08810051A4
:1014800000400052044BDA6842F00202DA605A6807
:101490009204FCD5704700BF0048025880B500AFE9
:1014A000224B234A1A60214B4FF4E1325A601F4B02
:1014B00000229A601D4B0022DA601C4B00221A6148
:1014C0001A4B0C225A61194B00229A61174B0022C9
:1014D000DA61164B00221A62144B00225A62134B37
:1014E00000229A6211480BF064FB0346002B01D0E6
:1014F000FFF72AFC00210D480DF0B5FF0346002B35
:1015000001D0FFF721FC002108480DF0EAFF034657
:10151000002B01D0FFF718FC04480DF06BFF0346C9
:10152000002B01D0FFF710FC00BF80BDE0010024BC
:101530000078004080B500AF224B234A1A60214B4F
:101540004FF4E1325A601F4B00229A601D4B00227B
:10155000DA601C4B00221A611A4B0C225A61194B9B
:1015600000229A61174B0022DA61164B00221A62A0
:10157000144B00225A62134B00229A6211480BF05E
:1015800018FB0346002B01D0FFF7DEFB00210D48BE
:101590000DF069FF0346002B01D0FFF7D5FB0021BA
:1015A00008480DF09EFF0346002B01D0FFF7CCFB4F
:1015B00004480DF01FFF0346002B01D0FFF7C4FBCA
:1015C00000BF80BD74020024007C004080B5BEB026
:1015D00000AF786007F1E40300221A605A609A6055
:1015E000DA601A6107F12003C0220021184622F0B8
:1015F000A0FD7B681B68634A934273D14FF00202DF
:101600004FF00003C7E908230023C7F8983007F11B
:101610002003184608F030FF0346002B01D0FFF7E7
:1016200093FB594BD3F8E830574A43F08043C2F854
:10163000E830554BD3F8E83003F08043FB61FB6999
:10164000514BD3F8E030504A43F02003C2F8E03069
:101650004D4BD3F8E03003F02003BB61BB694A4B2C
:10166000D3F8E030484A43F01003C2F8E030464B6C
:10167000D3F8E03003F010037B617B694023C7F8A7
:10168000E4300223C7F8E8300023C7F8EC30002329
:10169000C7F8F0300723C7F8F43007F1E403194620
:1016A0003A4807F0B9FB4FF48073C7F8E4300223DF
:1016B000C7F8E8300023C7F8EC300023C7F8F03053
:1016C0000723C7F8F43007F1E4031946304807F060
:1016D000A3FB00220621522003F0C7FD522003F095
:1016E000DEFD4AE07B681B682A4A934245D14FF0F1
:1016F00002024FF00003C7E908230023C7F898301F
:1017000007F12003184608F0B7FE0346002B01D06E
:10171000FFF71AFB1C4BD3F8E8301B4A43F0004399
:10172000C2F8E830184BD3F8E83003F000433B61CF
:101730003B69154BD3F8E030134A43F01003C2F86D
:10174000E030114BD3F8E03003F01003FB60FB688E
:101750000323C7F8E4300223C7F8E8300023C7F8B2
:10176000EC300023C7F8F0300823C7F8F43007F155
:10177000E4031946064807F04FFB00BFF837BD46A3
:1017800080BD00BF00780040004402580014025899
:1017900000100258007C004080B5A4B000AF07F1F3
:1017A0007C0314221946094800F0F4FC07F17C037D
:1017B000381D074A782122F0EBFB3B1D184600F04C
:1017C0003FFE00BF9037BD4680BD00BF2803002408
:1017D000D85A020880B582B000AF00F0FBFB00F0E1
:1017E000E9F80346FB71FB79002B02D002F0BAFF47
:1017F00002E00C4802F008FF00F06AF800F0C4FDB7
:10180000FB79002B02D0084800F01AFE074800F0D0
:1018100017FE00F001F9064800F012FE00BF08377D
:10182000BD4680BD28030024385B0208785B0208AF
:10183000C45B020880B500AF01F090FF00F0A4FD8A
:10184000074800F0FDFD01F0BDFE02F041FE00F092
:10185000F7F901F027FDFFF79FFF00BF80BD00BF34
:10186000E45B020880B500AF01F0BCFE00F042FA74
:1018700001F080FD00F064F800BF80BD80B588B045
:1018800000AF0346FB7107F10C0300221A605A6097
:101890009A60DA601A61FB791A464FF400410B48EE
:1018A00007F096FD4FF40043FB6001233B610023EA
:1018B0007B610023BB6107F10C031946034807F065
:1018C000ABFA00BF2037BD4680BD00BF00100258F4
:1018D00080B500AF00227821134807F079FD00227F
:1018E0004FF47C51114807F073FD00224FF4407112
:1018F0000F4807F06DFD002204210E4807F068FD37
:10190000002202210C4807F063FD012204210A484D
:1019100007F05EFD0120FFF7B1FF0EF043FE034626
:10192000064A136000BF80BD00100258000802582C
:1019300000000258000C025800040258080300245A
:1019400080B582B000AF0EF02DFE7860154B1B689D
:101950007A68D31AF92B21D9124A7B681360124B8B
:101960001B7883F00103DAB20F4B1A700E4B1B7811
:10197000002B14BF01230023DBB21A4602210B48BF
:1019800007F026FD0A4B1B78002B14BF0123002310
:10199000DBB21A460421054807F01AFD00BF0837DC
:1019A000BD4680BD080300240C0300240004025837
:1019B0000800002480B586B000AF3B4600221A60C4
:1019C0005A609A60DA601A614FF400433B6000236A
:1019D0007B600123BB600023FB603B4619460D483A
:1019E00007F01AFA14200EF082FE4FF40041094865
:1019F00007F0D6FC0346FB750120FFF73FFFFB7D98
:101A0000002B01D1012300E0002318461837BD4602
:101A100080BD00BF0010025880B500AF0020FFF766
:101A20002DFF64200EF063FE0120FFF727FF4FF427
:101A300096700EF05CFE00BF80BD000080B584B0E3
:101A400000AF78600023FB6019E01149FA68134683
:101A50005B0013449B000B441B681946786802F036
:101A6000EDFE0346002B07D1FA6813465B001344D2
:101A70009B00074A134406E0FB680133FB60FB68E8
:101A80000F2BE2D9002318461037BD4680BD00BF9A
:101A9000E88D020880B584B000AF78600B46FB701B
:101AA0001346BB707868FFF7C9FFF860FB68002B2E
:101AB00003D0FB689B7A002B01D1002319E0BB788F
:101AC000002B08D0FB685A68FB681B891946104632
:101AD00007F097FC0CE0FB685868FB681989FB78F5
:101AE000002B14BF01230023DBB21A4607F070FC61
:101AF000012318461037BD4680BD80B584B000AFC5
:101B0000786039607868FFF799FFF860FB68002B10
:101B100002D03B68002B01D1002310E0FB685A681B
:101B2000FB681B891946104607F03AFC0346012B57
:101B300001D1012200E000223B681A7001231846FF
:101B40001037BD4680BD0000B0B588B002AF7860E8
:101B5000396000237B617B68002B3DD03B68002B04
:101B60003AD07B6800221A7000233B6130E07A682B
:101B70007B69D0183A687B69D11A3B69002B01D187
:101B8000174C00E0174C184D3A6913465B0013449C
:101B90009B002B441B6800932346144A22F0F8F95B
:101BA000F860FB68002B05DB3A687B69D21AFB689A
:101BB0009A4206D83B68013B7A68134400221A70A7
:101BC0000BE0FB687A6913447B613B6901333B613D
:101BD0003B690F2BCBD900E000BF1837BD46B0BD25
:101BE000185F0208745C0208E88D0208785C02083D
:101BF00080B483B000AF0346FB71FB79082B28BF8C
:101C00000823DBB21A46044B53F8223018460C372F
:101C1000BD465DF8047B7047A88E020880B483B08F
:101C200000AF78607B68072B01D9082302E07B684E
:101C30001B0CDBB218460C37BD465DF8047B7047C1
:101C400080B58AB002AF3B4620220021184622F020
:101C500070FA264806F070F9244806F07BF8234B0A
:101C600001229A63214B0022DA63204B08221A6476
:101C70001E4B04225A641D4B08221A661B4B00227D
:101C80005A661A4B04229A66184805F085FE0346E8
:101C9000002B03D0164B00221A7023E000233B6078
:101CA00000237B600223BB600123FB6000233B61B8
:101CB00000237B613B4619460C4806F06FF8012370
:101CC0000093012300220021084806F0DDF80748B0
:101CD00006F007F90346002B01D1012200E00022A3
:101CE000034B1A702037BD4680BD00BFB0000024F2
:101CF0000D03002480B58CB000AF27E007F1280366
:101D000000221A605A6007F128033A46402117481A
:101D100006F0E4F90346002B18D13B68144A13601F
:101D2000FB681846FFF77AFF03461A46114B1A70F4
:101D3000104B1B781A4607F1280319460E4822F06B
:101D4000A8FA0E4B1B6801330C4A13600C4B1B782E
:101D5000002B06D04021054806F03AFB0346002B35
:101D6000CCD100BF3037BD4680BD00BFB0000024DD
:101D700018030024240300241C030024140300245B
:101D80000D03002480B590B000AFF860B960134631
:101D9000FB7107F11C0324220021184622F0C9F927
:101DA00007F1140300221A605A60234B1B78002BA2
:101DB00005D0BB68002B02D0FB79082B01D900238A
:101DC00036E0FA7907F11403B968184622F061FA8F
:101DD000FB68FB61FB68B3F5006F02D34FF08043F3
:101DE00000E000233B6200237B62FB791846FFF78B
:101DF000FFFE0346BB620023FB6200233B6300231C
:101E00007B630023BB630023FB6307F1140207F12C
:101E10001C031946094806F006F90346002B06D1B3
:101E2000074B1B680133064A1360012300E00023BF
:101E300018464037BD4680BD0D030024B000002485
:101E40001003002480B584B002AF78603960094B7C
:101E50001B781946084B1B68084A126801920093C8
:101E60000B46074A3968786822F092F800BF0837B5
:101E7000BD4680BD0D03002410030024140300247C
:101E8000805C020880B58CB002AF78603960124B7C
:101E9000197807F108022023104802F033FE104B96
:101EA0001B68002B05D10F4A3968786822F070F85A
:101EB0000EE00D4B1A68084B1B78194607F1080312
:101EC000019300911346094A3968786822F060F856
:101ED00000BF2837BD4680BD240300241C03002416
:101EE000140300249C5C020818030024A45C02086C
:101EF00080B483B000AF78607B68002B01D10023F1
:101F000014E07B681B78002B0DD07B681B78DF2BDF
:101F100009D87B6803331B78002B04D07B6803331C
:101F20001B78FF2B01D1002300E0012318460C375A
:101F3000BD465DF8047B704780B487B000AF786021
:101F40000023FB757B68002B01D100233BE07B68FD
:101F50001B781A067B6801331B781B041A437B68C5
:101F600002331B781B0213437A680332127813433F
:101F70003B613B69002B03D03B69B3F1FF3F01D1CB
:101F8000002320E01F23BB7518E0BB7D1A463B6988
:101F9000D340DBB203F00103FB73FB7B002B02D1C8
:101FA0000123FB7504E0FB7D002B01D000230AE038
:101FB00097F91630DBB2013BDBB2BB7597F91630EF
:101FC000002BE2DA012318461C37BD465DF8047B7E
:101FD0007047000080B400AF164BC0221A70154B3A
:101FE000A8225A70134B01229A70124B0A22DA70FF
:101FF000104BC0221A710F4BA8225A710D4B0122AF
:102000009A710C4B0122DA710A4BFF221A72094BAA
:10201000FF225A72074BFF229A72064B0022DA7295
:10202000044B4FF47A629A8100BFBD465DF8047B91
:10203000704700BF2803002480B582B000AF7860ED
:102040000B467B807B88054A0549786800F00AF8D2
:10205000034618460837BD4680BD00BF2C03002448
:102060003003002480B586B000AFF860B9607A60B4
:102070007B80FB68002B02D07B88002B01D10023E2
:1020800037E0F868FFF734FF0346002B05D0B86847
:10209000FFF752FF0346002B01D1002329E0002364
:1020A000FB751FE0FB7DFA681A44FB7D1178134A2B
:1020B000D154FB7DBA681A44FB7D11780F4A134452
:1020C0000A461A727B68002B04D0FB7D7A681344A1
:1020D0001A7800E00022FB7D08490B441A71FB7D51
:1020E0000133FB75FB7D032BDCD9044A7B8893818C
:1020F000012318461837BD4680BD00BF28030024C1
:1021000080B588B002AF786039607B68002B02D060
:102110003B68002B01D1002335E007F1100107F1E6
:10212000140207F10803019307F10C0300930B4617
:102130001749786821F062FF0346042B01D0002381
:1021400021E07B69FF2B08D83B69FF2B05D8FB6892
:10215000FF2B02D8BB68FF2B01D9002313E07B695A
:10216000DAB23B681A703A693B680133D2B21A702E
:10217000FA683B680233D2B21A70BA683B6803331C
:10218000D2B21A70012318461837BD4680BD00BF71
:102190004459020880B588B004AFF860B9607A602D
:1021A000BB68002B21D07B68002B1ED0FB68002B66
:1021B00003D1BB6800221A7018E0FB681B78184630
:1021C000FB6801331B781A46FB6802331B781946FB
:1021D000FB6803331B780293019100920346054A82
:1021E0007968B86821F0D4FE00E000BF1037BD4622
:1021F00080BD00BF4459020880B500AF01221349D9
:1022000013480AF08FFE0346002B1CD0104B1B68AE
:1022100008221A620E4B1B6802221A620C4B1B68C2
:1022200004221A620A4B1B6801221A62084B002220
:10223000C3F89020064B2022C3F88C2001220349CA
:1022400003480AF06FFE00BF80BD00BF08040024F1
:10225000E001002480B582B000AF78607B68002B7D
:1022600009D07868FEF746F803469AB2C823796821
:1022700003480AF0EEFC00BF0837BD4680BD00BF32
:10228000E001002480B500AF0248FFF7E3FF00BF84
:1022900080BD00BF2C5B020880B582B000AF114842
:1022A0000BF078FA78607B68002B17D00D4B1B6819
:1022B00008221A620B4B1B6802221A62094B1B6828
:1022C00004221A62074B1B6801221A62054B002286
:1022D000C3F89020034B2022C3F88C2000BF08379E
:1022E000BD4680BDE001002480B5B4B004AF786085
:1022F00007F1AC03142219461F48FFF74BFF1F4993
:102300007868FDF7EDFF0346002B16D10EF04AF971
:102310000246194B9B8907F10C00029307F1AC03AD
:10232000019300927B68164AA02121F031FE07F14B
:102330000C031846FFF78EFF1AE00EF033F9024641
:102340000D4B9B8907F10C00039307F1AC0302933B
:1023500007F1AC03019300927B680A4AA02121F0A7
:1023600017FE07F10C031846FFF774FFFFF78AFF0B
:10237000C037BD4680BD00BF28030024BC5C0208F6
:10238000C85C0208E85C020880B58AB000AF214B47
:102390001B78002B39D11F4B01221A701E4B0022D3
:1023A0001A800EF0FFF8024641F2883313441B4AAC
:1023B00013601B48FFF74EFF1A48FFF74BFF1A4800
:1023C000FFF748FF1948FFF745FF1948FFF78CFF53
:1023D000FFF712FF174B1B68002B17D13B1D242260
:1023E0000021184621F0A5FE134B7B604FF480536B
:1023F000BB612023FB613B1D1A4600210F480EF0F4
:10240000E5F803460B4A136000E000BF2837BD46DD
:1024100080BD00BF00040024F8030024FC03002456
:102420004C5D02087C5D0208A85D0208C45D0208DC
:10243000F05D020804040024F85D02088525000808
:1024400080B582B000AF78607868FFF703FF00BF07
:102450000837BD4680BD000080B584B000AF78600D
:102460007B68144A934220D1134B1B889BB20133E3
:102470009BB2DBB2FB81114B1B889BB2FA899A425B
:102480000BD00D4B1B889BB21A460D4B19780D4B88
:102490009954094AFB89138004E00B4B1B680133F4
:1024A000094A1360FFF7A8FE00E000BF1037BD46E1
:1024B00080BD00BFE00100240C0500240E050024AF
:1024C000080400240C0400241005002480B582B008
:1024D00000AF78607B68054A934202D1FFF78CFE1B
:1024E00000E000BF0837BD4680BD00BFE00100240A
:1024F00080B582B000AF78607868FFF7ADFF00BFAD
:102500000837BD4680BD80B582B000AF786078687E
:10251000FFF7DCFF00BF0837BD4680BD80B5E0B0E7
:1025200000AF144B1B88002B03D1134B00221A70F1
:102530001BE0104B1B881A46104B002199543B4658
:102540004FF4C07219460D4801F04AF90C48FFF7E4
:1025500081FE3B461846FFF77DFEFFF793FE054BD5
:1025600000221A80044B01221A7007F5C077BD467D
:1025700080BD00BFF80300240104002438030024B8
:10258000E05B020880B582B000AFFFF785FE51E046
:102590003A4B1B889BB21A46394B9B5CFB71374BFD
:1025A0001B889BB201339BB2DBB29AB2334B1A80C9
:1025B000FB790D2B02D0FB790A2B0AD1314B1B780A
:1025C000002B03D02F4B00221A7033E0FFF7A6FF39
:1025D00030E0FB79082B02D0FB797F2B0AD12A4B04
:1025E0001B88002B26D0284B1B88013B9AB2264B18
:1025F0001A801FE0244B1B880133BF2B12D8214BBC
:1026000000221A70204B1B885A1C91B21E4A11805E
:1026100019461E4AFB795354FB793F2B0AD1FFF729
:102620007DFF07E0184B00221A801948FFF712FEC1
:10263000FFF728FE114B1B889AB2164B1B889BB2E2
:102640009A42A5D1104B1B88002B12D10DF0AAFF86
:102650000246114B1B68D31A002B0ADB0DF0A2FFB8
:10266000024641F2883313440B4A13600B48FFF7CC
:102670003BFE01200EF03BF887E700BF0E0500246B
:102680000C04002401040024F8030024380300246F
:10269000045E02080C050024FC030024BC5C020854
:1026A00080B5AAB000AFF860B9607A603B60B868E6
:1026B000FDF720FEC7F89C00FB68C7F8A430FB6854
:1026C000002B08D0BB68002B05D07B68002B02D004
:1026D0003B68002B6ED1002374E0D7F8A420FB6880
:1026E0009A4205D0D7F8A430013B1B78262B51D154
:1026F000D7F89C20B968D7F8A40021F02FFD034635
:10270000002B47D1D7F8A420D7F89C3013441B786E
:102710003D2B3FD1D7F89C300133D7F8A420134488
:10272000C7F898302621D7F8980021F00AFDC7F89D
:102730009400D7F89430002B05D1D7F89800FDF716
:10274000D9FD034604E0D7F89420D7F89830D31A7F
:10275000C7F8A030D7F8A0307F2B02D97F23C7F865
:10276000A03007F11403D7F8A020D7F89810184626
:1027700021F08FFD07F11402D7F8A0301344002296
:102780001A7007F114033A687968184602F00CFAD7
:10279000034617E02621D7F8A40021F0D2FCC7F8A1
:1027A000A400D7F8A430002B0AD0D7F8A430013306
:1027B000C7F8A430D7F8A4301B78002B8DD100E0E7
:1027C00000BF00231846A837BD4680BD80B588B03D
:1027D00000AFF860B9607A600023FB610023FB76EC
:1027E0002DE07A68FB69D31A7B617B69B3F5806F52
:1027F00002D94FF480637B61BA68FB69D11800236A
:102800007A69F86815F002F838613B69002B10DC32
:10281000FB7E0133FB76FB7E072B06D90C4B1B6836
:1028200001330B4A136000230EE002200DF05FFF1E
:1028300005E03B69FA691344FB610023FB76FA6902
:102840007B689A42CDD3012318462037BD4680BD10
:102850002C05002480B5B0B002AFF860B9607A6092
:102860007868FDF747FDC7F8B40007F11000D7F806
:10287000B4300093BB680E4AA02121F089FBC7F851
:10288000B000D7F8B030002B0DDDD7F8B02007F13D
:1028900010031946F868FFF799FFD7F8B420796854
:1028A000F868FFF793FF00BFB837BD4680BD00BF93
:1028B000285E020880B5ACB000AF78603960386837
:1028C000FDF718FDC7F8AC0007F10800D7F8AC30E9
:1028D0000D4AA02121F05CFBC7F8A800D7F8A8306A
:1028E000002B0DDDD7F8A82007F1080319467868FA
:1028F000FFF76CFFD7F8AC2039687868FFF766FF00
:1029000000BFB037BD4680BD785E020880B582B09A
:1029100000AF7860412204497868FFF757FF00BF95
:102920000837BD4680BD00BFCC8E020880B59AB086
:1029300008AF786007F13003142219462448FFF7E6
:1029400029FC07F11C03142219462248FFF722FC38
:1029500007F10803142219461F48FFF71BFC1C4B04
:102960009B8919461A4B9B8907F130020793502324
:10297000069307F10803059307F11C03049307F17D
:1029800030030393029107F10803019307F11C033D
:1029900000931346114A4FF4C051114821F0F8FA40
:1029A00078647B6C002B03DB7B6CB3F5C05F04D3D6
:1029B0000C497868FFF77EFF07E07B6C0A4A1360DA
:1029C000074A0A497868FFF745FF4837BD4680BD8A
:1029D00028030024300300242C030024108F020855
:1029E0003C050024E85E020838050024F85E020871
:1029F00080B58AB000AFF860B9607A603B600023B0
:102A00003B62BB68002B65D03B68002B62D03B6803
:102A10001B68002B5EDD3B681B681A46BB681344CD
:102A200000221A703149B86821F0AAFBF861FB69ED
:102A3000002B51D02E49B86821F0A2FB78627B6A46
:102A4000002B04D12B49B86821F09AFB78627B6A8D
:102A5000002B43D07B6A0F33184621F081F838628F
:102A60003B6A002B3CDDFB691A1DBB68D31ABB61B6
:102A700021E03B681B681A467B689B1A013B7B611F
:102A80003B681B681A46BB6899187A690023F86886
:102A900014F0A6FE38613B69002B23DD3B681A6801
:102AA0003B691A443B681A603B681B681A46BB685E
:102AB000134400221A703B681A68BB69D31A3A6A39
:102AC0009A4210DD3B681B681A467B68013B9A42BC
:102AD000CFD308E000BF06E000BF04E000BF02E083
:102AE00000BF00E000BF2837BD4680BD145F02086C
:102AF0001C5F02082C5F020880B5ADF5347D02AF83
:102B000007F53273A3F531731860112202210220F8
:102B100014F084FFC7F8C402D7F8C432002B04DADB
:102B20004FF47A700DF0E3FD88E007F52C73102266
:102B30000021184621F0FDFA022387F8B132002364
:102B4000C7F8B4323E4B9B89184615F075FD034615
:102B5000A7F8B2324FF001024FF00003C7E9A823F3
:102B60000023C7F8A83207F528731022009241F21B
:102B7000060240F6FF71D7F8C40215F065F907F5B3
:102B80002C7310221946D7F8C40214F021FA034618
:102B9000002B08D0D7F8C40214F07AFA4FF47A70F8
:102BA0000DF0A5FD4AE0264B9A89264B1A803BE0A2
:102BB0001023C7F88C3207F10C0107F5237301933A
:102BC00007F5247300930023FF22D7F8C40214F002
:102BD00079FDC7F8C002D7F8C032002B24DD07F515
:102BE0003273A3F52F72D7F8C032134400221A7043
:102BF00007F5867107F10C034FF4C072184600F018
:102C0000EFFD07F586731846FDF774FB0246D7F80B
:102C10008C3207F58671019307F524730093002326
:102C2000D7F8C40214F054FE054B9A89054B1B8853
:102C30009A42BDD0D7F8C40214F02AFA65E700BF63
:102C4000280300241C05002490B5ADF2344D04AFD8
:102C500007F58463A3F21C43186007F58463A3F5AA
:102C6000846319600023C7F81C3407F5447307F523
:102C7000826207F58461A1F58460C149006821F092
:102C8000BDF90346022B08D007F58463A3F21C4369
:102C9000BC491868FFF70EFED6E107F544733F21E3
:102CA000184621F04EFAC7F81C04D7F81C34002B44
:102CB00006D0D7F81C345A1CC7F81C2400221A70FE
:102CC00007F58463A3F58463AF49186821F058FAC7
:102CD000C7F81804D7F81834002B04D0D7F81834E4
:102CE0000433C7F8183407F54473A8491846FDF7AC
:102CF000F7FA0346002B07D107F58463A3F21C43C0
:102D00001868FFF713FE9FE107F54473A0491846C2
:102D1000FDF7E6FA0346002B07D107F58463A3F21B
:102D20001C431868FFF7F2FD8EE107F544739949DB
:102D30001846FDF7D5FA0346002B40F0FD80D7F882
:102D40001C34002B00F0C28007F58463A3F5EA73FE
:102D5000914A144620686168A26807C3A2891A8054
:102D600007F51A7218238D49D7F81C04FFF798FC51
:102D70000346002B08D007F51A7389491846FDF75A
:102D8000AFFA0346002B08D007F58463A3F21C4377
:102D900084491868FFF78EFD56E107F52F72182356
:102DA0008149D7F81C04FFF77BFC0346002B62D057
:102DB00007F5297218237D49D7F81C04FFF770FC2A
:102DC0000346002B57D007F5237218237849D7F80C
:102DD0001C04FFF765FC0346002B4CD007F520725E
:102DE0000C237449D7F81C04FFF75AFC0346002B48
:102DF00041D007F5197207F52F7311461846FFF7F2
:102E00007FF90346002B36D007F5187207F52973B2
:102E100011461846FFF774F90346002B2BD007F52F
:102E2000177207F5237311461846FFF769F9034631
:102E3000002B20D007F24A2207F5207311461846CE
:102E400001F0B2FD0346002B15D007F58463A3F50E
:102E5000EB731B8807F5177207F5187107F51970E2
:102E6000FFF700F90346002B05D04B4801F010FC9A
:102E70000346002B14D1484A07F58463A3F5EA738F
:102E8000144607CB20606160A2601B88A38107F510
:102E90008463A3F21C4348491868FFF70BFDD3E095
:102EA0003D4A07F58463A3F5EA73144607CB206017
:102EB0006160A2601B88A38107F58463A3F21C43B1
:102EC0003E4A3F491868FFF7C5FCBDE007F53F7370
:102ED000142219463048FFF75DF907F53A731422BA
:102EE00019463848FFF756F907F535731422194685
:102EF0003548FFF74FF9284B9B89194607F53F7274
:102F000007F1C80050230393029107F5357301932D
:102F100007F53A73009313462C4A4FF4807121F061
:102F200037F807F1C80207F58463A3F21C43284968
:102F30001868FFF78FFC87E007F5447325491846AA
:102F4000FDF7CEF90346002B76D107F582632249BF
:102F5000184601F073FC0346002B41D1D7F8183412
:102F6000002B3DD0D7F818341B78002B38D007F150
:102F70000800D7F81834194AC02121F009F847E0B1
:102F80003C5F0208485F0208145F0208545F0208B1
:102F9000585F0208685F020828030024745F020873
:102FA000785F0208805F0208E4850208945F0208E7
:102FB0009C5F0208A05F0208A85F0208C05F0208C9
:102FC000DC5F0208300300242C030024F85F0208B1
:102FD00040600208606002086C60020874600208C9
:102FE000D7F81C34002B0AD007F10802C023184977
:102FF000D7F81C04FFF754FB0346002B08D107F554
:103000008463A3F21C4313491868FFF753FC1BE0C9
:1030100007F1C80107F108034FF4C072184600F029
:10302000DFFB07F1C80207F58463A3F21C430A49DA
:103030001868FFF70FFC07E007F58463A3F21C4351
:1030400006491868FFF736FC07F22447BD4690BDD5
:103050003467020878600208DC5F020888600208B2
:1030600080B5ADF58A6D02AF07F58963A3F24443DD
:1030700018600123C7F82434824B00221A700622FC
:103080000121022014F0CAFCC7F84404D7F84434E4
:10309000002B09DA7C4B1B6801337B4A13604FF429
:1030A0007A700DF024FBECE007F224430422009236
:1030B000042240F6FF71D7F8440414F0C5FE07F56A
:1030C000856310220021184621F033F8022387F887
:1030D00029340023C7F82C34502015F0ADFA0346EC
:1030E000A7F82A3407F5856310221946D7F8440457
:1030F00013F06EFF0346002B07D10421D7F84404D8
:1031000014F020F80346002B0DD0D7F8440413F038
:10311000BFFF5D4B1B6801335B4A13604FF47A704D
:103120000DF0E5FAADE0574B01221A7000220021A4
:10313000D7F8440413F040FEC7F84004D7F84034F1
:10314000002BC0F28D800123C7F80C344FF0000231
:103150004FF0000307F58261C1E900234B4BC7F82C
:10316000183407F20C430422009201220621D7F8FA
:10317000400414F069FE07F582631022009241F2C8
:10318000060240F6FF71D7F8400414F05DFE4FF0E0
:1031900000024FF0000307F58261C1E900233C4BB8
:1031A000C7F8183407F582631022009241F2050235
:1031B00040F6FF71D7F8400414F046FE07F108010D
:1031C000002340F2FF32D7F8400414F009FB034615
:1031D000C7F808342F4B1B6801332E4A1360D7F809
:1031E0000834002B37DD0DF0DDF9C7F83C042A4B1D
:1031F0001B680133284A136007F5816307F1080152
:103200004FF48062D7F84004FFF7F2FBD7F8083498
:1032100007F58962A2F588620021D15407F10803FD
:103220001946D7F84004FFF70FFD0DF0BBF9024631
:10323000D7F83C34D31AC7F83834184AD7F838349A
:103240001360174B1B68D7F838249A4203D9144AE5
:10325000D7F838341360D7F8400413F019FF65E746
:1032600000BF084B00221A70D7F8440413F010FF77
:10327000054B1B680133044A13604FF47A700DF05C
:1032800036FAF6E61F05002420050024400D030051
:1032900020A107002405002428050024300500246F
:1032A0003405002480B500AF00F002F800BF80BDF7
:1032B00080B592B000AF07F1240324220021184604
:1032C00020F037FF194B7B624FF4C053BB631823C8
:1032D000FB633B4624220021184620F02AFF144BB2
:1032E0003B604FF400537B611823BB61114B1B689B
:1032F000002B09D107F124031A4600210E480DF0D6
:1033000065F903460B4A13600C4B1B68002B08D170
:103310003B461A4600210A480DF058F90346074A71
:10332000136000BF4837BD4680BD00BF94600208EF
:10333000A060020814050024F92A000818050024DA
:103340006130000880B400AF074B1B68002B03D02E
:10335000064B1B68002B02D1054B01221A7000BFDF
:10336000BD465DF8047B7047140500241805002451
:103370001E05002480B500AF054B1B78DBB2002B87
:1033800004D0034B00221A70FFF792FF00BF80BDEC
:103390001E0500242DE9F041A4B014AFF863B96311
:1033A000404B1B7898463F4B5B78FB623D4B9B78CC
:1033B000BB623C4BDB787B623B4B93F82D3003F0D8
:1033C0000103DBB2002B02D001237B6301E0002369
:1033D0007B63354B93F82D309B0803F00103DBB280
:1033E000002B02D001233B6301E000233B632F4B02
:1033F0001B78DBB23B622E4B1A68FA612D4B1968C1
:10340000B9612D4B186878612C4B1C683C612C4BC2
:103410001D68FD602B4B1E68BE602B4B1B687B60DC
:103420002A4B5E68294B1D68294803F019FD0446A4
:10343000274803F022FD0146254B1B6803F5805306
:10344000D3F86021224B1B68D3F8003212931192FB
:1034500010910F940E950D967B680C93BE680B9699
:10346000FD680A953C69099478690890B9690791E3
:10347000FA6906923B6A05933B6B04937B6B03935B
:103480007B6A0293BB6A0193FB6A00934346114A2D
:10349000B96BF86B20F07CFD00BF4037BD46BDE83E
:1034A000F08100BF28030024EC1D00241F05002428
:1034B0002405002428050024200500242C050024D0
:1034C000300500243405002438050024241F00247E
:1034D000741E0024AC600208F0B597B00AAF7861A2
:1034E00039614FF0FF337B624FF0FF333B624FF0A7
:1034F000FF33FB614FF0FF33BB614FF0FF33FB62E3
:103500002D4B1B68BB622C4B5B68002B22D0BB6A27
:103510001F2B1FD807F124030122B96A274803F0A3
:10352000B9F907F120030222B96A244803F0B2F97D
:1035300007F11C030322B96A204803F0ABF907F135
:1035400018031F22B96A1D4803F0A4F91A4801F0B4
:1035500053FCF862184B5B68FB607C6A3D6AFE694D
:10356000BA69BA60154803F07BFC7860134803F031
:1035700084FC0146114B1B6803F58053D3F860317E
:103580000E4A1268D2F800220992089307917968CE
:103590000691BA680592049603950294FB6A01931A
:1035A000BB6A0093FB68064A3969786920F0F0FC31
:1035B00000BF3437BD46F0BD241F0024741E002414
:1035C0009061020880B500AF00220821034805F091
:1035D000FFFE034B00221A7000BF80BD001002588E
:1035E0003C1D002480B582B000AF27E0FB790D2B95
:1035F00002D0FB790A2B12D1174B1B88002B1DD050
:10360000154B1B881A46154B00219954144B1B6807
:103610000133134A1360104B00221A800EE00E4B48
:103620001B8801337F2B09D80B4B1B885A1C91B286
:10363000094A11801A46F979084B9954F91D00235B
:103640000122084809F09EFB0346002BCED000BFA4
:1036500000BF0837BD4680BDC41D00243C1D0024AA
:10366000BC1D00247402002480B584B000AF7860D3
:103670007B68002B01D100232DE00122082118488E
:1036800005F0A6FE7868FCF735FE03469AB24FF4C3
:10369000FA737968134809F0DCFA0346FB733223A6
:1036A000022211490F4809F0D4FA022001F0BEFCB1
:1036B000002208210A4805F08BFEFB7B002B04D179
:1036C0000A4B1B680133094A1360FB7B002B01D1B5
:1036D000012300E0002318461037BD4680BD00BF1F
:1036E0000010025874020024E05B0208C01D002490
:1036F00080B584B002AF78603960074B1A68074B19
:103700001B6800931346064A3968786820F040FC2D
:1037100000BF0837BD4680BDC01D0024BC1D00246D
:103720002462020880B582B000AF78603960084B2F
:103730001B78002B01D0064B00E0064B064A396887
:10374000786820F025FC00BF0837BD4680BD00BF6B
:103750003C1D00249C5C02087460020880B400AF29
:1037600000BFBD465DF8047B7047000080B596B091
:1037700004AF7860396007F1340314221946144805
:10378000FEF708FD07F12003142219461148FEF741
:1037900001FD07F10C03142219460F48FEF7FAFC4D
:1037A0000B4B9B89194607F1340250230393029176
:1037B00007F10C03019307F1200300931346074A16
:1037C0003968786820F0E4FB00BF4837BD4680BD0B
:1037D000280300242C03002430030024386202084C
:1037E00090B5ADF5337D04AF07F52E73A3F52B73BC
:1037F000186007F52E73A3F52C73196007F52E7367
:10380000A3F52D731A6007F52E73A3F52C731B68AF
:10381000002B00F0418607F52E73A3F52D731B686E
:10382000002B00F0398607F52E73A3F52C731B6867
:1038300000221A7007F52E73A3F52B731B68002B5B
:103840000ED107F52E73A3F52D7107F52E73A3F591
:103850002C73CA4A0968186820F09AFB00F01DBE54
:1038600007F52E73A3F52B7307F5EC701B68C44A9C
:10387000C02120F08DFB07F5EC73184600F0A0FF87
:10388000C7F8B402D7F8B4321B78002B0ED107F575
:103890002E73A3F52D7107F52E73A3F52C73B74A7C
:1038A0000968186820F074FB00F0F7BDB549D7F837
:1038B000B40200F0C3FF0346002B07D0B249D7F88B
:1038C000B40200F0BBFF0346002B0FD107F52E73A7
:1038D000A3F52D7107F52E73A3F52C70AB4BA84AF9
:1038E0000968006820F054FB00F0D7BDA849D7F85C
:1038F000B40200F0A3FF0346002B0ED107F52E7390
:10390000A3F52D7107F52E73A3F52C73A14A096851
:10391000186820F03DFB00F0C0BD9F49D7F8B40205
:1039200000F08CFF0346002B0ED107F52E73A3F594
:103930002D7107F52E73A3F52C73984A0968186842
:1039400020F026FB00F0A9BD9549D7F8B40200F09D
:1039500075FF0346002B10D1FDF7BAFF07F52E7354
:10396000A3F52D7107F52E73A3F52C738B4A096807
:10397000186820F00DFB00F090BD8A49D7F8B4021A
:1039800000F05CFF0346002B0ED107F52E73A3F564
:103990002D7107F52E73A3F52C73834A09681868F7
:1039A00020F0F6FA00F079BD8049D7F8B40200F0B3
:1039B00045FF0346002B0ED107F52E73A3F52D719D
:1039C00007F52E73A3F52C73794A0968186820F05F
:1039D000DFFA00F062BD7749D7F8B40200F02EFF9D
:1039E0000346002B32D107F1140350211846FEF78D
:1039F00029FA07F1640350211846FFF779FE07F111
:103A0000B4035021184600F0B9FD07F58273782100
:103A10001846FFF7ABFE07F5827207F52E73A3F584
:103A20002D7107F52E73A3F52C7007F1B4030293E3
:103A300007F16403019307F11403009313465E4AF0
:103A40000968006820F0A4FA00F027BD5B49D7F8A8
:103A5000B40200F0F3FE0346002B0ED107F52E73DF
:103A6000A3F52D7207F52E73A3F52C731268196850
:103A70005348FEF78FFB00F010BD07225149D7F8DD
:103A8000B40200F025FF0346002B5CD14C4A07F539
:103A9000E273144620686168A26807C3A2891A808D
:103AA000D7F8B4320733184600F05CFF024607F53A
:103AB000EA7319461046FEF723FB0346002B29D074
:103AC0003F4B9A8907F5EA7311461846FEF7B4FA98
:103AD0000346002B1ED03A4800F0DAFD0346002BC7
:103AE00018D0374B1C4607F5E27307CB20606160A6
:103AF000A2601B88A38107F52E73A3F52D7107F52E
:103B00002E73A3F52C73304A0968186820F040FA28
:103B100000F0C3BC2A4B1C4607F5E27307CB2060BC
:103B20006160A2601B88A38107F52E73A3F52D7138
:103B300007F52E73A3F52C73244A0968186820F042
:103B400027FA00F0AABC2249D7F8B40200F076FEAA
:103B50000346002B40D11A4B9B891A4607F52E735A
:103B6000A3F52D7107F52E73A3F52C701346194A92
:103B70000968006820F00CFA00F08FBC5C62020853
:103B80007460020878620208806202088862020893
:103B9000A8620208B0620208B86202089C690208C2
:103BA000C0620208C8620208D4620208405D0208CE
:103BB000E462020838660208206402082C640208E5
:103BC0002803002434640208C05F02083C64020831
:103BD0005464020858620208C049D7F8B40200F0E1
:103BE0002DFE0346002B0ED107F52E73A3F52D7283
:103BF00007F52E73A3F52C7312681968B848FEF701
:103C0000C9FA00F04ABC0922B649D7F8B40200F05C
:103C10005FFE0346002B60D107F52E73A3F5847376
:103C2000B14A144620686168A26807C3A2891A8055
:103C3000D7F8B4320933184600F094FE024607F56F
:103C4000E07319461046FEF75BFA0346002B2AD0B4
:103C5000A54B9B8907F5E071A44AA348FEF702FA39
:103C60000346002B1FD0A04800F012FD0346002B96
:103C700019D09D4A07F52E73A3F58473144607CB1C
:103C800020606160A2601B88A38107F52E73A3F5F5
:103C90002D7107F52E73A3F52C73954A09681868E2
:103CA00020F076F9F9E3904A07F52E73A3F58473B3
:103CB000144607CB20606160A2601B88A38107F5D2
:103CC0002E73A3F52D7107F52E73A3F52C73894A76
:103CD0000968186820F05CF9DFE38749D7F8B40277
:103CE00000F0ACFD0346002B0DD107F52E73A3F5B4
:103CF0002D7207F52E73A3F52C73126819687B4893
:103D0000FEF748FAC9E309227C49D7F8B40200F06B
:103D1000DFFD0346002B60D107F52E73A3F58E73EC
:103D2000714A144620686168A26807C3A2891A8094
:103D3000D7F8B4320933184600F014FE024607F5EE
:103D4000D67319461046FEF7DBF90346002B2AD03E
:103D5000654B9B8907F5D67261496348FEF782F986
:103D60000346002B1FD0604800F092FC0346002B56
:103D700019D05D4A07F52E73A3F58E73144607CB51
:103D800020606160A2601B88A38107F52E73A3F5F4
:103D90002D7107F52E73A3F52C73554A0968186821
:103DA00020F0F6F879E3504A07F52E73A3F58E73E9
:103DB000144607CB20606160A2601B88A38107F5D1
:103DC0002E73A3F52D7107F52E73A3F52C734C4AB2
:103DD0000968186820F0DCF85FE309224949D7F840
:103DE000B40200F075FD0346002B61D107F52E7378
:103DF000A3F596733C4A144620686168A26807C31D
:103E0000A2891A80D7F8B4320933184600F0AAFD07
:103E1000024607F5CD731946104600F0C5FD03466E
:103E2000002B2BD007F52E73A3F58F731B88194633
:103E30002D48FEF701F90346002B1FD02A4800F059
:103E400027FC0346002B19D0274A07F52E73A3F54C
:103E50009673144607CB20606160A2601B88A38123
:103E600007F52E73A3F52D7107F52E73A3F52C73AB
:103E70001F4A0968186820F08BF80EE31A4A07F504
:103E80002E73A3F59673144607CB20606160A26081
:103E90001B88A38107F52E73A3F52D7107F52E73EB
:103EA000A3F52C73184A0968186820F071F8F4E239
:103EB0001649D7F8B40200F0C1FC0346002B27D105
:103EC00007F52E73A3F52D7207F52E73A3F52C734A
:103ED00011681868FFF74AFCDFE200BF606402085F
:103EE000300300246C640208280300242C030024FF
:103EF000C05F02087864020894640208A0640208A3
:103F0000AC640208C8640208D4640208EC640208C5
:103F1000C849D7F8B40200F091FC0346002B07D043
:103F2000C549D7F8B40200F089FC0346002B0CD138
:103F300007F52E73A3F52D7207F52E73A3F52C73D9
:103F400011681868FFF726FAA7E2BC49D7F8B4024F
:103F500000F074FC0346002B0CD107F52E73A3F57B
:103F60002D7207F52E73A3F52C7311681868FFF7EF
:103F7000B3FA92E2B249D7F8B40200F05FFC03460C
:103F8000002B07D0AF49D7F8B40200F057FC034626
:103F9000002B0FD1FFF7D6F907F52E73A3F52D717E
:103FA00007F52E73A3F52C73A74A096818681FF04C
:103FB000EFFF72E2A549D7F8B40200F03FFC0346D8
:103FC000002B0DD107F52E73A3F52D7107F52E7378
:103FD000A3F52C739E4A096818681FF0D9FF5CE2AC
:103FE0009C49D7F8B40200F029FC0346002B0CD101
:103FF00007F52E73A3F52D7207F52E73A3F52C7319
:1040000011681868FDF7A0FD47E20A229249D7F827
:10401000B40200F05DFC0346002B34D1D7F8B43273
:104020000A33184600F09EFCC7F8980207F28B137B
:104030001946D7F89802FDF760FD0346002B14D00F
:1040400007F52E73A3F22D131B781A4607F52E736E
:10405000A3F52D7107F52E73A3F52C7013467F4A37
:10406000096800681FF094FF17E207F52E73A3F5A7
:104070002D7107F52E73A3F52C73794A096818681A
:104080001FF086FF09E209227649D7F8B40200F052
:104090001FFC0346002B74D1D7F8B4320933C7F89C
:1040A000A4322C21D7F8A40220F04BF8C7F8A002C4
:1040B000D7F8A032002B56D0D7F8A03200221A70C1
:1040C000D7F8A40200F07CFBC7F8A402D7F8A0320E
:1040D0000133184600F074FBC7F8A002D7F8A032ED
:1040E0001B7887F89F3297F89F3201335E4A13445A
:1040F0001B7803F00303022B03D197F89F32203B78
:1041000001E097F89F32542B07D101220021D7F804
:10411000A402FDF7BFFC03460EE0D7F8A0321B78DF
:10412000312B01D1012300E0002300221946D7F8EA
:10413000A402FDF7AFFC034687F89E3297F89E3243
:10414000002B01D0494B00E0454B07F52E72A2F53C
:104150002D7107F52E72A2F52C70454A096800688A
:104160001FF016FF99E107F52E73A3F52D7107F5E2
:104170002E73A3F52C733F4A096818681FF008FFD7
:104180008BE13D49D7F8B40200F058FB0346002B01
:104190000CD107F52E73A3F52D7207F52E73A3F539
:1041A0002C7311681868FDF74DFE76E13349D7F896
:1041B000B40200F043FB0346002B0CD107F52E732D
:1041C000A3F52D7207F52E73A3F52C7311681868EB
:1041D000FDF758FE61E109222949D7F8B40200F041
:1041E00077FB0346002B40F09580D7F8B4320933B3
:1041F000C7F8B0322C21D7F8B0021FF0A2FFC7F8E1
:10420000AC0207F52E73A3F2391300221A70D7F807
:10421000AC32002B36D107F52E73A3F52D7107F5BF
:104220002E73A3F52C73134A096818681FF0B0FEAB
:1042300033E100BFF864020804650208086502085B
:1042400014650208206502082C650208386502081A
:10425000446502085865020864650208586202084D
:104260007065020888650208FDA302089C690208BF
:104270007460020894650208B4650208C06502080B
:10428000C8650208D7F8AC3200221A70D7F8B0021D
:1042900000F096FA03460022002118461FF098FD10
:1042A000C7F8A802D7F8AC32581C07F27F1307F5FD
:1042B000C071082200F0A6FB0346002B1CD007F5B6
:1042C0002E73A3F239131A7807F5C0731946D7F87D
:1042D000A802FDF757FD0346002B0DD007F52E73FE
:1042E000A3F52D7107F52E73A3F52C736D4A09689C
:1042F00018681FF04DFED0E007F52E73A3F52D7161
:1043000007F52E73A3F52C73674A096818681FF028
:104310003FFEC2E06549D7F8B40200F08FFA0346C9
:10432000002B0CD107F52E73A3F52D7207F52E7314
:10433000A3F52C7311681868FFF7DAF9ADE05C4952
:10434000D7F8B40200F07AFA0346002B0CD107F537
:104350002E73A3F52D7207F52E73A3F52C73116838
:104360001868FFF7DFF998E00B225249D7F8B4023A
:1043700000F0AEFA0346002B1DD1D7F8B4320B3350
:10438000184600F0EFFA03461846FFF76DF90346AA
:10439000002B01D0434B00E0474B07F52E72A2F5EE
:1043A0002D7107F52E72A2F52C70444A0968006839
:1043B0001FF0EEFD71E04249D7F8B40200F03EFA7A
:1043C0000346002B0CD107F52E73A3F52D7207F5CC
:1043D0002E73A3F52C731168186800F0CFF85CE019
:1043E0000A223849D7F8B40200F072FA0346002BCB
:1043F00044D107F52E73A3F59D7300221A70D7F8E8
:10440000B43203F10A0007F5BF7307F1B4012022AB
:1044100000F0F8FA0346002B22D007F52E73A3F51F
:104420009D731A7807F5827107F1B403184600F0FE
:104430006FF80346002B13D007F52E73A3F59D7379
:10444000197807F52E73A3F52D7307F52E72A2F5D3
:104450002C7207F582701B68126800F053FB1CE099
:1044600007F52E73A3F52D7107F52E73A3F52C73A5
:10447000154A096818681FF08BFD0EE007F52E73CA
:10448000A3F52D7107F52E73A3F52C730F4A096858
:1044900018681FF07DFD00E000BF07F52F77BD46CF
:1044A00090BD00BF9C690208D4650208F06502084F
:1044B000FC650208086602081466020874600208B7
:1044C00034660208406602084C6602086C66020800
:1044D00080B500AF0C4BDB68072B0FD00A4807F004
:1044E0001BFF094B0722DA60074807F0F1FD03467E
:1044F000002B06D1054B01221A7002E0034B01226A
:104500001A7000BF80BD00BF54010024C61D0024E6
:1045100080B586B002AFF860B9601346FB71144BEA
:104520001B78002B08D0FB68002B05D0BB68002B44
:1045300002D0FB79002B01D1002314E0FB799BB260
:104540004FF4FA720092BA68F9680A4807F00EFF51
:104550000346002B06D1084B1B680133064A136043
:10456000012300E0002318461037BD4680BD00BF80
:10457000C61D002454010024C81D002480B584B049
:1045800002AF78603960084B1B781A46074B1B68EE
:1045900000931346064A396878681FF0F9FC00BF9B
:1045A0000837BD4680BD00BFC61D0024C81D0024BD
:1045B0008866020880B485B000AF78603960104B1F
:1045C000FB600023BB600FE07A68BB6813441B7874
:1045D0001A46FB685340FB60FB680A4A02FB03F380
:1045E000FB60BB680133BB60BA683B689A42EBD39F
:1045F000FB6818461437BD465DF8047B704700BF62
:10460000C59D1C819301000190B585B000AF786015
:104610001D4BFB607B68002B08D0FB681B681B4AA6
:10462000934203D1FB689B88012B01D0002326E035
:10463000FB6808330E211846FFF7BCFFB860FB6823
:104640009B69BA689A4201D0002318E0FB689B8AF4
:10465000002B07D0FB681B7A002B03D0FB681B7A6A
:10466000DF2B01D900230AE07A68FB68144608337F
:1046700007CB20606160A2601B88A38101231846DC
:104680001437BD4690BD00BF00001E0831304358AE
:10469000B0B598B000AF786007F16003583B1F33A6
:1046A0005B095C0107F1480300221A605A609A60B6
:1046B000DA601A6100237B647B68002B01D1002340
:1046C00047E02022FF2120461FF033FD234B2360CB
:1046D0000123A3807A6804F10803154628686968F5
:1046E000AA6807C3AA891A8004F108030E21184694
:1046F000FFF760FF0346A36104F01EF90023BB64CB
:104700000223FB6407233B6501237B652023BB65F4
:1047100007F1440207F148031146184604F00AFA6B
:10472000034687F85F3097F85F30002B08D12346A7
:104730001A460B49012004F06DF8034687F85F30F4
:1047400004F034F997F85F30002B01D1012300E029
:10475000002318466037BD46B0BD00BF3130435816
:1047600000001E0880B588B000AF07F108030022E2
:104770001A605A609A60DA601A6100237B6004F064
:10478000DBF80023BB600223FB6007233B610123AE
:104790007B612023BB613A1D07F1080311461846CF
:1047A00004F0C8F90346FB7704F000F9FB7F002B07
:1047B00001D1012300E0002318462037BD4680BD0B
:1047C00080B584B000AF78607B68002B04D17B6833
:1047D0002EE07B6801337B607B681B78002B09D05F
:1047E0007B681B780133144A13441B7803F00803D9
:1047F000002BEED17868FBF77DFD02467B68134401
:10480000FB6002E0FB68013BFB60FA687B689A4250
:104810000AD9FB68013B1B780133074A13441B7814
:1048200003F00803002BEDD1FB6800221A707B68AF
:1048300018461037BD4680BDFDA3020880B487B07E
:1048400000AF786039602DE07B685A1C7A601B7875
:10485000FB75FB7D01331D4A13441B7803F00303F2
:10486000022B02D1FB7D203B00E0FB7D3B613B68DE
:104870005A1C3A601B78FB73FB7B0133134A1344C9
:104880001B7803F00303022B02D1FB7B203B00E0EB
:10489000FB7BBB603A69BB689A4203D03A69BB684C
:1048A000D31A0DE07B681B78002B03D03B681B7884
:1048B000002BC9D17B681B781A463B681B78D31A3A
:1048C00018461C37BD465DF8047B7047FDA30208FF
:1048D00080B489B000AFF860B9607A6033E0FB68FB
:1048E0005A1CFA601B78FB77FB7F01331C4A134488
:1048F0001B7803F00303022B02D1FB7F203B00E077
:10490000FB7FBB61BB685A1CBA601B78FB75FB7DE3
:104910000133134A13441B7803F00303022B02D123
:10492000FB7D203B00E0FB7D3B61BA693B699A421D
:1049300005D1BB69002B02D03B69002B03D1BA69BA
:104940003B69D31A05E07B685A1E7A60002BC6D1FA
:10495000002318462437BD465DF8047B704700BF2E
:10496000FDA3020880B483B000AF786002E07B68EA
:1049700001337B607B68002B0DD07B681B78002B9C
:1049800009D07B681B780133064A13441B7803F077
:104990000803002BEBD17B6818460C37BD465DF849
:1049A000047B7047FDA3020880B584B000AF786037
:1049B00039607B68002B02D03B68002B01D10023BB
:1049C0001CE007F108030022194678681FF000FA7E
:1049D000F860BB681846FFF7C5FF0346BB60BB68BD
:1049E0001B78002B03D1FB68B3F5803F01D3002374
:1049F00004E0FB689AB23B681A800123184610371E
:104A0000BD4680BD80B588B000AFF860B9603B603E
:104A10001346FB710023FB77FB68002B05D0BB68B6
:104A2000002B02D03B68002B5CD1002364E007F12F
:104A3000140300210A461A800A469A70F868FFF7A4
:104A400091FFF860FB681B78002B50D0FB681B7847
:104A50002C2B03D1FB680133FB6043E0FA7FFB7929
:104A60009A4209D2FB681B780133254A13441B780C
:104A700003F04403002B01D100233DE0FB681B78C9
:104A80003B75FB6801331B7801331D4A13441B78C7
:104A900003F04403002B07D0FB6801331B787B75C0
:104AA000FB680233FB6002E0FB680133FB6007F147
:104AB000100107F11403102218461FF089F9B8619C
:104AC0003B691B78002B02D1BB69FF2B01D9002366
:104AD00012E0FB7F5A1CFA771A46BB681344BA6986
:104AE000D2B21A70FB681B78002BA0D100E000BF87
:104AF0003B68FA7F1A70012318462037BD4680BDF7
:104B0000FDA3020890B58BB002AFF8607A603B60FD
:104B10000B46FB720023FB617B68002B3AD03B689D
:104B2000002B37D07B6800221A700023FB762CE024
:104B30007A68FB69D0183A68FB69D11AFB7E002BB2
:104B400001D1164C00E0164CFB7EFA6813441B782A
:104B500000932346134A1FF01BFA78617B69002BF0
:104B600005DB3A68FB69D21A7B699A4206D83B6832
:104B7000013B7A68134400221A700CE07B69FA69E1
:104B80001344FB61FB7E0133FB76FA7EFB7A9A428B
:104B9000CED300E000BF2437BD4690BD5059020877
:104BA000545902085859020880B586B000AFF86021
:104BB000B9607A6000237B61FB68002B05D0BB687D
:104BC000002B02D07B68002B51D1002364E0FB68EE
:104BD0001B78252B32D1FB6801331B780133304A17
:104BE00013441B7803F04403002B27D0FB680233E7
:104BF0001B7801332A4A13441B7803F04403002B2B
:104C00001CD0FB6801331B783B74FB6802331B78B4
:104C10007B740023BB7407F1100310220021184697
:104C20001FF0D6F801467B695A1C7A61BA681344B2
:104C3000CAB21A70FB680333FB6018E0FB681B788C
:104C40002B2B0AD17B695A1C7A61BA681344202243
:104C50001A70FB680133FB6009E0FB685A1CFA60BC
:104C60007A69511C7961B9680A441B781370FB6832
:104C70001B78002B04D07B6901337A689A42A6D84E
:104C8000BA687B69134400221A70FB681B78002BFA
:104C900001D1012300E0002318461837BD4680BD2E
:104CA000FDA30208DFF838D0FCF7ECFBFCF74AFB69
:104CB0000C480D490D4A002302E0D458C450043377
:104CC000C4188C42F9D30A4A0A4C002301E013604D
:104CD0000432A242FBD31FF0B5FAFBF759FFFEE7FF
:104CE00000000824000000249400002410A50208FD
:104CF00094000024709B0124FEE780B483B000AFD1
:104D0000786039607B68002B0BD03B68DB68002B38
:104D100007D03B689B68002B03D03B681B69002BC6
:104D200002D14FF0FF3314E03B681A687B689A6049
:104D30003B685A687B68DA603B68DA687B685A616E
:104D40003B689A687B681A613B681A697B689A615C
:104D5000002318460C37BD465DF8047B704780B5CC
:104D600086B000AF78600023FB6000237B610023E6
:104D70003B617B685B68002B39D17B689B68002BAB
:104D800002D07B689B6898477B6820221A600023CA
:104D90007B611CE07B685B6907F10C02122178697A
:104DA00098470346002B03DA6FF004033B610BE0E6
:104DB000FB6803F01F037A699A4205D17B687A6920
:104DC0001A6000233B6105E07B6901337B617B69ED
:104DD0001F2BDFD97B681B681F2B02D96FF00203E2
:104DE0003B613B69002B02D17B6801225A603B6921
:104DF00018461837BD4680BD80B584B000AF7860D6
:104E00000023FB607B685B697A68106807F10C021D
:104E1000012198470346002B02DA6FF004036EE08D
:104E20007B685B697A68106807F10C02012198477A
:104E30000346002B02DA6FF0040360E0FB6803F026
:104E40000403002B01D1012359E07B685B697A6878
:104E5000106807F10C02002198470346002B02DA84
:104E60006FF004034BE0FB6803F48053002B1BD16D
:104E7000FB6803F40053002B06D0FB6803F4807337
:104E8000002B01D002233AE0FB6803F40053002B0F
:104E900001D0032333E0FB6803F48073002B01D0BF
:104EA00004232CE005232AE07B685B697A6810689C
:104EB00007F10C021F2198470346002B02DA6FF01E
:104EC00004031CE0FB6803F48053002B01D106238C
:104ED00015E0FB6803F01C03182B01D102230EE040
:104EE000FB6803F01C03082B01D1032307E0FB68D8
:104EF00003F01C03142B01D1042300E00523184602
:104F00001037BD4680BD000080B582B000AF0320E1
:104F100000F0A0F905F0DAF80246154B9B691B0A70
:104F200003F00F031349CB5C03F01F0322FA03F3D2
:104F30007B600F4B9B6903F00F030E4AD35C03F0B9
:104F40001F037A6822FA03F30B4A13600B4A7B684B
:104F500013600F2000F014F80346002B01D001234A
:104F600002E0FBF7E9FF002318460837BD4680BD85
:104F700000440258D88D02080400002400000024D8
:104F800080B582B000AF7860154B1B78002B01D143
:104F9000012321E0134B1A68114B1B7819464FF47B
:104FA0007A73B3FBF1F3B2FBF3F3184600F085F923
:104FB0000346002B01D001230EE07B680F2B0AD89B
:104FC000002279684FF0FF3000F04FF9064A7B6805
:104FD0001360002300E0012318460837BD4680BD5A
:104FE00010000024000000240C00002480B400AF56
:104FF000064B1B781A46064B1B681344044A136081
:1050000000BFBD465DF8047B704700BF1000002460
:10501000CC1D002480B400AF034B1B681846BD466E
:105020005DF8047B704700BFCC1D002480B584B0C0
:1050300000AF7860FFF7EEFFB8607B68FB60FB684D
:10504000B3F1FF3F05D00A4B1B781A46FB681344A7
:10505000FB6000BFFFF7DEFF0246BB68D31AFA68A9
:105060009A42F7D800BF00BF1037BD4680BD00BFD1
:105070001000002480B400AF034B1B681B0C1846C3
:10508000BD465DF8047B70470010005C80B483B0BF
:1050900000AF7860064B5B6823F4600204497B68CC
:1050A00013434B6000BF0C37BD465DF8047B70476F
:1050B0000004005880B485B000AF78607B6803F0CE
:1050C0000703FB600B4BDB68BB60BA684FF6FF035E
:1050D0001340BB60FB681A02BB681A43064B1343BC
:1050E000BB60044ABB68D36000BF1437BD465DF89F
:1050F000047B704700ED00E00000FA0580B400AFCB
:10510000044BDB681B0A03F007031846BD465DF835
:10511000047B704700ED00E080B483B000AF03462D
:10512000FB80B7F90630002B0BDBFB8803F01F0276
:105130000749B7F906305B09012000FA02F241F88D
:10514000232000BF0C37BD465DF8047B704700BFCD
:1051500000E100E080B483B000AF03463960FB801B
:10516000B7F90630002B0ADB3B68DAB20C49B7F915
:1051700006301201D2B20B4483F800230AE03B68E8
:10518000DAB20849FB8803F00F03043B1201D2B2E4
:105190000B441A7600BF0C37BD465DF8047B7047A0
:1051A00000E100E000ED00E080B489B000AFF860FD
:1051B000B9607A60FB6803F00703FB61FB69C3F128
:1051C0000703042B28BF0423BB61FB690433062BB0
:1051D00002D9FB69033B00E000237B614FF0FF3203
:1051E000BB6902FA03F3DA43BB681A407B699A4051
:1051F0004FF0FF317B6901FA03F3D9437B680B4021
:10520000134318462437BD465DF8047B7047000001
:1052100080B582B000AF78607B68013BB3F1807FDE
:1052200001D301230FE00A4A7B68013B53600F2141
:105230004FF0FF30FFF78EFF054B00229A60044BC2
:1052400007221A60002318460837BD4680BD00BFFC
:1052500010E000E080B582B000AF78607868FFF7BA
:1052600029FF00BF0837BD4680BD80B586B000AFBE
:105270000346B9607A60FB81FFF740FF78617A6886
:10528000B9687869FFF790FF0246B7F90E3011460A
:105290001846FFF75FFF00BF1837BD4680BD80B5D9
:1052A00082B000AF0346FB80B7F906301846FFF71F
:1052B00033FF00BF0837BD4680BD80B582B000AF68
:1052C00078607868FFF7A4FF034618460837BD46A4
:1052D00080BD000080B400AFBFF35F8F00BF074BFD
:1052E0005B6A064A23F480335362054B00225A60FE
:1052F00000BFBD465DF8047B704700BF00ED00E0D5
:1053000090ED00E080B483B000AF78600B4A7B681A
:1053100043F0010353600A4B5B6A094A43F480334C
:105320005362BFF34F8F00BFBFF36F8F00BF00BF4B
:105330000C37BD465DF8047B704700BF90ED00E080
:1053400000ED00E080B483B000AF78607B685A78ED
:105350001B4B9A601A4B1B69194A23F00103136116
:10536000174A7B685B68D3607B681B7B1A077B6886
:10537000DB7A1B061A437B689B7ADB041A437B6843
:105380005B7B9B041A437B689B7B5B041A437B68B3
:10539000DB7B1B041A437B685B7A1B021A437B6826
:1053A0001B7A5B0013437A6812781146044A0B4358
:1053B000136100BF0C37BD465DF8047B704700BF2A
:1053C00090ED00E080B586B000AF7860FFF722FE78
:1053D00038617B68002B01D10123DCE27B6893F804
:1053E0003530DBB2022B08D07B6880225A657B689F
:1053F000002283F834200123CDE27B681B68644AD5
:1054000093424AD07B681B68624A934245D07B68CE
:105410001B68614A934240D07B681B685F4A934295
:105420003BD07B681B685E4A934236D07B681B6822
:105430005C4A934231D07B681B685B4A93422CD014
:105440007B681B68594A934227D07B681B68584A7F
:10545000934222D07B681B68564A93421DD07B68DA
:105460001B68554A934218D07B681B68534A934285
:1054700013D07B681B68524A93420ED07B681B682E
:10548000504A934209D07B681B684F4A934204D02C
:105490007B681B684D4A934208D17B681B681A6879
:1054A0007B681B6822F001021A6007E07B681B68BA
:1054B0001A687B681B6822F001021A607B681B680F
:1054C000334A93424AD07B681B68324A934245D0A4
:1054D0007B681B68304A934240D07B681B682F4A28
:1054E00093423BD07B681B682D4A934236D07B6841
:1054F0001B682C4A934231D07B681B682A4A93422E
:105500002CD07B681B68294A934227D07B681B6894
:10551000274A934222D07B681B68264A93421DD0BB
:105520007B681B68244A934218D07B681B68234A17
:10553000934213D07B681B68214A93420ED07B684C
:105540001B68204A934209D07B681B681E4A93421D
:1055500004D07B681B681D4A934201D1012300E0FF
:105560000023002B34D07B681B681A687B681B689B
:1055700022F01E021A607B681B685A697B681B68F0
:1055800022F080025A617B681B687B612BE000BFC0
:105590001000024028000240400002405800024033
:1055A0007000024088000240A0000240B8000240A3
:1055B0001004024028040240400402405804024003
:1055C0007004024088040240A0040240B804024073
:1055D0007B681B681A687B681B6822F00E021A60E1
:1055E0007B681B687B617B681B687F4A934272D033
:1055F0007B681B687D4A93426DD07B681B687C4A40
:10560000934268D07B681B687A4A934263D07B6878
:105610001B68794A93425ED07B681B68774A934245
:1056200059D07B681B68764A934254D07B681B68CC
:10563000744A93424FD07B681B68734A93424AD0A6
:105640007B681B68714A934245D07B681B68704A2F
:10565000934240D07B681B686E4A93423BD07B6884
:105660001B686D4A934236D07B681B686B4A934235
:1056700031D07B681B686A4A93422CD07B681B68D8
:10568000684A934227D07B681B68674A934222D0BE
:105690007B681B68654A93421DD07B681B68644A1F
:1056A000934218D07B681B68624A934213D07B6890
:1056B0001B68614A93420ED07B681B685F4A934225
:1056C00009D07B681B685E4A934204D07B681B68E4
:1056D0005C4A934201D1012300E00023002B1CD03F
:1056E0007B681B6E1A687B681B6E22F480721A60DE
:1056F00013E0FFF78FFC02463B69D31A052B0CD948
:105700007B6820225A657B68032283F835207B68FA
:10571000002283F8342001233DE17B691B6803F0FC
:105720000103002BE5D17B681B682F4A93424AD0C6
:105730007B681B682D4A934245D07B681B682C4AC6
:10574000934240D07B681B682A4A93423BD07B68D7
:105750001B68294A934236D07B681B68274A9342CC
:1057600031D07B681B68264A93422CD07B681B682B
:10577000244A934227D07B681B68234A934222D055
:105780007B681B68214A93421DD07B681B68204AB6
:10579000934218D07B681B681E4A934213D07B68E3
:1057A0001B681D4A93420ED07B681B681B4A9342BC
:1057B00009D07B681B681A4A934204D07B681B6837
:1057C000184A934201D1012300E00023002B3BD073
:1057D0007B689B6DBB607B68DB6D03F01F033F2222
:1057E0009A40BB689A603AE01000024028000240EC
:1057F0004000024058000240700002408800024011
:10580000A0000240B80002401004024028040240F8
:1058100040040240580402407004024088040240E0
:10582000A0040240B8040240085402581C54025814
:105830003054025844540258585402586C54025878
:1058400080540258945402587B689B6DFB607B68BF
:10585000DB6D03F01F0301229A40FB685A607B68EE
:105860001B684F4A934272D07B681B684D4A934233
:105870006DD07B681B684C4A934268D07B681B687C
:105880004A4A934263D07B681B68494A93425ED080
:105890007B681B68474A934259D07B681B68464A1D
:1058A000934254D07B681B68444A93424FD07B6834
:1058B0001B68434A93424AD07B681B68414A934223
:1058C00045D07B681B68404A934240D07B681B6888
:1058D0003E4A93423BD07B681B683D4A934236D098
:1058E0007B681B683B4A934231D07B681B683A4A0D
:1058F00093422CD07B681B68384A934227D07B6840
:105900001B68374A934222D07B681B68354A934212
:105910001DD07B681B68344A934218D07B681B6893
:10592000324A934213D07B681B68314A93420ED0AF
:105930007B681B682F4A934209D07B681B682E4AFC
:10594000934204D07B681B682C4A934201D1012307
:1059500000E00023002B15D07B685B6E7A68926EA6
:105960005A607B68DB6E002B0CD07B68DB6E1A689C
:105970007B68DB6E22F480721A607B681B6F7A682A
:10598000526F5A607B68012283F835207B680022C1
:1059900083F83420002318461837BD4680BD00BF69
:1059A000100002402800024040000240580002401F
:1059B0007000024088000240A0000240B80002408F
:1059C00010040240280402404004024058040240EF
:1059D0007004024088040240A0040240B80402405F
:1059E000085402581C540258305402584454025867
:1059F000585402586C540258805402589454025817
:105A000080B584B000AF78607B68002B01D10123A2
:105A100037E27B6893F83530DBB2022B04D07B6829
:105A200080225A6501232CE27B681B685C4A934202
:105A30004AD07B681B685B4A934245D07B681B68F1
:105A4000594A934240D07B681B68584A93423BD0E6
:105A50007B681B68564A934236D07B681B68554A60
:105A6000934231D07B681B68534A93422CD07B68A9
:105A70001B68524A934227D07B681B68504A934266
:105A800022D07B681B684F4A93421DD07B681B68FD
:105A90004D4A934218D07B681B684C4A934213D0FE
:105AA0007B681B684A4A93420ED07B681B68494A50
:105AB000934209D07B681B68474A934204D07B68B5
:105AC0001B68464A934201D1012300E00023002BCA
:105AD00000F086807B68042283F835207B681B6891
