:020000040802F0
:1000000000000824219602085D0E0208650E020811
:10001000790E02088D0E0208A10E020800000000F1
:10002000000000000000000000000000117D030837
:10003000B50E020800000000A17F0308C10E0208EF
:10004000759602087596020875960208759602085C
:10005000759602087596020875960208759602084C
:10006000759602087596020875960208759602083C
:10007000759602087596020875960208759602082C
:10008000759602087596020875960208759602081C
:10009000759602087596020875960208759602080C
:1000A00075960208759602087596020875960208FC
:1000B00075960208759602087596020875960208EC
:1000C00075960208759602087596020875960208DC
:1000D00075960208759602087596020875960208CC
:1000E00075960208759602080000000075960208D1
:1000F00075960208759602087596020875960208AC
:10010000759602087596020875960208759602089B
:10011000759602087596020875960208759602088B
:10012000759602087596020875960208759602087B
:1001300075960208E50E0208759602087596020883
:1001400000000000000000000000000000000000AF
:10015000759602087596020875960208759602084B
:10016000759602087596020875960208759602083B
:100170007596020875960208759602080000000040
:100180007596020875960208F90E0208759602081F
:10019000759602087596020875960208759602080B
:1001A00075960208759602087596020875960208FB
:1001B00075960208759602087596020875960208EB
:1001C00075960208759602087596020875960208DB
:1001D00075960208759602087596020875960208CB
:1001E00075960208759602087596020875960208BB
:1001F00075960208759602087596020875960208AB
:10020000759602087596020875960208759602089A
:10021000759602087596020875960208759602088A
:10022000759602087596020875960208000000008F
:10023000759602087596020800000000759602087F
:10024000759602087596020875960208759602085A
:10025000759602087596020875960208759602084A
:10026000759602087596020875960208759602083A
:10027000759602087596020875960208000000003F
:10028000759602087596020875960208000000002F
:08029000000000007596020851
:1002A00010F8012B11F8013B012A28BF9A42F7D020
:1002B000D01A7047034613F8012B002AFBD1181AF5
:1002C000013870470000000000000000000000003E
:1002D00001F0FF01102A2BDB10F0070F08D010F8F7
:1002E000013B013A8B422DD010F0070F42B3F6D1FB
:1002F000F0B441EA012141EA014122F007047FF014
:1003000000070023F0E80256083C85EA010586EA6A
:10031000010685FA47F5A3FA87F586FA47F6A5FAA6
:1003200087F68EB9EED1F0BC01F0FF0102F00702B2
:1003300032B110F8013B013A83EA010313B1F8D15D
:100340000020704701387047002D06BF354603383E
:10035000073815F0010F07D1013015F4807F02BF77
:10036000013015F4C03F0130F0BC0138704700BFC8
:1003700053B94AB9002908BF00281CBF4FF0FF310C
:100380004FF0FF3000F00CB8ADF1080C6DE904CE71
:1003900029F0B8F9DDF804E0DDE9022304B0704784
:1003A000704700BF0348044B834202D0034B03B1A4
:1003B00018477047980000249800002400000000AF
:1003C0000548064B1B1AD90F01EBA301491002D0B7
:1003D000034B03B11847704798000024980000248D
:1003E0000000000010B5064C237843B9FFF7DAFF90
:1003F000044B13B10448AFF300800123237010BDF8
:10040000A000002400000000249A040808B5054B51
:100410001BB105490548AFF30080BDE80840FFF770
:10042000CFBF00BF00000000A4000024249A0408ED
:1004300080B500AF2F4B304A1A602E4B00229A60D5
:100440002C4B0022DA602B4B00221A74294B00221D
:100450005A74284B00229A74264B10225A61254B5D
:1004600001229A61234B0122DA61224B01221A6296
:10047000204B01225A621F4B01229A621D4B01221E
:10048000DA621C4B01221A631A4B00225A63194B81
:1004900000229A63174B0022DA63164B00221A647B
:1004A000144B04225A64134B00229A64114B042209
:1004B000DA64104B00221A650E4B04225A650D4B6C
:1004C00000229A650B4B0022DA650A4B00221A665D
:1004D000084B00225A66074B04229A6605480BF027
:1004E00005FF0346002B03D0002001F0D5F900BF23
:1004F00080BD00BFBC00002400A0004080B5BAB0A1
:1005000000AF786007F1D40300221A605A609A6045
:10051000DA601A6107F11003C0220021184627F0A3
:10052000FEFC7B681B68274A934248D14FF4004287
:100530004FF00003C7E904234FF08053C7F8803021
:1005400007F1100318460EF005FC0346002B03D0FC
:10055000002001F0A1F932E01B4BD3F8EC301A4A2D
:1005600043F48073C2F8EC30174BD3F8EC3003F44B
:100570008073FB60FB68144BD3F8E030124A43F001
:100580000803C2F8E030104BD3F8E03003F0080362
:10059000BB60BB680323C7F8D4300223C7F8D83048
:1005A0000023C7F8DC300023C7F8E0300923C7F880
:1005B000E43007F1D403194604480DF0CBF8E837CE
:1005C000BD4680BD00A0004000440258000C025807
:1005D00080B582B000AF78607B681B68094A93429F
:1005E0000BD1094BD3F8EC30074A23F48073C2F8DF
:1005F000EC30032105480DF067FA00BF0837BD460F
:1006000080BD00BF00A0004000440258000C02580A
:1006100080B500AF044A0021044813F051FE0346A0
:10062000034A136000BF80BDCCDD04083506020814
:100630005C01002480B582B000AF786000F096FFC6
:1006400012F096FD00F0D4FF00F0ECFF012013F053
:10065000CFFE00BFF8E780B400AFBFF34F8F00BFFD
:1006600030BFBFF36F8F00BF00BFBD4680BC704777
:10067000B0B588B000AF0D4B3C461D460FCD0FC442
:1006800095E8070003C422703946642318220848FD
:1006900010F0B0F94FF0500383F31188BFF36F8F60
:1006A000BFF34F8FFB6100BF00BFFDE7289B04082D
:1006B00064010024B0B58AB000AF78603960184B8F
:1006C00007F108041D460FCD0FC495E8070003C4C9
:1006D000228007F1080164231922124810F08AF9D8
:1006E0003B68002B09D03868FFF7E4FD03469AB257
:1006F000642339680B4810F07DF9642302220A490B
:10070000084810F077F94FF0500383F31188BFF3D6
:100710006F8FBFF34F8F7B6200BF00BFFDE700BF4D
:10072000449B04086401002420A1040880B58CB017
:1007300000AF07F11C0300221A605A609A60DA6069
:100740001A61694BD3F8E030674A43F01003C2F8EE
:10075000E030654BD3F8E03003F01003BB61BB69B8
:10076000614BD3F8E030604A43F00403C2F8E03054
:100770005D4BD3F8E03003F004037B617B695A4B97
:10078000D3F8E030584A43F02003C2F8E030564B2B
:10079000D3F8E03003F020033B613B69524BD3F8C0
:1007A000E030514A43F08003C2F8E0304E4BD3F8BA
:1007B000E03003F08003FB60FB684B4BD3F8E03084
:1007C000494A43F00103C2F8E030474BD3F8E03028
:1007D00003F00103BB60BB68434BD3F8E030424AEF
:1007E00043F00203C2F8E0303F4BD3F8E03003F0AF
:1007F00002037B607B683C4BD3F8E0303A4A43F01D
:100800000803C2F8E030384BD3F8E03003F00803B7
:100810003B603B68002248F2780134480DF075FADD
:1008200000224FF47C5132480DF06FFA002206216D
:1008300030480DF06AFA00224FF440712E480DF056
:1008400064FA002204212D480DF05FFA48F2780383
:10085000FB6101233B6200237B620023BB6207F143
:100860001C03194621480CF075FF4FF47C53FB61C3
:1008700001233B6200237B620023BB6207F11C0360
:1008800019461B480CF066FF0623FB6101233B62FF
:1008900000237B620023BB6207F11C031946154845
:1008A0000CF058FF4FF44073FB6101233B620023BF
:1008B0007B620023BB6207F11C0319460E480CF053
:1008C00049FF0423FB6101233B6200237B62002379
:1008D000BB6207F11C03194608480CF03BFF00BF40
:1008E0003037BD4680BD00BF00440258001002589A
:1008F000000802580004025800000258000C025878
:1009000080B500AF09F088F809F094F809F0A0F874
:10091000064B5B6D054A43F480235365034B5B6BC9
:10092000024A43F04003536300BF80BD0010005CE7
:1009300080B584B000AF444B444A9A6000F004F99B
:1009400008F09EFF62B600BFFFF7DAFF3E4B5B691F
:1009500003F40033002B1BD1BFF34F8F00BFBFF355
:100960006F8F00BF384B0022C3F85022BFF34F8F68
:1009700000BFBFF36F8F00BF334B5B69324A43F454
:1009800000335361BFF34F8F00BFBFF36F8F00E0A1
:1009900000BF2D4B5B6903F48033002B38D12A4B09
:1009A0000022C3F88420BFF34F8F00BF264BD3F83B
:1009B0008030FB60FB685B0BC3F30E03BB60FB681E
:1009C000DB08C3F309037B60BB685A0143F6E0739D
:1009D00013407A6892071C491343C1F860327B6860
:1009E0005A1E7A60002BEFD1BB685A1EBA60002BEA
:1009F000E5D1BFF34F8F00BF134B5B69124A43F43D
:100A000080335361BFF34F8F00BFBFF36F8F00E0A0
:100A100000BF00F01FF8FFF789FEFFF709FD0C4B40
:100A2000D3F8F0300A4A23F48013C2F8F03000F013
:100A3000DDFB00F02FFC13F0DFFBFFF7E9FD13F007
:100A400001FC00BFFDE700BF00ED00E00000020870
:100A50000044025880B59CB000AF07F124034C223B
:100A60000021184627F05BFA3B1D20220021184682
:100A700027F055FA02200DF079F900233B60304B46
:100A8000DB6A2F4A23F00103D3622D4BDB6A03F0AC
:100A900001033B602B4B9B692A4A43F4404393611B
:100AA000284B9B6903F440433B603B6800BF254BE8
:100AB0009B6903F40053B3F5005FF8D101237B6217
:100AC0004FF48033BB620223BB640223FB64052323
:100AD0003B65C0237B650223BB650823FB650223BE
:100AE0003B6608237B660023BB660023FB6607F199
:100AF000240318460DF074F90346002B01D000F0D2
:100B00006BF83F237B600323BB604FF40063FB6003
:100B100008233B6100237B610023BB610023FB6151
:100B200000233B623B1D022118460DF0B3FD034636
:100B3000002B01D000F050F800BF7037BD4680BDDB
:100B4000000400580048025880B584B000AF3B460E
:100B500000221A605A609A60DA6009F099F801235D
:100B60003B7000237B7000237B601F233B72872335
:100B70007B720023BB720023FB7201233B730123B2
:100B80007B730023BB730023FB733B46184609F0BD
:100B9000B3F801233B7001237B704FF040537B601F
:100BA0000E233B7200237B720123BB720323FB7273
:100BB00000233B7300237B730023BB730023FB7371
:100BC0003B46184609F098F8042009F077F800BF72
:100BD0001037BD4680BD0000B0B58AB000AF284BCD
:100BE000D3F8E030264A43F00203C2F8E030244B49
:100BF000D3F8E030234B1B6823F03003214A43F045
:100C0000100313601F4B5B681E4A23F004035360FC
:100C10001C4B9B681B4A23F030039360194BDB6825
:100C2000184A23F03003D360164B4FF480229A61A8
:100C3000154B3C1D1D460FCD0FC40FCD0FC42B68A7
:100C40002380124B1B68124A934205D1391D64233D
:100C500021220E480FF0CEFE72B600BF00233B608B
:100C600003E000BF3B6801333B603B68094A9342A5
:100C7000F7D9044B5B69034A83F004035361EDE742
:100C80000044025800040258609B040864010024D8
:100C900000780040DF93040080B582B000AF0C4BB9
:100CA000D3F8F4300A4A43F00203C2F8F430084B98
:100CB000D3F8F43003F002037B607B6800220F213D
:100CC0006FF0010008F0AFFF00BF0837BD4680BDE0
:100CD0000044025880B584B000AF78607B68BB6088
:100CE0000023FB817B68002B10D002E0FB890133DD
:100CF000FB81FB89BA6813441B78002BF6D1FA8973
:100D00006423796803480FF075FE00E000BF1037D8
:100D1000BD4680BD6401002480B588B000AF786016
:100D200039607868FFF7D6FF1548FFF7D3FF002337
:100D3000FB6113E0FB69C3F107039B003A6822FAE9
:100D400003F303F00F030F4AD15C07F10802FB69BC
:100D500013440A461A70FB690133FB61FB69072BD8
:100D6000E8D90D233B740A237B740023BB7407F17D
:100D700008031846FFF7AEFF00BF2037BD4680BD11
:100D8000849B0408F0DD040880B582B000AF786071
:100D90002648FFF79FFF7868FFF79CFF2448FFF77E
:100DA00099FF16F013FA0346012B0AD016F000FA49
:100DB0000346184615F09CFD03461846FFF78AFFC8
:100DC00002E01C48FFF786FF1B48FFF783FF1B4B21
:100DD000DB6A19461A48FFF79FFF184B9B6A1946B2
:100DE0001848FFF799FF154B5B6B19461648FFF73C
:100DF00093FF124B9B6B19461448FFF78DFF144865
:100E00000AF0DEFC034619461248FFF785FF104B37
:100E10001B6803F58053D3F8603119460E48FFF77D
:100E20007BFF00BF0837BD4680BD00BF889B04081C
:100E3000949B04089C9B040820A1040800ED00E09A
:100E4000A49B0408AC9B0408B49B0408BC9B040846
:100E5000D03A0024C49B0408CC9B040880B400AFA3
:100E600000BFFDE780B500AF0248FFF78DFF00BF70
:100E7000FDE700BFD49B040880B500AF0248FFF730
:100E800083FF00BFFDE700BFE89B040880B500AF0B
:100E90000248FFF779FF00BFFDE700BFFC9B040895
:100EA00080B500AF0248FFF76FFF00BFFDE700BF4E
:100EB000109C040880B400AF00BFBD4680BC7047E2
:100EC00080B500AF064B1B6808F04CFD16F07EF9AC
:100ED0000346012B01D017F097F800BF80BD00BF7B
:100EE00010E000E080B500AF02480AF099F800BFBA
:100EF00080BD00BFD03A002480B500AF02480FF09B
:100F00002FFF00BF80BD00BF6401002480B400AF8C
:100F100001231846BD4680BC7047000080B483B0F2
:100F200000AF78603960054B16221A604FF0FF332E
:100F300018460C37BD4680BC704700BFBCB70124C3
:100F400080B582B000AF78604FF0FF317868FFF76E
:100F5000E5FF00BFFDE780B586B000AFF860B9607F
:100F60007A6000237B610AE0AFF300800146BB6832
:100F70005A1CBA60CAB21A707B6901337B617A6904
:100F80007B689A42F0DB7B6818461837BD4680BD07
:100F900080B586B000AFF860B9607A6000237B61ED
:100FA00009E0BB685A1CBA601B781846AFF3008092
:100FB0007B6901337B617A697B689A42F1DB7B68EC
:100FC00018461837BD4680BD80B483B000AF786046
:100FD0004FF0FF3318460C37BD4680BC704780B4D5
:100FE00083B000AF786039603B684FF400525A60BC
:100FF000002318460C37BD4680BC704780B483B0D0
:1010000000AF7860012318460C37BD4680BC70479E
:1010100080B485B000AFF860B9607A6000231846EC
:101020001437BD4680BC704780B487B000AF78608D
:10103000144A154BD31A7B617B693B61134B1B68C8
:10104000002B02D1114B124A1A60104B1A687B68B0
:1010500013443A699A4205D20E4B0C221A604FF0A3
:10106000FF3309E0094B1B68FB60084B1A687B687B
:101070001344064A1360FB6818461C37BD4680BC03
:10108000704700BF00000824001000006001002429
:10109000D0B70124BCB7012480B400AF424BD3F8D1
:1010A0008830414A43F47003C2F888303F4B1B68D4
:1010B00003F00F03062B07D83C4B1B6823F00F03EC
:1010C0003A4A43F007031360394B1B68384A43F030
:1010D00001031360364B00221A61354B1A683449FC
:1010E000344B13400B60314B1B6803F00803002B9B
:1010F00007D02E4B1B6823F00F032C4A43F0070345
:1011000013602B4B00229A61294B0022DA61284B95
:1011100000221A62264B284A9A62254B274ADA6235
:10112000234B274A1A63224B00225A63204B244A3E
:101130009A631F4B0022DA631D4B214A1A641C4B31
:1011400000225A641A4B1B68194A23F48023136047
:10115000174B00221A661B4B1A681B4B1340B3F146
:10116000005F02D2194B01221A60114BD3F8D43020
:1011700003F48053002B13D10D4BD3F8D4300C4A19
:1011800043F48053C2F8D430114B43F2D2021A60B8
:10119000074BD3F8D430064A23F48053C2F8D43036
:1011A00000BFBD4680BC704700ED00E0002000524B
:1011B000004402587FEDF6EA000202020000FF013F
:1011C000800201010010005C0000FFFF0881005157
:1011D00000400052044BDA6842F00202DA605A68BA
:1011E0009204FCD5704700BF0048025880B500AF9C
:1011F000264B274A1A60254B4FF4E1325A60234BA5
:1012000000229A60214B0022DA60204B00221A61F2
:101210001E4B0C225A611D4B00229A611B4B00226F
:10122000DA611A4B00221A62184B00225A62174BDD
:1012300000229A6215480FF08DFB0346002B03D065
:10124000002000F029FB1FE00021104811F0C7FE2C
:101250000346002B03D0002000F01EFB14E0002109
:101260000A4811F0FAFE0346002B03D0002000F0DC
:1012700013FB09E0054811F07AFE0346002B03D06A
:10128000002000F009FB00BF80BD00BF6401002406
:101290000078004080B500AF264B274A1A60254BE6
:1012A0004FF4E1325A60234B00229A60214B002216
:1012B000DA60204B00221A611E4B0C225A611D4B32
:1012C00000229A611B4B0022DA611A4B00221A623B
:1012D000184B00225A62174B00229A6215480FF0F1
:1012E00039FB0346002B03D0002000F0D5FA1FE0A5
:1012F0000021104811F073FE0346002B03D000209C
:1013000000F0CAFA14E000210A4811F0A6FE0346D4
:10131000002B03D0002000F0BFFA09E0054811F0CF
:1013200026FE0346002B03D0002000F0B5FA00BFD4
:1013300080BD00BFF8010024007C004080B5BEB035
:1013400000AF786007F1E40300221A605A609A60E7
:10135000DA601A6107F12003C0220021184626F046
:10136000DEFD7B681B68644A934275D14FF0020230
:101370004FF00003C7E908230023C7F8983007F1AE
:10138000200318460DF0E6FC0346002B03D0002096
:1013900000F082FAADE0594BD3F8E830574A43F0F9
:1013A0008043C2F8E830554BD3F8E83003F080436F
:1013B000FB61FB69514BD3F8E030504A43F0200306
:1013C000C2F8E0304D4BD3F8E03003F02003BB61AE
:1013D000BB694A4BD3F8E030484A43F01003C2F8E7
:1013E000E030464BD3F8E03003F010037B617B69BB
:1013F0004023C7F8E4300223C7F8E8300023C7F8D9
:10140000EC300023C7F8F0300723C7F8F43007F1B9
:10141000E40319463A480CF09DF94FF48073C7F87D
:10142000E4300223C7F8E8300023C7F8EC3000238B
:10143000C7F8F0300723C7F8F43007F1E403194682
:1014400030480CF087F900220621522008F0EBFB0F
:10145000522008F002FC4CE07B681B682A4A934249
:1014600047D14FF002024FF00003C7E908230023E1
:10147000C7F8983007F1200318460DF06BFC0346BF
:10148000002B03D0002000F007FA32E01B4BD3F80A
:10149000E8301A4A43F00043C2F8E830174BD3F85B
:1014A000E83003F000433B613B69144BD3F8E03074
:1014B000124A43F01003C2F8E030104BD3F8E0308A
:1014C00003F01003FB60FB680323C7F8E43002233A
:1014D000C7F8E8300023C7F8EC300023C7F8F03035
:1014E0000823C7F8F43007F1E403194605480CF067
:1014F00031F9F837BD4680BD0078004000440258FD
:101500000014025800100258007C004080B5C6B09C
:1015100002AF00F007FAC7F80C0107F1F803142234
:101520001946104801F0BEF807F1E00318211846EB
:1015300002F0A6F807F1F802381DD7F80C31019334
:1015400007F1E00300931346074ADC2126F01AFC5A
:101550003B1D184601F00CFA00BF07F58877BD4621
:1015600080BD00BF08030024249C040880B582B01D
:1015700000AF00F09FFF07F01BFA07F051FD034694
:10158000002B02D1002000F087F905F0DDFA00F011
:10159000F3F90346FB71FB79002B08D007F03AFB07
:1015A0000346002B06D1002000F076F902E00C483B
:1015B00007F024FA00F0A4F801F06EF9FB79002B93
:1015C00002D0084801F0D4F9074801F0D1F900F041
:1015D00005FA064801F0CCF900BF0837BD4680BDCA
:1015E00008030024BC9C0408FC9C0408489D0408D3
:1015F00080B500AF05F0A8FA01F04EF9084801F0F7
:10160000B7F905F03DF906F0D9FE00F0A7FB04F0AC
:101610003FFF00F081F9FFF779FF00BF80BD00BFF9
:10162000689D040880B500AF05F05CF900F012FC7D
:1016300004F0A4FF00F0AEF800F08CF900BF80BD0C
:1016400080B588B000AF0346FB7107F10C030022A0
:101650001A605A609A60DA601A61FB791A464FF490
:1016600000410B480CF051FB4FF40043FB60012399
:101670003B6100237B610023BB6107F10C0319462A
:1016800003480CF067F800BF2037BD4680BD00BF9F
:101690000010025880B586B000AF3B1D00221A60D2
:1016A0005A609A60DA601A61134BD3F8E030124A3C
:1016B00043F02003C2F8E0300F4BD3F8E03003F0E2
:1016C00020033B603B6800224FF460710B480CF034
:1016D0001CFB4FF460737B600123BB600023FB6045
:1016E00000233B613B1D194604480CF033F800BF52
:1016F0001837BD4680BD00BF004402580014025890
:1017000080B500AF0022782119480CF0FEFA0022C3
:101710004FF47C5117480CF0F8FA00224FF4407156
:1017200015480CF0F2FA0022042114480CF0EDFAEE
:10173000FFF7B0FF0122022111480CF0E6FA012266
:1017400004210F480CF0E1FA0120FFF779FF0D4B5F
:1017500000221A700C4B00221A700C4B00221A60E7
:1017600012F09AFD03460A4A136000BF80BD00BF15
:10177000001002580008025800000258000C0258DD
:1017800000040258900200249102002494020024D4
:101790008C02002480B582B000AF12F07DFD38606D
:1017A000374B1B78DBB2002B08D0364B1A683B68EE
:1017B000D31A002B02DD0123FB7101E00023FB7132
:1017C0002F4B1B78DBB2002B18D0FB79002B15D1E7
:1017D0002B4B00221A702B4B00221A602A4B00223E
:1017E0001A702A4A3B6813600122022128480CF033
:1017F0008CFA0122042126480CF087FA234B1B683F
:101800003A68D31AF92B36D9204A3B6813601E4B2D
:101810001B7883F00103DAB21B4B1A70FB79002BA3
:1018200011D0012202211A480CF06FFA164B1B78D6
:10183000002B0CBF01230023DBB21A4604211448FD
:101840000CF063FA17E0104B1B78002B0CBF012340
:101850000023DBB21A4602210D480CF056FA0D4B5C
:101860001B78002B14BF01230023DBB21A4604218E
:1018700007480CF04AFA00BF0837BD4680BD00BFDC
:101880009102002494020024900200248C0200247F
:10189000000402580800002480B483B000AF03465F
:1018A000FB71FB79002B01D0012200E00022034BE9
:1018B0001A7000BF0C37BD4680BC7047080000247A
:1018C00080B582B000AF12F0E7FC78607B6803F56A
:1018D000FA630C4A13600C4B01221A700B4B012265
:1018E0001A700B4A7B6813600122022109480CF030
:1018F0000CFA0022042107480CF007FA00BF083751
:10190000BD4680BD94020024910200249002002470
:101910008C0200240004025880B400AF00BFBD4612
:1019200080BC704780B483B000AF094BD3F8D0308F
:101930007B60074BD3F8D030054A43F48033C2F8BC
:10194000D0307B6818460C37BD4680BC704700BF5E
:101950000044025880B400AF054B1B78002B03D025
:10196000044B4AF6AA221A6000BFBD4680BC7047ED
:10197000980200240048005880B586B000AF3B466E
:1019800000221A605A609A60DA601A614FF40043CC
:101990003B6000237B600123BB600023FB603B4670
:1019A00019460D480BF0D6FE142012F021FD4FF41D
:1019B000004109480CF092F90346FB750120FFF73E
:1019C0003FFEFB7D002B01D1012300E000231846E0
:1019D0001837BD4680BD00BF0010025880B500AF6B
:1019E0000020FFF72DFE642012F002FD0120FFF71A
:1019F00027FE4FF4967012F0FBFC00BF80BD000084
:101A000080B584B000AF78600023FB6019E0114915
:101A1000FA6813465B0013449B000B441B6819468D
:101A2000786807F08FFB0346002B07D1FA6813464E
:101A30005B0013449B00074A134406E0FB68013334
:101A4000FB60FB68142BE2D9002318461037BD4613
:101A500080BD00BF14DE040880B584B000AF78609C
:101A60000B46FB701346BB707868FFF7C9FFF86040
:101A7000FB68002B03D0FB689B7A002B01D100236D
:101A800019E0BB78002B08D0FB685A68FB681B89FB
:101A9000194610460CF051F90CE0FB685868FB68D9
:101AA0001989FB78002B14BF01230023DBB21A46EF
:101AB0000CF02BF9012318461037BD4680BD80B5C8
:101AC00084B000AF786039607868FFF799FFF860FC
:101AD000FB68002B02D03B68002B01D1002310E0F3
:101AE000FB685A68FB681B89194610460CF0F6F82B
:101AF0000346012B01D1012200E000223B681A704D
:101B0000012318461037BD4680BD0000B0B588B02F
:101B100002AF7860396000237B617B68002B3DD089
:101B20003B68002B3AD07B6800221A7000233B618F
:101B300030E07A687B69D0183A687B69D11A3B69D2
:101B4000002B01D1174C00E0174C184D3A69134691
:101B50005B0013449B002B441B6800932346144AEC
:101B600026F010F9F860FB68002B05DB3A687B690A
:101B7000D21AFB689A4206D83B68013B7A68134444
:101B800000221A700BE0FB687A6913447B613B69A1
:101B900001333B613B69142BCBD900E000BF183700
:101BA000BD46B0BDCCA204080C9E040814DE040897
:101BB000109E040880B485B000AF0346FB7100237B
:101BC000FB60FB79002B02D0FB79082B01D90023A5
:101BD00023E0FB79013BFB72FB7A03F00403002B4B
:101BE00003D0FB6843F08003FB60FB7A03F0020341
:101BF000002B03D0FB6843F48073FB60FB7A03F097
:101C00000103002B03D0FB6843F40073FB60054A1B
:101C1000FB6843F060739361012318461437BD4697
:101C200080BC70470014025880B582B000AF00231A
:101C3000FB71802114480CF051F80346012B03D1AD
:101C4000FB7943F00403FB714FF480710E480CF0F4
:101C500045F80346012B03D1FB7943F00203FB71E6
:101C60004FF4007108480CF039F80346012B03D1FA
:101C7000FB7943F00103FB71FB790133DBB21846BA
:101C80000837BD4680BD00BF0014025890B589B02A
:101C900004AF786039607B68002B21D03B68002B53
:101CA0001ED0FFF7C1FF0346FB73FB7B013BBB73F9
:101CB000FC7BBB7B9B0803F00103BA7B520802F05C
:101CC0000102B97B01F00101F87B039002910192BE
:101CD00000932346044A3968786826F053F800E0F8
:101CE00000BF1437BD4690BD189E040880B485B06F
:101CF00000AF0346FB710023FB730DE0FB7B0B4A37
:101D0000D35CFA799A4204D8FB7B094A52F8233013
:101D100006E0FB7B0133FB73FB7B0F2BEED90F231C
:101D200018461437BD4680BC704700BF10DF04085A
:101D300020DF040880B483B000AF78607B680F2B8D
:101D400001D9002303E0044A7B6813441B7818463A
:101D50000C37BD4680BC704760DF040880B58AB090
:101D600002AF3B4620220021184626F0D8F836481C
:101D70000AF089FD34480AF097FC334B4FF4807227
:101D80009A60314B01229A632F4B0022DA632E4B6B
:101D900008221A642C4B12225A642B4B08221A6612
:101DA000294B00225A66284B12229A6626480AF0CE
:101DB0009DFA0346002B06D0244B00221A70002007
:101DC000FFF76AFD3CE000233B6000237B600223B9
:101DD000BB600123FB6000233B6100237B613B462A
:101DE000194619480AF084FC0346002B0AD1012346
:101DF000009301230022002113480AF0EEFC034661
:101E0000002B06D0114B00221A700020FFF744FD72
:101E100016E00D480AF00DFD0346002B01D101220A
:101E200000E00022094B1A7014220021084826F015
:101E300076F8064B1B78002B02D10020FFF72CFD13
:101E40002037BD4680BD00BFBC000024990200249D
:101E5000F402002480B59CB000AF2023FB666AE04A
:101E600007F1280340220021184626F058F807F110
:101E700028033A4640213A480AF0D6FD0346002B93
:101E800059D1FB681846FFF755FF034687F86B30BA
:101E900016F026F83B68334A1360334A97F86B30E4
:101EA000137097F86B2007F1280319462F4826F086
:101EB000E8F82F4B1B6801332D4A13602D4B1B781C
:101EC000002B36D07B68002B33D13B68294A9278AF
:101ED00093422ED197F86B30072B2AD997F82830E8
:101EE0001B2B26D197F82920224B1A7397F82A30FA
:101EF0001BB21B021AB297F82B301BB213431AB253
:101F00001C4BDA8197F82C301BB21B021AB297F8DF
:101F10002D301BB213431AB2164B1A8297F82E209B
:101F2000144B9A7497F82F20124BDA74114B01223C
:101F30005A7016F005F8FB6E5A1EFA66002B0AD08E
:101F40000D4B1B78002B06D0402105480AF0E4FE1B
:101F50000346002B84D100BF7037BD4680BD00BF53
:101F6000BC000024A4020024E8020024A8020024EB
:101F7000A0020024F40200249902002480B59EB03F
:101F800000AFF860B9601346FB7107F154032422D7
:101F90000021184625F0C3FF07F114034022002159
:101FA000184625F0BCFF2A4B1B78002B09D0BB68D4
:101FB000002B06D0FB79402B03D8FB68B3F1005F00
:101FC00001D3002340E0FA7907F11403B9681846F9
:101FD00026F057F8FB687B65FB68B3F5006F02D30A
:101FE0004FF0804300E00023BB650023FB65FB79D5
:101FF0001846FFF77BFE03463B6600237B66002303
:10200000BB66FB79082B02D94FF4001300E00023D4
:10201000FB6600233B6700237B6707F1140207F18F
:10202000540319460B480AF0A4FC0346002B0AD1BE
:1020300015F056FF084B1B680133074A136015F073
:102040007FFF012300E0002318467837BD4680BD9E
:1020500099020024BC0000249C02002490B589B0A1
:1020600000AF396011461A460346FB710B46BB713F
:1020700013467B7107F1080300221A605A609A60C8
:102080005E4B1B78002B01D10123B2E0FB6B002BD0
:1020900013D0FB79002B10D0FB79282B0DD83B688F
:1020A000B3F1807F09D2BB79002B06D07B79022B5C
:1020B00003D897F83830012B01D9032399E015F0A4
:1020C0000FFF4F4B1B78002B03D015F039FF022375
:1020D0008FE0142200214A4825F021FF484B0122BD
:1020E0001A70474AFB799370454AFB791371444A49
:1020F0003B68936015F024FFFB793B723B681B0C37
:10210000DBB27B723B681B0ADBB2BB723B68DBB2A3
:10211000FB72BB793B737B797B733B8E1B0A9BB253
:10212000DBB2BB733B8EDBB2FB73BB8E1B0A9BB275
:10213000DBB23B74BB8EDBB27B7497F83830BB7478
:1021400007F108030C22194640F21B10FFF716FF97
:102150000346002B08D115F0C3FE294B00221A704C
:1021600015F0EEFE032344E0BB7903F2DC53FB6180
:102170007B79012B03D1BB8EFA691344FB6107F015
:1021800003FCB86120E015F0ABFE1D4B5B78FB75DE
:10219000FB7D002B0ED0FA6B194B144604330FCB8A
:1021A00084E80F00164B00221A70164B1B6801338F
:1021B000144A136015F0C4FEFB7D002B01D00023F0
:1021C00017E0012014F0BCF907F0DEFB0246BB6902
:1021D000D31AFA699A42D6D815F082FE084B00222B
:1021E0001A70094B1B680133074A136015F0A8FEEB
:1021F000042318462437BD4690BD00BF9902002431
:10220000F4020024EC020024F002002480B58CB01B
:1022100004AF7860396015F063FE124B1B78FB77D2
:10222000114B1B68BB61114B1B687B61104B1B681A
:102230003B61104B1B68FB6015F082FEFA7FFB6868
:1022400003933B6902937B690193BB690093134637
:10225000094A3968786825F095FD00BF2037BD46EA
:1022600080BD00BF990200249C020024A00200242B
:10227000EC020024F0020024409E0408B0B5C8B06F
:1022800002AF07F58C73A3F58A73186007F58C739A
:10229000A3F58C73196015F023FE07F58C73A3F575
:1022A0008873284A1C4615460FCD0FC40FCD0FC4A6
:1022B0000FCD0FC495E80F0084E80F00224B1B7868
:1022C00087F81731214B1B68C7F81031204B1B686A
:1022D000C7F80C3115F034FE07F1480297F81711D2
:1022E00007F10800C42307F0CBF8D7F80C31002B16
:1022F0000DD107F58C73A3F58C7107F58C73A3F5DD
:102300008A73144A0968186825F03CFD14E097F8B0
:10231000173107F58C72A2F58C7107F58C72A2F556
:102320008A7007F1480201920093D7F810310A4AE7
:102330000968006825F026FD00BF07F58C77BD46CB
:10234000B0BD00BFA8020024E8020024A4020024BB
:10235000A0020024909E0408989E040880B483B0D4
:1023600000AF78607B68002B01D1002314E07B680C
:102370001B78002B0DD07B681B78DF2B09D87B687E
:1023800003331B78002B04D07B6803331B78FF2BAF
:1023900001D1002300E0012318460C37BD4680BC64
:1023A000704780B483B000AF78607B681B781A06F2
:1023B0007B6801331B781B041A437B6802331B784C
:1023C0001B0213437A6803321278134318460C3702
:1023D000BD4680BC704780B483B000AF78607B6836
:1023E000002B12D07B681B78002B10D17B68013347
:1023F0001B78002B0BD17B6802331B78002B06D196
:102400007B6803331B78002B01D1012300E00023FC
:1024100018460C37BD4680BC704780B487B000AF0B
:1024200078600023FB757B68002B01D100233BE023
:102430007B681B781A067B6801331B781B041A43E0
:102440007B6802331B781B0213437A6803321278CD
:1024500013433B613B69002B03D03B69B3F1FF3F62
:1024600001D1002320E01F23BB7518E0BB7D1A4675
:102470003B69D340DBB203F00103FB73FB7B002B12
:1024800002D10123FB7504E0FB7D002B01D000236A
:102490000AE097F91630DBB2013BDBB2BB7597F966
:1024A0001630002BE2DA012318461C37BD4680BCEB
:1024B0007047000080B400AF154BC0221A70144B57
:1024C000A8225A70124B01229A70114B0A22DA701C
:1024D0000F4BC0221A710E4BA8225A710C4B0122CD
:1024E0009A710B4B0122DA71094BFF221A72084BC9
:1024F000FF225A72064BFF229A72054B0022DA72B3
:10250000034B4FF47A629A8100BFBD4680BC70478E
:102510000803002480B588B000AFF860B9607A6025
:102520007B80FB68002B11D0BB68002B0ED07B8812
:10253000002B0BD0F868FFF711FF0346002B05D0E6
:10254000B868FFF76AFF0346002B01D1002332E091
:10255000F868FFF726FFF861B868FFF722FFB86157
:10256000BB69DB43FA6913407B617B69002B04D0B4
:10257000BB69DB437A699A4201D100231BE078688A
:10258000FFF729FF0346002B14D17868FFF7E6FE1A
:102590000346002B01D100230DE07868FFF701FF0F
:1025A00038613A69FB695A40BB691340002B01D07E
:1025B000002300E0012318462037BD4680BD0000FF
:1025C00080B586B000AF786039607B687B617B68DE
:1025D000002B02D03B68002B04D100235BE07B6919
:1025E00001337B617B691B7801332D4A13441B78CF
:1025F00003F00803002BF2D10023FB7433E07B6966
:102600001B780133264A13441B7803F00403002B84
:1026100001D100233FE007F108030A221946786937
:1026200025F0D0FAF860BB687A699A4202D0FB685C
:10263000FF2B01D900232EE0FB7C3A681344FA6893
:10264000D2B21A70BB687B61FB7C022B08D87B6915
:102650001B782E2B01D000231DE07B6901337B61A9
:10266000FB7C0133FB74FB7C032BC8D902E07B6944
:1026700001337B617B691B780133094A13441B7862
:1026800003F00803002BF2D17B691B78002B01D0EB
:10269000002300E0012318461837BD4680BD00BF67
:1026A0003E0C050880B588B004AFF860B9607A6068
:1026B000BB68002B21D07B68002B1ED0FB68002B51
:1026C00003D1BB6800221A7018E0FB681B7818461B
:1026D000FB6801331B781A46FB6802331B781946E6
:1026E000FB6803331B780293019100920346054A6D
:1026F0007968B86825F046FB00E000BF1037BD469A
:1027000080BD00BF3C9A040880B500AF0122134988
:1027100013480EF0D9FA0346002B1CD0104B1B684F
:1027200008221A620E4B1B6802221A620C4B1B68AD
:1027300004221A620A4B1B6801221A62084B00220B
:10274000C3F89020064B2022C3F88C2001220349B5
:1027500003480EF0B9FA00BF80BD00BFE8030024B3
:102760006401002480B582B000AF78607B68002BE4
:1027700009D07868FDF79EFD03469AB2C8237968B0
:1027800003480EF037F900BF0837BD4680BD00BFD3
:102790006401002480B500AF0248FFF7E3FF00BFEB
:1027A00080BD00BFB09E040880B582B000AF114864
:1027B0000EF0C0FE78607B68002B17D00D4B1B68B5
:1027C00008221A620B4B1B6802221A62094B1B6813
:1027D00004221A62074B1B6801221A62054B002271
:1027E000C3F89020034B2022C3F88C2000BF083789
:1027F000BD4680BD6401002480B5B4B004AF7860EC
:1028000007F1AC03142219461F48FFF74BFF1F497D
:102810007868FDF745FD0346002B16D111F03CFD0D
:102820000246194B9B8907F10C00029307F1AC0398
:10283000019300927B68164AA02125F0A3FA07F1C4
:102840000C031846FFF78EFF1AE011F025FD024633
:102850000D4B9B8907F10C00039307F1AC03029326
:1028600007F1AC03019300927B680A4AA02125F08E
:1028700089FA07F10C031846FFF774FFFFF78AFF88
:10288000C037BD4680BD00BF08030024BC9E0408BD
:10289000C89E0408E89E040880B58AB000AF244BA7
:1028A0001B78002B40D1224B01221A70214B0022B1
:1028B0001A8011F0F1FC024641F2883313441E4A9B
:1028C00013601E48FFF74EFF1D48FFF74BFF1D48E2
:1028D000FFF748FF1C48FFF745FF1C48FFF78CFF38
:1028E000FFF712FF1A4B1B68002B1ED13B1D242241
:1028F0000021184625F013FB164B7B604FF48053E4
:10290000BB612023FB613B1D1A460021124811F0D8
:10291000D7FC03460E4A13600D4B1B68002B04D1F5
:102920000020FEF7B9FF00E000BF2837BD4680BD9C
:10293000E0030024D8030024DC0300244C9F040897
:102940007C9F0408A89F0408C49F0408F09F040803
:10295000E4030024F89F0408312B020880B400AF80
:10296000024B1B681846BD4680BC7047F00400242B
:1029700080B582B000AF78607868FFF7F3FE00BFE3
:102980000837BD4680BD000080B584B000AF7860D8
:102990007B68144A934220D1134B1B889BB20133AE
:1029A0009BB2DBB2FB81114B1B889BB2FA899A4226
:1029B0000BD00D4B1B889BB21A460D4B19780D4B53
:1029C0009954094AFB89138004E00B4B1B680133BF
:1029D000094A1360FFF798FE00E000BF1037BD46BC
:1029E00080BD00BF64010024EC040024EE04002438
:1029F000E8030024EC030024F004002480B582B036
:102A000000AF78607B68054A934202D1FFF77CFEF5
:102A100000E000BF0837BD4680BD00BF6401002450
:102A200080B582B000AF78607868FFF7ADFF00BF77
:102A30000837BD4680BD80B582B000AF7860786849
:102A4000FFF7DCFF00BF0837BD4680BD80B5E0B0B2
:102A500000AF144B1B88002B03D1134B00221A70BC
:102A60001BE0104B1B881A46104B002199543B4623
:102A70004FF4C07219460D4804F0BCFA0C48FFF739
:102A800071FE3B461846FFF76DFEFFF783FE054BD0
:102A900000221A80044B01221A7007F5C077BD4648
:102AA00080BD00BFD8030024E103002418030024E4
:102AB00020A1040880B500AF164B1B881A46164BA0
:102AC000002199541549144806F03CFB0346002B9D
:102AD0001BD01349104806F035FB0346002B14D0D9
:102AE00010490D4806F02EFB0346002B0DD00E4971
:102AF000094806F027FB0346002B06D00B49064881
:102B000006F020FB0346002B01D1012300E0002347
:102B1000184680BDD80300241803002404A004082C
:102B200010A004081CA0040828A0040834A004086D
:102B300080B582B000AFFFF737FE56E03C4B1B88F4
:102B40009BB21A463B4B9B5CFB71394B1B889BB27B
:102B500001339BB2DBB29AB2354B1A80FB790D2B55
:102B600002D0FB790A2B0AD1334B1B78002B03D000
:102B7000314B00221A7038E0FFF768FF35E0FB792F
:102B8000082B02D0FB797F2B0AD12C4B1B88002B02
:102B90002BD02A4B1B88013B9AB2284B1A8024E089
:102BA000264B1B880133BF2B17D8234B00221A70EA
:102BB000224B1B885A1C91B2204A11801946204A88
:102BC000FB795354FB793F2B0FD1FFF773FF03467B
:102BD000002B0AD1FFF73AFF07E0184B00221A80BA
:102BE0001848FFF7BFFDFFF7D5FD114B1B889AB2C0
:102BF000154B1B889BB29A42A0D1104B1B88002B0F
:102C000012D111F049FB0246104B1B68D31A002B5E
:102C10000ADB11F041FB024641F2883313440B4AB0
:102C200013600B48FFF7E8FD012011F0E1FB82E79C
:102C3000EE040024EC030024E1030024D803002464
:102C40001803002444A00408EC040024DC0300243E
:102C5000BC9E040880B489B000AFF860B9607A60A7
:102C600033E0FB685A1CFA601B78FB77FB7F01336B
:102C70001B4A13441B7803F00303022B02D1FB7F92
:102C8000203B00E0FB7FBB61BB685A1CBA601B782D
:102C9000FB75FB7D0133124A13441B7803F00303D9
:102CA000022B02D1FB7D203B00E0FB7D3B61BA693A
:102CB0003B699A4205D1BB69002B02D03B69002BCE
:102CC00003D1BA693B69D31A05E07B685A1E7A6062
:102CD000002BC6D1002318462437BD4680BC704760
:102CE0003E0C050880B584B000AF78603960386864
:102CF000FDF7E0FAF860FA6839687868FFF7AAFF2C
:102D00000346002B01D1012300E0002318461037B1
:102D1000BD4680BD80B483B000AF786002E07B68C0
:102D200001337B607B681B78202BF8D07B681B7895
:102D3000092BF4D07B6818460C37BD4680BC704721
:102D400080B58AB000AFF860B9607A603B60B8685F
:102D5000FDF7B0FA78613A21F86825F0E8F8786272
:102D60007B68002B02D03B68002B01D1002377E069
:102D70007B6800221A707B6A002B01D100236FE070
:102D80007B6A01337B6264E0786AFFF7C3FF786295
:102D90007B6A1B783B2B03D17B6A01337B6258E053
:102DA0007A69B968786AFFF755FF0346002B48D166
:102DB0007A6A7B6913441B783D2B42D17B690133CE
:102DC0007A6A13443B623B6A1B78222B0CD13B6A24
:102DD00001333B622221386A25F0A9F8F861FB69CA
:102DE000002B17D100233BE03B6AFB6102E0FB694B
:102DF0000133FB61FB691B78002B0BD0FB691B784F
:102E00003B2B07D0FB691B78202B03D0FB691B7879
:102E1000092BECD1FA693B6AD31ABB61BA693B68EA
:102E20009A4202D33B68013BBB61BA69396A786850
:102E300025F027F97A68BB69134400221A70012330
:102E40000EE03B21786A25F072F878627B6A002BED
:102E500004D07B6A1B78002B96D100E000BF0023D2
:102E600018462837BD4680BD80B584B000AF786075
:102E70007868FDF71FFAF86007E0FB68013BFB602C
:102E80007A68FB68134400221A70FB68002B0DD08F
:102E9000FB68013B7A6813441B780A2BEDD0FB6872
:102EA000013B7A6813441B780D2BE6D000BF103726
:102EB000BD4680BD80B584B000AFF8600B467A6037
:102EC000FB727B6800221A70FB68D3F8AC32FE2BD1
:102ED00005D9FB68012283F8B922002324E0FB68AE
:102EE000D3F8AC32591CFA68C2F8AC12FA68134431
:102EF000FA7A83F82D21FB68D3F8AC32FA681344D0
:102F0000002283F82D21FB7A0A2B0CD1FB6803F2F7
:102F10002D131846FFF7A8FFFB680022C3F8AC2268
:102F20007B6801221A70012318461037BD4680BD08
:102F300080B483B000AF78607B68002283F8B5224C
:102F40007B68002283F8B6227B680022C3F8A8229F
:102F50007B68002283F82D2200BF0C37BD4680BC61
:102F60007047000080B588B000AF78607B6803F2DE
:102F70002D131C491846FFF7B5FE0346002B2BD036
:102F80007B6803F22D1007F1080218231649FFF79A
:102F9000D7FE0346002B1FD007F10803134918463C
:102FA000FDF77EF90346002B08D007F1080310490E
:102FB0001846FDF775F90346002B0DD17B680122F9
:102FC00083F8B5227B6803F22D107B6803F22D2273
:102FD00060230849FFF7B4FE012318462037BD4699
:102FE00080BD00BF489A0408609A0408689A0408E3
:102FF000709A0408749A040880B582B000AF7860B3
:103000007B68022283F8B4227B680022C3F8A822DE
:103010007B6893F8B532002B2BD07B6893F8B732DE
:10302000002B05D07B68012283F8B922002321E020
:103030007B68012283F8B7227B68012283F8B622DD
:103040007B68D3F89032002B13D07B68D3F8903292
:103050007A68D2F89C027A6802F22D2211469847CB
:103060000346002B05D17B68012283F8B922002397
:1030700000E0012318460837BD4680BD80B584B006
:1030800000AF78607B6893F8C830FB737B6803F10E
:10309000C8007B68C833591C7B68D3F8A832013B51
:1030A0001A4624F023FF7B68D3F8A8325A1E7B68A7
:1030B000C3F8A8227B6893F8B632002B1ED07B6839
:1030C000D3F89432002B12D07B68D3F894327A680C
:1030D000D2F89C0207F10F01012298470346002B0A
:1030E00005D17B68012283F8B922002307E07B68C1
:1030F000D3F8B0325A1C7B68C3F8B02201231846BB
:103100001037BD4680BD80B582B000AF78600B46F9
:10311000FB707B68D3F8A832642B05D97B68012249
:1031200083F8B922002354E07B68D3F8A832591CF5
:103130007A68C2F8A8127A681344FA7883F8C8202B
:1031400007E07868FFF79AFF0346002B01D10023C0
:103150003FE07B68D3F8A8227B68D3F8A4329A4278
:10316000EFD87B68D3F8A8227B68D3F8A4329A42C0
:103170002ED17B6803F1C8007B6803F163017B6893
:10318000D3F8A4321A4624F0A1FE0346002B1FD127
:103190007B6893F8B632002B0CD07B68D3F898325A
:1031A000002B07D07B68D3F898327A68D2F89C223B
:1031B000104698477B68002283F8B6227B6800227D
:1031C000C3F8A8227B68032283F8B422012300E01D
:1031D000012318460837BD4680BD90B587B000AFC3
:1031E000F860B9607A60FB68002B05D0BB68002BE3
:1031F00002D07B68002B01D100234FE0B868FDF7B7
:1032000059F878617B69002B02D07B69602B01D96A
:10321000002343E04FF42F720021F86824F07FFE72
:10322000FB682D221A70FB682D225A70FB6802334E
:103230007A69B968184624F024FF7B690233FA687A
:103240000021D1547B699A1CFB68C3F8A022FB685B
:103250000D2283F86320FB680A2283F86420FB6850
:103260006333981CF968FB68D3F8A03201331A461F
:1032700024F007FFFB68D3F8A0329A1CFB68C3F860
:10328000A422FB687A6803F5247413460FCB84E804
:103290000F00FB68002283F8B422012318461C3774
:1032A000BD4690BD80B586B000AFF860B9607A6069
:1032B000FB68002B0AD0BB68002B02D17B68002B77
:1032C00004D1FB6893F8B932002B01D00023D0E081
:1032D00000237B61C7E0BA687B6913441B78FB74E9
:1032E000FB6893F8B432062B00F0B380062B00F392
:1032F000AA80052B00F09680052B00F3A480042BF8
:103300007ED0042B00F39F80032B63D0032B00F3AC
:103310009A80022B54D0022B00F39580002B02D010
:10332000012B29D08FE007F11202FB7C1946F868C7
:10333000FFF7C0FD0346002B01D1002399E0BB7CC1
:10334000002B00F08880FB6803F22D13FA68114609
:103350001846FCF7A5FF0346002B05D0FB680122A9
:1033600083F8B922002384E0F868FFF7E1FDFB68E9
:10337000012283F8B4226EE007F11202FB7C1946A9
:10338000F868FFF797FD0346002B01D1002370E09A
:10339000BB7C002B61D0FB6893F82D31002B07D14B
:1033A000F868FFF729FE0346002B56D1002360E0A2
:1033B000F868FFF7D7FD0346002B4ED1002358E0F5
:1033C000FB7C1946F868FFF79EFE0346002B46D1AA
:1033D00000234EE0FB7C2D2B04D1FB68042283F8F4
:1033E000B4223DE0FB7C0D2B04D1FB68052283F861
:1033F000B42235E0FB68012283F8B922002338E0CB
:10340000FB7C2D2B05D0FB68012283F8B922002319
:103410002FE0FB68012283F8B822FB68062283F8BC
:10342000B4221DE0FB7C0A2B05D0FB68012283F847
:10343000B92200231DE0F868FFF77AFDFB6801223E
:1034400083F8B4220CE0FB68012283F8B922002340
:103450000FE000BF04E000BF02E000BF00E000BFDB
:103460007B6901337B617A697B689A42FFF433AFF1
:10347000012318461837BD4680BD80B483B000AF25
:1034800078607B68002B0BD07B6893F8B832002BF8
:1034900006D07B6893F8B932002B01D1012300E0FC
:1034A000002318460C37BD4680BC704780B483B0FB
:1034B00000AF78607B68002B0BD07B6893F8B73245
:1034C000002B06D07B6893F8B932002B01D1012381
:1034D00000E0002318460C37BD4680BC7047000052
:1034E00080B400AFBFF34F8F00BF064BDB6803F41F
:1034F000E0620449044B1343CB60BFF34F8F00BF1E
:1035000000BFFDE700ED00E00400FA0580B485B0DF
:1035100000AFB9607A603B600346FB73BB68642B05
:1035200028BF6423094A1360094A7B681360094A6B
:103530003B681360084ABB691360084AFB7B137041
:1035400000BF1437BD4680BC704700BF343900242B
:10355000383900243C3900240C000024313900247F
:1035600080B483B000AF0346FB71FB79062B1CD0FF
:10357000062B1CDC052B16D0052B18DC042B10D0D9
:10358000042B14DC032B0AD0032B10DC012B02D0FC
:10359000022B02D00BE0094B0AE0094B08E0094B73
:1035A00006E0094B04E0094B02E0094B00E0094B3F
:1035B00018460C37BD4680BC704700BF70A0040899
:1035C00078A0040884A0040890A0040898A0040827
:1035D000A4A00408ACA004082DE9B04F88B000AF47
:1035E00006F0E8F903467B6006F0EEF90346BB609F
:1035F00006F0F4F90346FB603B1D3B611EA3D3E9D3
:103600000023C7E9062300237B6128E03A697B6930
:1036100013441B78DBB2002298469146D7E9062373
:1036200082EA080A83EA090BC7E906ABFB6940F2A4
:10363000B31203FB02F2BB694FF4807101FB03F389
:103640001344BA6940F2B311A2FB01452B441D4655
:10365000C7E90645C7E906457B6901337B617B699C
:103660000B2BD3D9D7E90623104619462037BD4680
:10367000BDE8B08FAFF30080B233DE2BB00F65141E
:103680002DE9F04387B000AF786039607B68002B8C
:1036900042D03B68002B3FD03B68122B03D87B689D
:1036A00000221A7039E0FFF797FFC7E902017B6833
:1036B00058221A707B68013343221A7000237B6101
:1036C00022E07B69C3F10F039900D7E90223C1F11E
:1036D0002006A1F1200022FA01F403FA06F6344391
:1036E00023FA00F0044323FA01F504F00F084FF029
:1036F00000097B6902337A6813440A4A424412780B
:103700001A707B6901337B617B690F2BD9D97B6888
:10371000123300221A7000E000BF1C37BD46BDE81E
:10372000F08300BF70DF040880B58CB000AF786014
:10373000002387F82F307B68002B01D1002336E06F
:1037400007F1080318211846FFF79AFF7868FCF77D
:10375000B1FD786207F108031846FCF7ABFD38624B
:103760007A6A3B6A9A4201D0002320E00023BB62C0
:1037700012E07A68BB6A13441A7807F10801BB6A41
:103780000B441B785340DAB297F82F30134387F875
:103790002F30BB6A0133BB62BA6A3B6A9A42E8D3F4
:1037A00097F82F30002B01D1012300E000231846A9
:1037B0003037BD4680BD000080B584B000AF786072
:1037C0000023FB737B68002B05D07868FCF772FD43
:1037D0000346032B01D000231BE00023BB600FE056
:1037E0007A68BB6813441A780C49BB680B441B7891
:1037F0005340DAB2FB7B1343FB73BB680133BB60FE
:10380000BB68022BECD9FB7B002B01D1012300E02C
:10381000002318461037BD4680BD00BF84DF040872
:1038200080B5AAB000AFF860B9607A603B60FB6811
:10383000002B08D0BB68002B05D07B68002B02D082
:103840003B68002B01D100237EE0B868FCF732FD15
:10385000C7F89C00FB68C7F8A4306DE0D7F8A42037
:10386000FB689A4205D0D7F8A430013B1B78262B81
:1038700052D1D7F89C20B968D7F8A40024F065FB92
:103880000346002B48D1D7F8A420D7F89C30134426
:103890001B783D2B40D1D7F89C300133D7F8A420BA
:1038A0001344C7F898302621D7F8980024F03FFB3E
:1038B000C7F89400D7F89430002B06D1D7F89800B9
:1038C000FCF7F8FCC7F8A00006E0D7F89420D7F87A
:1038D0009830D31AC7F8A030D7F8A0307F2B02D980
:1038E0007F23C7F8A03007F11403D7F8A020D7F83A
:1038F0009810184624F0C5FB07F11402D7F8A03041
:10390000134400221A7007F114033A6879681846C4
:1039100005F008FE034617E02621D7F8A40024F09E
:1039200006FBC7F8A400D7F8A430002B0AD0D7F8BC
:10393000A4300133C7F8A430D7F8A4301B78002B8B
:103940008CD100E000BF00231846A837BD4680BDDB
:1039500080B58AB000AFF860B9607A603B60FB6800
:10396000002B08D0BB68002B05D07B68002B02D051
:103970003B68002B01D1002379E0B868FCF79AFC82
:10398000B8613D49F86824F0F2FA786267E07B6A32
:1039900002337B627B6A1B780D2B04D17B6A013377
:1039A0001B780A2B5FD03449786A24F0E0FAF8617A
:1039B000FB69002B59D0FA697B6AD31A1A46BB6996
:1039C00093424AD27A6ABB6913441B783A2B44D19A
:1039D000BA69B968786A05F0FFFB0346002B3CD151
:1039E000BB6901337A6A13443B6202E03B6A0133EC
:1039F0003B623A6AFB699A420BD23B6A1B78202BE6
:103A0000F4D03B6A1B78092BF0D002E0FB69013B44
:103A1000FB61FA693B6A9A4209D9FB69013B1B7851
:103A2000202BF3D0FB69013B1B78092BEED0FA6900
:103A30003B6AD31A7B617A693B689A4201D30023BF
:103A400015E07A69396A786824F01BFB7A687B692B
:103A5000134400221A70012309E0FB697B627B6A30
:103A6000002B94D102E000BF00E000BF0023184605
:103A70002837BD4680BD00BF20A1040880B590B0A6
:103A800000AFF860B9607A603B60FB68FB63FB687D
:103A9000002B05D07B68002B02D03B68002B01D1A6
:103AA00000238BE0F86803F001FA0346002B10D0E6
:103AB000F868FCF7FFFB02463B68934201D80023FD
:103AC0007CE0FB683F4A3968786824F05BF90123A1
:103AD00074E0BB68002B07D0B868FFF725FE0346EB
:103AE000002B57D1002369E005223749F86805F01B
:103AF00073FB0346002B01D000235FE0FB68053316
:103B00003B21184624F013FA78637B6B002B01D11C
:103B1000002353E0FB6805337A6BD31ABB6302E0E2
:103B2000BB6B013BBB63BB6B002B0DD0BB6B04338A
:103B3000FA6813441B78202BF2D0BB6B0433FA686D
:103B400013441B78092BEBD0BB6B002B02D0BB6B53
:103B50001F2B01D9002331E0FB68591D07F1140325
:103B6000BA6B184624F08DFA07F11402BB6B1344AC
:103B700000221A7007F114031846FFF7D5FD03461B
:103B8000002B01D1002319E07B6B0133184605F0AF
:103B90006BFBF863FB6B1B78002B06D0F86BFCF714
:103BA00089FB02463B68934201D8002306E0FB6B89
:103BB000044A3968786824F0E5F80123184640374C
:103BC000BD4680BD34B20408B4A0040880B588B0F6
:103BD00000AFF860B9607A600023FB610023FB76D8
:103BE0002DE07A68FB69D31A7B617B69B3F5806F3E
:103BF00002D94FF480637B61BA68FB69D118002356
:103C00007A69F86817F00EFD38613B69002B10DC0B
:103C1000FB7E0133FB76FB7E072B06D90C4B1B6822
:103C200001330B4A136000230EE0022010F0E0FB8A
:103C300005E03B69FA691344FB610023FB76FA69EE
:103C40007B689A42CDD3012318462037BD4680BDFC
:103C50001005002480B5B0B002AFF860B9607A609A
:103C60007868FCF727FBC7F8B40007F11000D7F815
:103C7000B4300093BB68104AA02124F083F8C7F841
:103C8000B000D7F8B030002B11DDD7F8B0309F2B43
:103C90000DD8D7F8B02007F110031946F868FFF7E0
:103CA00095FFD7F8B4207968F868FFF78FFF00BF59
:103CB000B837BD4680BD00BFBCA0040880B5ACB01D
:103CC00000AF786039603868FCF7F4FAC7F8AC00E8
:103CD00007F10800D7F8AC300F4AA02124F052F8C1
:103CE000C7F8A800D7F8A830002B11DDD7F8A83006
:103CF0009F2B0DD8D7F8A82007F10803194678683C
:103D0000FFF764FFD7F8AC2039687868FFF75EFFEB
:103D100000BFB037BD4680BD24A1040880B5B4B053
:103D200000AF786007F10C0017230F4AC02124F080
:103D300029F8C7F8CC00D7F8CC30002B10DDD7F825
:103D4000CC30BF2B0CD8D7F8CC2007F10C03194688
:103D50007868FFF73BFF172204497868FFF736FFC2
:103D600000BFD037BD4680BD94A1040888DF040899
:103D700080B582B000AF7860412204497868FFF7CF
:103D800025FF00BF0837BD4680BD00BFA0DF040887
:103D900080B5DEB006AF07F5B073A3F5AE7318605B
:103DA000224B1B7887F85B31214B1B68C7F85431D5
:103DB000204B1B68C7F850311F4B1B68C7F84C31AC
:103DC0001E4B1B68C7F85C31D7F85C31002B02D161
:103DD0001B4BC7F85C3197F85B311846FFF7C0FB07
:103DE000024607F10C00174B0493D7F85C3103939C
:103DF000D7F84C310293D7F850310193D7F85431AA
:103E000000931346104A4FF4A07123F0BBFF07F153
:103E10000C0207F5B073A3F5AE730C491868FFF7F1
:103E200019FF00BF07F5B077BD4680BD31390024CA
:103E300034390024383900243C3900240C00002493
:103E4000CCA2040874A204081CA204087CA20408E2
:103E5000B0B59CB00AAF786007F130031422194660
:103E60002848FEF71FFC07F11C03142219462648B8
:103E7000FEF718FC07F10803142219462348FEF741
:103E800011FC204B9B891C461E4B9B891D4604F050
:103E900017FF034607F13002099308955023079353
:103EA00007F10803069307F11C03059307F130039C
:103EB0000493174B0393029407F10803019307F14E
:103EC0001C0300931346134A4FF44051124823F049
:103ED00059FF78647B6C002B03DB7B6CB3F5405F90
:103EE00004D30E497868FFF7E9FE07E07B6C0C4AC3
:103EF0001360094A0B497868FFF7ACFE4837BD46A6
:103F0000B0BD00BF08030024100300240C030024EC
:103F100074A20408E4DF0408280500249CA2040815
:103F20001C050024ACA2040880B58EB000AFF86078
:103F3000B9607A603B60BB68002B09D07B68012BBD
:103F400006D93B68002B03DD3B687A689A4202D8A9
:103F50004FF0FF3360E000237B633B68BA68134493
:103F600000221A702E49B86824F001F838633B6BC0
:103F7000002B30D000233B613B6B1A1DBB68D31A6A
:103F8000FB6207F1140210232649B868FFF7E0FC32
:103F90000346002B10D07A68FB6AD31A591E07F12A
:103FA000100207F11403184605F0AEF90346002B82
:103FB00002D14FF0FF332FE03B69FA6A13447B6371
:103FC0003B687A6B9A4206D8BA687B6B134400222E
:103FD0001A707B6B20E07B685A1E3B689A4202D8BD
:103FE0004FF0FF3318E03B687A68D31A013BBB629D
:103FF0003B68BA68D118BA6A0023F86817F0FCFA6F
:1040000078627B6A002B02DC4FF0FF3304E03A68F1
:104010007B6A13443B609EE718463837BD4680BD37
:10402000C8A20408D0A2040880B586B000AFF8602A
:10403000B9607A603B60BB68002B09D07B68012BBC
:1040400006D93B68002B03DD3B687A689A4202D8A8
:104050004FF0FF332EE03B68BA68134400221A7019
:104060001649B86823F083FF0346002B01D03B6854
:1040700020E07B685A1E3B689A4202D84FF0FF331B
:1040800018E03B687A68D31A013B7B613B68BA68E9
:10409000D1187A690023F86817F0AEFA38613B69E5
:1040A000002B02DC4FF0FF3304E03A683B69134415
:1040B0003B60D0E718461837BD4680BDC8A204084B
:1040C00080B596B000AFF860B9607A60FB68002BED
:1040D0001ED007F1100307F150021049F86823F0D1
:1040E00083FE0346022B13D107F15003B96818462B
:1040F00005F028F80346002B0AD107F11003796870
:104100001846FCF7CDF80346002B01D1012300E04F
:10411000002318465837BD4680BD00BFE0A2040802
:1041200080B588B000AFF860B9607A60FB68002B9A
:104130000DD0BB68002B0AD07B68002B07D0132260
:104140003849F86805F048F80346002B01D00023F1
:1041500063E0FB68FB6102E0FB690133FB61FB6923
:104160001B78002B07D009222F49F86905F034F895
:104170000346002BF0D1FB69002B01D100234CE05A
:10418000FB691B78002B01D1002346E0FB69093352
:10419000FB61FB691B78222B08D1FB690133FB61B2
:1041A0002221F86923F0C3FEB86115E0FB69BB6109
:1041B00002E0BB690133BB61BB691B78002B0BD0EC
:1041C000BB691B783B2B07D0BB691B78202B03D026
:1041D000BB691B78092BECD1BB69002B03D0BA69F2
:1041E000FB699A4201D8002317E0BA69FB69D31A28
:1041F0007B617A697B689A4202D27B69602B01D924
:1042000000230AE07A69F969B86823F03AFFBA68CE
:104210007B69134400221A70012318462037BD46DB
:1042200080BD00BFECA2040800A3040880B5A8B0BC
:1042300002AFF860B9607A60FB7000237B61BA68F6
:104240007B689A4210D004F0D9FE2D4B19682D4B93
:1042500000937B68BA680620FFF758F92949F86887
:10426000FFF72CFD002347E0274B00937B68BA68DB
:104270005C210320FFF74AF907F114031946B868D7
:1042800004F004FE0346002B0DD1204B00937B6805
:10429000BA685C210620FFF739F91C49F868FFF776
:1042A0000DFD002328E01A4B00937B68BA68622159
:1042B0000420FFF72BF9FB78002B0ED07B6907F168
:1042C0001800144A802123F05DFD07F118031A46F7
:1042D0001149F868FFF7BEFC0DE07B6907F1180093
:1042E0000E4A802123F04EFD07F118031A460C49AF
:1042F000F868FFF7AFFC012318469837BD4680BD2C
:10430000343900240CA3040824A3040840A304089F
:1043100064A3040880A304087CA20408B4A30408CE
:10432000CCA3040880B586B002AF786039607B68A2
:10433000FB60FB68002B03D0FB681B7A002B01D0CD
:10434000002322E0FB681B68124A0092002202212F
:104350000120FFF7DBF8FB681B68184604F0B8FC87
:104360000346002B04D1FB680B4ADA6000230CE003
:10437000FB6801221A72FB681B68084A009200223F
:1043800005210220FFF7C2F8012318461037BD4669
:1043900080BD00BFE8A3040808A4040830A40408F2
:1043A0002DE9B04F8AB002AF78613961FA607B695C
:1043B000FB61FB69002B11D0FB691B7A002B0DD030
:1043C000FB695A68FB691B689A4207D8FB691A683F
:1043D000FB695B68D31AFA689A4207D9FB69002B1C
:1043E00002D0FB692A4ADA6000234BE0F968386999
:1043F00004F0EAFC0346002B04D1FB69254ADA608D
:1044000000233FE0FB695A68FB681A44FB695A6065
:10441000FB695B6800229846914642464B464FF046
:1044200000004FF00001990041EA927190000246AD
:104430000B4612EB080443EB09054FF000024FF066
:1044400000032B0143EA1473220114EB020A45EB2B
:10445000030BFB691B6800223B607A60D7E90023ED
:1044600050465946FBF784FF02460B461346591D3A
:10447000FB695A68FB691B68074800900220FFF738
:1044800045F8012318462037BD46BDE8B08F00BF70
:104490000CA3040844A4040830A4040880B485B024
:1044A00000AF78607B68FB60FB68002B02D0FB6884
:1044B00001225A7200BF1437BD4680BC704700000D
:1044C0002DE9B04FADF5906D02AF07F58F63A3F204
:1044D0004443186007F58F63A3F58963196007F5F6
:1044E0008F63A3F24C431A600023C7F8743407F5B6
:1044F0008F63A3F58963BB4ABB491868FFF7E0FDEA
:104500000346002B11D1B94B009300230022002158
:104510000620FEF7FBFF07F58F63A3F24443B34980
:104520001868FFF7CBFB0023D0E107F58F63A3F5F5
:104530008963AF49186823F01AFDC7F86804D7F8F3
:104540006834002B1ED007F24C4207F58F63A3F5A9
:1045500089601023A7490068FFF7FAF90346002B8A
:1045600010D004F0ADFB014607F5896307F24C401B
:104570001A4604F0C9FE0346002B03D0D7F848348E
:10458000072B11D89C4B009300230022002106200A
:10459000FEF7BCFF07F58F63A3F244439649186802
:1045A000FFF78CFB002391E1D7F868340433C7F898
:1045B000683407F58F63A3F58963D7F868241B680F
:1045C000D31AC7F86434D7F848248C4B00931346A9
:1045D000002202210120FEF799FFD7F8483418463F
:1045E00004F076FB0346002B12D1D7F84834844AF6
:1045F0000092002200210620FEF788FF07F58F6356
:10460000A3F244437E491868FFF758FB00235DE19D
:10461000D7F848247B4B0093134600220521022043
:10462000FEF774FF4FF005024FF0000307F58761B6
:10463000C1E900230023C7F8403407F5876207F576
:104640008F63A3F2444010230093134641F2060205
:1046500040F6FF71006817F003FB07F58F63A3F2C4
:104660004C431A68D7F86434934280F01B8107F5F5
:104670008F63A3F24C431A68D7F86434D31AC7F88F
:104680007034D7F84824D7F87034934203D9D7F858
:104690004834C7F87034D7F87014D7F8680404F0B9
:1046A00093FB0346002B15D104F0A8FCD7F848343F
:1046B000554A0092D7F8742400210620FEF726FF01
:1046C00007F58F63A3F244434F491868FFF7F6FAE2
:1046D0000023FBE0D7F87034C7F87434D7F874348B
:1046E00000229A46934652465B464FF000004FF038
:1046F0000001990041EA9271900002460B4612EBCC
:104700000A0443EB0B054FF000024FF000032B01AE
:1047100043EA14732201A118396245EB03037B625B
:10472000D7F848340022BB61FA61D7E90623D7E9FC
:104730000801FBF71DFE02460B461346591DD7F82C
:104740004834304A0092D7F874240220FEF7DEFE87
:10475000A8E0D7F84824D7F87434D31AC7F86034DF
:10476000D7F86034B3F5806F04D2D7F86034C7F857
:104770006C3403E04FF48063C7F86C34D7F86C24D2
:1047800007F1380107F58F63A3F244400023006866
:1047900016F032FFC7F85C04D7F85C34002B0ADD52
:1047A000D7F85C2407F138031146184604F00CFBD7
:1047B0000346002B2ED104F021FC144B1968D7F8C6
:1047C0004834134A0092D7F874240620FEF79EFE60
:1047D00007F58F63A3F244430D491868FFF76EFA9B
:1047E000002373E060A4040870A4040878A40408FB
:1047F000C8A20408D0A2040894A40408E8A30408EA
:1048000008A4040830A4040844A40408343900248B
:10481000ACA40408D7F85C34D7F874241344C7F860
:104820007434D7F8743400223B617A61D7E90445C7
:1048300022462B464FF000004FF00001990041EA5C
:104840009271900002460B46214612EB0108294660
:1048500043EB01094FF000024FF000034FEA091348
:1048600043EA18734FEA081218EB0201B96049EBEA
:104870000303FB60D7F8483400223B607A60D7E935
:104880000023D7E90201FBF773FD02460B461346EE
:10489000591DD7F84834104A0092D7F874240220E2
:1048A000FEF734FED7F84834D7F874249A42FFF460
:1048B00050AFD7F8482407F58F63A3F24440002394
:1048C000D7F874140068FFF7B1FC0346184607F5E3
:1048D0008F67BD46BDE8B08F30A4040880B5ADF643
:1048E000580D02AF07F50563A3F64403186007F5FA
:1048F0000563A3F64803196007F50563A3F64C03A7
:104900001A6007F50563A3F5B8731A460023136010
:1049100053609360D36007F50563A3F23C43CA4A32
:104920001A6007F50563A3F23C43C84A5A6007F5CD
:104930000563A3F23C43C64A9A6007F50563A3F2F8
:104940003C4307F5DC62DA6007F50563A3F648032C
:10495000C049186823F00BFBC7F8400807F501624F
:1049600007F50563A3F648001023BB490068FEF76E
:10497000EFFF034687F83F38D7F84038002B35D093
:1049800007F5026207F50563A3F648001023B34953
:104990000068FEF7DDFF0346002B27D007F5EE6227
:1049A00007F50563A3F64800A023AD490068FEF7AC
:1049B000CFFF0346002B19D007F20C7107F5EE6309
:1049C00061221846FFF7ACFB0346002B0ED004F023
:1049D00077F9034603F5805107F5E16207F50263B5
:1049E000184604F091FC0346002B11D19D4B009317
:1049F0000023002200210620FEF788FD07F505634D
:104A0000A3F6440397491868FFF758F900231BE2FF
:104A100097F83F38002B31D004F052F9014607F2E5
:104A2000047207F50163184604F06EFC0346002B80
:104A300012D007F50563A3F5A6731B68072B0BD9E6
:104A400007F50563A3F5A4731A6807F50563A3F5D5
:104A5000A6731B689A4219D8834B00930023002247
:104A600000210620FEF752FD07F50563A3F6440377
:104A70007D491868FFF722F90023E5E104F020F9E9
:104A8000024607F50563A3F5A6731A6007F50563EB
:104A9000A3F5A6731A6807F50563A3F5B8731A6042
:104AA00007F2144207F20C7107F224431846FEF78E
:104AB00094FB0346002B15D107F50563A3F5A673F8
:104AC0001B686A4A0092002200210620FEF71EFDA4
:104AD00007F50563A3F6440364491868FFF7EEF889
:104AE0000023B1E107F50563A3F5A6731B68604ACF
:104AF0000092002201210220FEF708FD07F5056360
:104B0000A3F5B0714FF005024FF00003C1E9002397
:104B100007F50563A3F5B07300229A6007F5DE631D
:104B200007F50562A2F644001022009241F2060247
:104B300040F6FF71006817F093F8D7F84038043357
:104B4000C7F8403807F50563A3F64803D7F84028AF
:104B50001B68D31AC7F838380023C7F84C3807F554
:104B60000563A3F64C031B68D7F838289A4280F0F7
:104B7000028107F50563A3F64C031A68D7F83838A5
:104B8000D31AC7F8483807F50563A3F5A4731B6863
:104B9000D7F848289A4206D907F50563A3F5A47308
:104BA0001B68C7F8483807F22443D7F84828D7F8D5
:104BB00040181846FEF776FB0346002B3FD107F559
:104BC0000563A3F5B8731B7A002B01D004F016FA25
:104BD000284B196807F50563A3F5B8735A6807F5FC
:104BE0000563A3F5A673186807F50563A3F5B87305
:104BF000DB68002B05D007F50563A3F5B873DB6808
:104C000000E01D4B009303460620FEF77FFC07F5EE
:104C10000563A3F5B873DB68002B05D007F50563C2
:104C2000A3F5B873DB6800E0134B07F50562A2F645
:104C3000440219461068FFF741F8002304E1D7F851
:104C40004838C7F84C3896E025430208A1430208CB
:104C50009D440208C8A20408C8A40408D0A20408FD
:104C6000E0A40408F0A4040814A5040834A504086A
:104C700050A504083439002468A5040807F5056325
:104C8000A3F5A4731A68D7F84C38D31AC7F8343888
:104C9000D7F83438B3F5806F04D2D7F83438C7F872
:104CA000443803E04FF48063C7F84438D7F8442809
:104CB00007F1140107F50563A3F64400002300681B
:104CC00016F09AFCC7F83008D7F83038002B0BDD07
:104CD000D7F8302807F1140107F224431846FEF7ED
:104CE000E1FA0346002B3FD107F50563A3F5B8733E
:104CF0001B7A002B01D004F081F9564B196807F597
:104D00000563A3F5B8735A6807F50563A3F5A673A1
:104D1000186807F50563A3F5B873DB68002B05D0A9
:104D200007F50563A3F5B873DB6800E04A4B009311
:104D300003460620FEF7EAFB07F50563A3F5B87303
:104D4000DB68002B05D007F50563A3F5B873DB68B6
:104D500000E0414B07F50562A2F6440219461068CF
:104D6000FEF7ACFF00236FE0D7F83038D7F84C28B7
:104D70001344C7F84C3807F50563A3F5A4731B6803
:104D8000D7F84C289A42FFF479AF07F2244318462B
:104D9000FEF773FB0346002B15D007F22443184699
:104DA000FEF784FB0346002B0DD007F50563A3F542
:104DB000B8735B7A002B06D007F50563A3F5B873CB
:104DC0001B7A002B23D107F50563A3F5B8731B7A73
:104DD000002B01D004F012F91E4B196807F505638A
:104DE000A3F5B8735A6807F50563A3F5A6731B68A6
:104DF0001A4800900620FEF789FB07F50563A3F625
:104E0000440316491868FEF759FF00231CE007F514
:104E10000563A3F5B873596897F83F38002B05D19F
:104E200007F50563A3F5B8735A6804E007F5056351
:104E3000A3F5A6731A6807F50563A3F644000123DA
:104E40000068FFF7F3F90346184607F50567BD4606
:104E500080BD00BF34390024ACA4040880A5040838
:104E600080B586B002AFF860B9607A60174A184919
:104E7000B868FFF725F90346002B06D07A68B968B1
:104E8000F868FFF71DFB03461BE0124A1049B8689B
:104E9000FFF716F90346002B06D07A68B968F86860
:104EA000FFF71CFD03460CE00B4B00930023002290
:104EB00000210620FEF72AFB0749F868FEF7FEFEF0
:104EC000002318461037BD4680BD00BF60A404080B
:104ED00070A404089CA50408B0A5040880B584B09B
:104EE00000AF78607B68FB60FB681868FB6803F1C3
:104EF0000801FB685B681A46FFF7B2FFFB681B6896
:104F0000184615F0CFFFFB684FF0FF321A60044BD4
:104F100000221A60034B00221A700FF062FA00BFE1
:104F2000FC0400243039002480B5ADF5647D02AF67
:104F300007F56273A3F56173186011220221022044
:104F400016F078FCC7F88403D7F88433002B04DA12
:104F50004FF47A700FF04CFA9CE007F55C73102266
:104F60000021184622F0DBFF022387F8713300236B
:104F7000C7F87433484B9B89184617F073FA0346F9
:104F8000A7F872334FF001024FF00003C7E9D823AE
:104F90000023C7F8683307F558731022009241F2D6
:104FA000060240F6FF71D7F8840316F059FE07F5A4
:104FB0005C7310221946D7F8840315F013FF0346DB
:104FC000002B08D0D7F8840315F06CFF4FF47A70EB
:104FD0000FF00EFA5EE0304B9A89304B1A804FE0AA
:104FE0001023C7F84C3307F1CC0107F55373019335
:104FF00007F5547300930023FF22D7F8840316F0BB
:105000006BFAC7F88003D7F88033002B38DD07F53B
:105010006273A3F52F72D7F88033134400221A70FD
:1050200007F10C0207F1CC00C0230021FEF726FD9A
:105030000346002B09D007F5E67107F10C034FF486
:10504000C072184601F0D6FF07E007F5E673144A70
:105050004FF4C071184622F095FE07F5E673184626
:10506000FBF728F90246D7F84C3307F5E6710193B0
:1050700007F5547300930023D7F8840316F034FB2C
:10508000054B9A89054B1B889A42A9D0D7F884030F
:1050900015F008FF51E700BF0803002400050024B5
:1050A000D0A5040880B483B000AF786002E07B68CC
:1050B00001337B607B68002B0FD07B681B78202B33
:1050C000F5D07B681B78092BF1D07B681B780D2B02
:1050D000EDD07B681B780A2BE9D07B6818460C372B
:1050E000BD4680BC7047000080B596B000AFF86048
:1050F000B9607A603B60FB68002B08D0BB68002B6E
:1051000005D07B68002B02D03B68002B01D1002327
:105110009DE007F11400BB684F4A302122F032FEB7
:105120000346002B01DC002391E007F1140318462D
:10513000FBF7C0F87864FB687B6579E07A6D7B6C7F
:1051400013441846FFF7AEFF38650023FB643B6D40
:105150001B783A2B04D07A6D7B6C13447B6567E037
:105160003B6D01331846FFF79DFF38653B6D1B789B
:10517000222B04D07A6D7B6C13447B6558E03B6D29
:1051800001333B653CE03B6D5A1C3A651B7887F860
:105190004B3097F84B305C2B20D13B6D1B78002BAC
:1051A0001CD03B6D5A1C3A651B7887F84B3097F83A
:1051B0004B306E2B03D10A2387F84B300EE097F863
:1051C0004B30722B03D10D2387F84B3006E097F854
:1051D0004B30742B02D1092387F84B30FB6C013321
:1051E0003A689A4204D87B6800221A7000232EE0A5
:1051F000FB6C5A1CFA647A68134497F84B201A70B7
:105200003B6D1B78002B03D03B6D1B78222BBAD152
:105210003B6D1B78222B04D07B6800221A70002380
:1052200015E07A68FB6C134400221A7001230EE02B
:1052300007F114031946786D22F099FE78657B6DAD
:10524000002B7FF47BAF7B6800221A700023184686
:105250005837BD4680BD00BFF4A5040880B487B0B0
:1052600000AFF860B9607A6000237B61FB68002BB7
:105270006ED0BB68002B6BD07B68002B59D1374BAD
:105280007B6056E07B685A1C7A601B78FB74FB7C61
:10529000222B02D0FB7C5C2B13D17B690233BA68D2
:1052A0009A420ED97B695A1C7A61FA6813445C22CF
:1052B0001A707B695A1C7A61FA681344FA7C1A7076
:1052C00037E0FB7C0D2B13D17B690233BA689A421D
:1052D0000ED97B695A1C7A61FA6813445C221A70F1
:1052E0007B695A1C7A61FA68134472221A7020E0B2
:1052F000FB7C0A2B13D17B690233BA689A420ED920
:105300007B695A1C7A61FA6813445C221A707B69C3
:105310005A1C7A61FA6813446E221A7009E0FB7C09
:105320001F2B06D97B695A1C7A61FA681344FA7CF0
:105330001A707B681B78002B04D07B690133BA6834
:105340009A429FD8FA687B69134400221A7000E0E1
:1053500000BF1C37BD4680BC704700BFCCA204080C
:10536000B0B588B006AF786039607B68002B07D095
:105370003B680C2B04D91B4B93F82C30062B09D01F
:105380007B68002B29D03B68002B26D07B6800224D
:105390001A7022E0134B93F826301D46114B93F8F8
:1053A00027301A460F4B93F8283019460D4B93F8C7
:1053B000293018460B4B93F82A301C46094B93F8BA
:1053C0002B30049303940290019100922B46064ADD
:1053D0003968786822F0D6FC00E000BF0837BD4687
:1053E000B0BD00BF403A0024FCA5040880B5ADF56F
:1053F000767D02AF07F57473A3F57173186007F536
:105400007473A3F573731A6007F57473A3F2C5334D
:105410000A461A7007F57473A3F5737307F50470E1
:105420001A684FF4E071FFF719FF07F57473A3F2E0
:10543000C5331B78002B01D00E4A00E00E4A07F15D
:10544000100007F50473009313460C4A4FF40071E3
:1054500022F098FC07F1100207F57473A3F571733D
:1054600007491868FEF7F6FB00BF07F57477BD46DD
:1054700080BD00BF18A6040820A6040828A60408BA
:105480007CA2040880B5B4B000AF786007F10C00CE
:1054900033230F4AC02122F075FCC7F8CC00D7F89F
:1054A000CC30002B10DDD7F8CC30BF2B0CD8D7F880
:1054B000CC2007F10C0319467868FEF787FB3322EE
:1054C00004497868FEF782FB00BFD037BD4680BD37
:1054D00044A60408B408050880B58AB000AF786017
:1054E00039603868FEF768F90346002B01D00123C4
:1054F0001BE007F1080220230E497868FFF7F4FD4E
:105500000346002B09D107F1080220230A497868D5
:10551000FFF7EAFD0346002B06D007F10803184603
:10552000FEF74AF9034600E0002318462837BD4637
:1055300080BD00BFD4A60408D8A60408B0B5ADF558
:105540003E7D08AF07F53673A3F53573186007F590
:105550003173142219462448FDF7A4F807F52C737B
:10556000142219462148FDF79DF807F527731422E8
:1055700019461F48FDF796F807F5237310211846C2
:10558000FFF7EEFE04F016FA044604F01DFA054695
:1055900004F024FA024607F10C00164B079307F5B6
:1055A0002373069307F52773059307F52C7304936C
:1055B00007F5317303930292019500940D4B0E4A47
:1055C0004FF4207122F0DEFB07F10C0207F5367371
:1055D000A3F5357309491868FEF73CFB00BF07F5D2
:1055E0003677BD46B0BD00BF080300241003002479
:1055F0000C03002474A20408E4A604087CA2040896
:1056000080B5B4B002AF786007F1B4031422194634
:105610001548FDF747F807F1A0031422194613486F
:10562000FDF740F807F18C03142219461048FDF7E6
:1056300039F807F1B40207F10C0007F18C0301936C
:1056400007F1A003009313460A4A802122F09AFB37
:1056500007F10C031A4608497868FEF7FBFA00BF09
:10566000C837BD4680BD00BF0803002410030024D6
:105670000C030024E0A704087CA2040890B5ADF553
:105680003B7D02AF07F53873A3F53573186007F556
:105690003873A3F53673196007F53873A3F53773BC
:1056A0001A6007F53873A3F536731B68002B0DD00D
:1056B00007F52E7207F53873A3F536702823B8491D
:1056C0000068FFF711FD0346002B09D107F5387379
:1056D000A3F53573B34A00211868FFF787FEF0E1A0
:1056E00007F52E73B0491846FAF7DAFD0346002B8A
:1056F00007D107F53873A3F535731868FFF71EFF58
:10570000DFE107F52E73A9491846FAF7C9FD0346EC
:10571000002B08D007F52E73A5491846FAF7C0FDEF
:105720000346002B38D107F1140207F53873A3F5AF
:105730003670C0239F490068FFF7D6FC0346002B54
:1057400009D107F53873A3F535739B4A0021186812
:10575000FFF74CFEB5E107F1D40107F114034FF454
:10576000C072184601F046FC07F1D40304229349A5
:10577000184603F031FD0346002B14BF012300231C
:10578000DBB2194607F1D40207F53873A3F5357378
:105790001868FFF72BFE94E107F52E738849184629
:1057A000FAF77EFD0346002B07D107F53873A3F502
:1057B00035731868FFF724FF83E107F52E738149DD
:1057C0001846FAF76DFD0346002B40F0A98007F557
:1057D0003873A3F5377207F53873A3F5367311687C
:1057E0001868FFF779FE0346002B07D107F53873D9
:1057F000A3F535731868FFF745FE62E107F52872D7
:1058000007F53873A3F5367018236F490068FFF762
:105810006BFC0346002B3CD007F5227207F538736A
:10582000A3F53670182369490068FFF75DFC03464D
:10583000002B2ED007F51C7207F53873A3F53670D0
:10584000182363490068FFF74FFC0346002B20D064
:1058500007F51B7207F5287311461846FCF7B0FED2
:105860000346002B15D007F51A7207F5227311466F
:105870001846FCF7A5FE0346002B0AD007F519725F
:1058800007F51C7311461846FCF79AFE0346002BD9
:1058900009D107F53873A3F535734E4A002118680E
:1058A000FFF7A4FD0DE1D7F86C32C7F85432D7F8F2
:1058B0006832C7F85C32D7F86432C7F85832464BC2
:1058C0009B89A7F86032B7F8604207F515731A1D77
:1058D00007F5157303F1080107F515702346FCF76A
:1058E00019FE0346002B07D007F51573184603F081
:1058F000B3F80346002B09D107F53873A3F53573C8
:10590000344A00211868FFF771FDDAE007F53873B3
:10591000A3F53573314A01211868FFF767FDD0E020
:1059200007F52E732E491846FAF7BAFC0346002BEA
:1059300068D12C4B1B78DBB2042B13D12A4B1A688D
:105940002A4B1B682A49009164210520FDF7DEFDE2
:105950000EF0A2FC034603F5FA73264A1360264BA9
:1059600001221A701F4B1B78DBB2052B04D01D4B94
:105970001B78DBB2042B01D1012100E00021194B7F
:105980001B78DBB2062B01D11C4A00E01C4A07F54C
:105990003873A3F535731868FFF728FD91E000BF51
:1059A00000AA040808A8040818A8040824A80408E1
:1059B00030A8040840A8040838A8040844A804082B
:1059C0004CA8040860A8040810D6040874A80408A9
:1059D0007CA8040884A80408080300249CA80408E0
:1059E000B8A8040831390024383900243C3900248F
:1059F000CCA804082405002420050024ECA80408F1
:105A0000C8B9040807F52E7330491846FAF748FC60
:105A10000346002B26D107F53873A3F5377207F537
:105A20003873A3F5367311681868FFF755FD034600
:105A3000002B07D107F53873A3F535731868FFF706
:105A400021FD3EE0FCF736FD214803F005F8034652
:105A5000194607F53873A3F535731E4A1868FFF722
:105A6000C5FC2EE007F52E731B491846FAF718FC03
:105A70000346002B09D107F53873A3F53573174A90
:105A800017491868FEF7E6F81BE007F52E7315496D
:105A90001846FAF705FC0346002B09D107F53873C1
:105AA000A3F53573104A0E491868FEF7D3F808E0DD
:105AB00007F53873A3F535730C4A00211868FFF712
:105AC00095FC07F53977BD4690BD00BF04A90408D1
:105AD000080300249CA8040814A9040820A90408A9
