:020000040800F2
:1000000000000824115C0008C9110008D111000883
:10001000E5110008F91100080D12000800000000A9
:10002000000000000000000000000000C14F0108B7
:10003000211200080000000051520108311200088E
:10004000655C0008655C0008655C0008655C00088C
:10005000655C0008655C0008655C0008655C00087C
:10006000655C0008655C0008655C0008655C00086C
:10007000655C0008655C0008655C0008655C00085C
:10008000655C0008655C0008655C0008655C00084C
:10009000655C0008655C0008655C0008655C00083C
:1000A000655C0008655C0008655C0008655C00082C
:1000B000655C0008655C0008655C0008655C00081C
:1000C000655C0008655C0008655C0008655C00080C
:1000D000655C0008655C0008655C0008655C0008FC
:1000E000655C0008655C000800000000655C0008B5
:1000F000655C0008655C0008655C0008655C0008DC
:10010000655C0008655C0008655C0008655C0008CB
:10011000655C0008655C0008655C0008655C0008BB
:10012000655C0008655C0008655C0008655C0008AB
:10013000655C000855120008655C0008655C0008F5
:1001400000000000000000000000000000000000AF
:10015000655C0008655C0008655C0008655C00087B
:10016000655C0008655C0008655C0008655C00086B
:10017000655C0008655C0008655C00080000000024
:10018000655C0008655C000869120008655C000891
:10019000655C0008655C0008655C0008655C00083B
:1001A000655C0008655C0008655C0008655C00082B
:1001B000655C0008655C0008655C0008655C00081B
:1001C000655C0008655C0008655C0008655C00080B
:1001D000655C0008655C0008655C0008655C0008FB
:1001E000655C0008655C0008655C0008655C0008EB
:1001F000655C0008655C0008655C0008655C0008DB
:10020000655C0008655C0008655C0008655C0008CA
:10021000655C0008655C0008655C0008655C0008BA
:10022000655C0008655C0008655C00080000000073
:10023000655C0008655C000800000000655C000863
:10024000655C0008655C0008655C0008655C00088A
:10025000655C0008655C0008655C0008655C00087A
:10026000655C0008655C0008655C0008655C00086A
:10027000655C0008655C0008655C00080000000023
:10028000655C0008655C0008655C00080000000013
:0802900000000000655C00089D
:1002A00010B5054C237833B9044B13B10448AFF3B0
:1002B00000800123237010BD940000240000000082
:1002C000FC69020808B5034B1BB103490348AFF3AF
:1002D000008008BD0000000098000024FC690208AE
:1002E00010F8012B11F8013B012A28BF9A42F7D0E0
:1002F000D01A7047034613F8012B002AFBD1181AB5
:1003000001387047000000000000000000000000FD
:1003100001F0FF01102A2BDB10F0070F08D010F8B6
:10032000013B013A8B422DD010F0070F42B3F6D1BA
:10033000F0B441EA012141EA014122F007047FF0D3
:1003400000070023F0E80256083C85EA010586EA2A
:10035000010685FA47F5A3FA87F586FA47F6A5FA66
:1003600087F68EB9EED1F0BC01F0FF0102F0070272
:1003700032B110F8013B013A83EA010313B1F8D11D
:100380000020704701387047002D06BF35460338FE
:10039000073815F0010F07D1013015F4807F02BF37
:1003A000013015F4C03F0130F0BC0138704700BF88
:1003B00053B94AB9002908BF00281CBF4FF0FF31CC
:1003C0004FF0FF3000F088B9ADF1080C6DE904CEB4
:1003D00000F006F8DDF804E0DDE9022304B0704720
:1003E0002DE9F047089D0F4604468C46002B48D166
:1003F0008A42164661D9B2FA82F34BB1C3F12002A8
:1004000001FA03FC20FA02F29E4042EA0C0C9C40E6
:100410004FEA164EB7B2BCFBFEF1220C0EFB11CC1C
:1004200042EA0C4201FB07F0904209D9B21801F1EF
:10043000FF3C80F0EE80904240F2EB800239324483
:10044000121AA4B2B2FBFEF00EFB102244EA0244E0
:1004500000FB07F7A74209D9341900F1FF3280F0F9
:10046000DA80A74240F2D7803444023840EA0140A3
:10047000E41B00211DB1DC400023C5E90043BDE8B9
:10048000F0878B4206D90DB1C5E90001002108466D
:10049000BDE8F087B3FA83F1002948D1BB4202D30B
:1004A000824200F20781841A67EB0302012094461E
:1004B000002DE4D0C5E9004CE1E7002A00F092806D
:1004C000B2FA82F3002B40F0A8808A1A4FEA164E47
:1004D0001FFA86FC0121200CB2FBFEF70EFB17224F
:1004E00040EA02420CFB07F0904207D9B21807F12C
:1004F000FF3802D2904200F2E2804746121AA4B2BC
:10050000B2FBFEF00EFB102244EA02440CFB00FC9E
:10051000A44507D9341900F1FF3202D2A44500F2F4
:10052000CB801046A4EB0C0440EA0740A2E7C1F1DF
:1005300020068B4022FA06FC4CEA030C07FA01F471
:1005400020FA06F3F7404FEA1C49234300FA01F86A
:100550001FFA8CFEB7FBF9F01C0C09FB107744EA7C
:10056000074400FB0EF7A74202FA01F20AD91CEB7E
:10057000040400F1FF3A80F09B80A74240F298808B
:1005800002386444E41B9FB2B4FBF9F309FB134443
:1005900047EA044403FB0EFEA64509D91CEB0404FC
:1005A00003F1FF3780F08280A6457FD9023B644487
:1005B00043EA0040A4EB0E04A0FB02E7BC427346F2
:1005C000B94663D360D05DB1B8EB030264EB0904B4
:1005D00004FA06F622FA01F31E43CC40C5E9006492
:1005E00000214CE76208480842EAC1710B0C43EA5B
:1005F00000438AB242EA0342B3FBF6F1E407B44691
:100600003746B6461F23B0FBF6F0D21B41EA004145
:1006100061E7614614E7104628E7C3F1200120FA9C
:1006200001F29E4027FA01F19F403A434FEA164EED
:100630001FFA86FCB1FBFEF70EFB1710110C41EA06
:10064000004107FB0CF8884504FA03F43AD9711805
:1006500007F1FF3001D288451FD8A1EB0801B1FB9B
:10066000FEF808FB0CF70EFB181192B242EA0142A9
:10067000BA422FD2B21808F1FF31C6D2BA42C4D260
:10068000A8F102013244C0E7F0459CD2BEEB020360
:1006900067EB0C070138B94695E7A6EB080841441B
:1006A000B81EB1FBFEF808FB0CF7DCE73B467FE722
:1006B000504667E70846FBE63444023832E7023F1B
:1006C00032441BE7A1EB08013846B1FBFEF808FBFA
:1006D0000CF7C8E7414698E7704700BF80B500AF08
:1006E0002E4B2F4A1A602D4B00229A602B4B002272
:1006F000DA602A4B00221A74284B00225A74274BC6
:1007000000229A74254B10225A61244B01229A61CF
:10071000224B0122DA61214B01221A621F4B012276
:100720005A621E4B01229A621C4B0122DA621B4B59
:1007300001221A63194B00225A63184B00229A6354
:10074000164B0022DA63154B00221A64134B042265
:100750005A64124B00229A64104B0422DA640F4B45
:1007600000221A650D4B04225A650C4B00229A6533
:100770000A4B0022DA65094B00221A66074B002259
:100780005A66064B04229A66044808F0BBF80346F2
:10079000002B01D000F03EFB00BF80BDB000002464
:1007A00000A0004080B5BAB000AF786007F1D40374
:1007B00000221A605A609A60DA601A6107F1100329
:1007C000C0220021184624F01CFD7B681B68274AC4
:1007D000934246D14FF400424FF00003C7E904238F
:1007E0004FF08053C7F8803007F1100318460AF025
:1007F000F9FD0346002B01D000F00CFB1C4BD3F895
:10080000EC301B4A43F48073C2F8EC30184BD3F839
:10081000EC3003F48073FB60FB68154BD3F8E030D9
:10082000134A43F00803C2F8E030114BD3F8E0302C
:1008300003F00803BB60BB680323C7F8D43002236E
:10084000C7F8D8300023C7F8DC300023C7F8E03001
:100850000923C7F8E43007F1D4031946054809F025
:1008600091FA00BFE837BD4680BD00BF00A0004040
:1008700000440258000C025880B582B000AF786086
:100880007B681B68094A93420BD1094BD3F8EC30C3
:10089000074A23F48073C2F8EC300321054809F0BD
:1008A0002BFC00BF0837BD4680BD00BF00A0004044
:1008B00000440258000C025880B500AF044A0021E1
:1008C000044810F0EBFE0346034A136000BF80BDEE
:1008D00024A00208DD0800085001002480B582B081
:1008E00000AF786000F0EEFF0FF03EFE01F024F85C
:1008F00001F03CF8012010F062FF00BFF8E70000B3
:10090000B0B588B000AF0D4B3C461D460FCD0FC4AF
:1009100095E8070003C4227039466423182208486A
:100920000DF04DF94FF0500383F31188BFF36F8F33
:10093000BFF34F8FFB6100BF00BFFDE7AC6A020849
:10094000E0010024B0B58AB000AF78603960184B80
:1009500007F108041D460FCD0FC495E8070003C436
:10096000228007F108016423192212480DF027F9AB
:100970003B68002B09D03868FFF7BCFC03469AB2ED
:10098000642339680B480DF01AF9642302220A49DE
:1009900008480DF014F94FF0500383F31188BFF3AA
:1009A0006F8FBFF34F8F7B6200BF00BFFDE700BFBB
:1009B000C86A0208E0010024E86C020880B58CB027
:1009C00000AF07F11C0300221A605A609A60DA60D7
:1009D0001A61694BD3F8E030674A43F01003C2F85C
:1009E000E030654BD3F8E03003F01003BB61BB6926
:1009F000614BD3F8E030604A43F00403C2F8E030C2
:100A00005D4BD3F8E03003F004037B617B695A4B04
:100A1000D3F8E030584A43F02003C2F8E030564B98
:100A2000D3F8E03003F020033B613B69524BD3F82D
:100A3000E030514A43F08003C2F8E0304E4BD3F827
:100A4000E03003F08003FB60FB684B4BD3F8E030F1
:100A5000494A43F00103C2F8E030474BD3F8E03095
:100A600003F00103BB60BB68434BD3F8E030424A5C
:100A700043F00203C2F8E0303F4BD3F8E03003F01C
:100A800002037B607B683C4BD3F8E0303A4A43F08A
:100A90000803C2F8E030384BD3F8E03003F0080325
:100AA0003B603B68002248F27801344809F046FC7C
:100AB00000224FF47C51324809F040FC002206210C
:100AC000304809F03BFC00224FF440712E4809F0F9
:100AD00035FC002204212D4809F030FC48F278034F
:100AE000FB6101233B6200237B620023BB6207F1B1
:100AF0001C031946214809F045F94FF47C53FB616A
:100B000001233B6200237B620023BB6207F11C03CD
:100B100019461B4809F036F90623FB6101233B62A5
:100B200000237B620023BB6207F11C0319461548B2
:100B300009F028F94FF44073FB6101233B62002365
:100B40007B620023BB6207F11C0319460E4809F0C3
:100B500019F90423FB6101233B6200237B6200231C
:100B6000BB6207F11C031946084809F00BF900BFE6
:100B70003037BD4680BD00BF004402580010025807
:100B8000000802580004025800000258000C0258E5
:100B900080B584B000AF00F0F5F805F06BF93B4B81
:100BA0005B6903F40033002B1BD1BFF34F8F00BFF1
:100BB000BFF36F8F00BF354B0022C3F85022BFF345
:100BC0004F8F00BFBFF36F8F00BF304B5B692F4A61
:100BD00043F400335361BFF34F8F00BFBFF36F8FF8
:100BE00000E000BF294B5B6903F48033002B38D150
:100BF000264B0022C3F88420BFF34F8F00BF234B46
:100C0000D3F88030FB60FB685B0BC3F30E03BB6063
:100C1000FB68DB08C3F309037B60BB685A0143F63A
:100C2000E07313407A68920718491343C1F86032A1
:100C30007B685A1E7A60002BEFD1BB685A1EBA60DF
:100C4000002BE5D1BFF34F8F00BF104B5B690F4AFC
:100C500043F480335361BFF34F8F00BFBFF36F8FF7
:100C600000E000BF00F014F8FFF7A8FEFFF736FD24
:100C700000F0EAF800F078FC00F0C2FC10F0AAFCEA
:100C8000FFF71AFE10F0CCFC00BFFDE700ED00E01E
:100C900080B59CB000AF07F124034C220021184618
:100CA00024F0AFFA3B1D20220021184624F0A9FAB7
:100CB000022009F077FB00233B60304B9B692F4AF1
:100CC00043F4404393612D4B9B6903F440433B60E5
:100CD0002B4BDB6A2A4A43F00103D362284BDB6AC1
:100CE00003F001033B603B6800BF244B9B6903F4A6
:100CF0000053B3F5005FF8D101237B624FF48033DA
:100D0000BB620223BB640223FB6405233B65C02353
:100D10007B650223BB650823FB6502233B66082332
:100D20007B660023BB660023FB6607F1240318469D
:100D300009F072FB0346002B01D000F06BF83F2353
:100D40007B600323BB600023FB6009233B6100231E
:100D50007B610023BB610023FB6100233B623B1DE1
:100D60000121184609F0B2FF0346002B01D000F024
:100D700051F800BF7037BD4680BD00BF0048025823
:100D80000004005880B584B000AF3B4600221A60D2
:100D90005A609A60DA6005F053FA01233B70002331
:100DA0007B7000237B601F233B7287237B720023B1
:100DB000BB720023FB7201233B7301237B7300236F
:100DC000BB730023FB733B46184605F071FA012301
:100DD0003B7001237B704FF040537B600E233B72CE
:100DE00000237B720123BB720323FB7200233B733E
:100DF00000237B730023BB730023FB733B46184621
:100E000005F056FA042005F033FA00BF1037BD464E
:100E100080BD0000B0B58AB000AF094B3C1D1D4637
:100E20000FCD0FC40FCD0FC42B682380391D642351
:100E3000212204480CF0C3FE72B600BF00BFFDE7DC
:100E4000E46A0208E001002480B500AF274B284A7D
:100E50001A60264B4FF480025A60244B00229A609D
:100E6000224B0722DA60214B00221A611F4B00221D
:100E70005A611E4B4FF080629A611C4B0022DA616E
:100E80001A4B00221A62194B00225A62174B002299
:100E90009A62164B0022DA62144B4FF080425A637A
:100EA000124B00229A63114B0022DA630F4B00228F
:100EB0001A640E4B00225A640C4B00229A640B4BAE
:100EC0000022DA64094B00221A65084B00225A6599
:100ED000064B00229A6505480CF0B0F80346002B3B
:100EE00001D0FFF797FF00BF80BD00BF5401002471
:100EF0000050014080B5BAB000AF786007F1D4036C
:100F000000221A605A609A60DA601A6107F11003D1
:100F1000C0220021184624F074F97B681B68264A19
:100F2000934245D14FF400524FF00003C7E9042328
:100F300000237B6707F1100318460AF053FA0346B3
:100F4000002B01D0FFF766FF1C4BD3F8F0301B4A93
:100F500043F48013C2F8F030184BD3F8F03003F4A8
:100F60008013FB60FB68154BD3F8E030134A43F065
:100F70002003C2F8E030114BD3F8E03003F0200337
:100F8000BB60BB684FF46073C7F8D4300223C7F866
:100F9000D8300023C7F8DC300023C7F8E030052341
:100FA000C7F8E43007F1D4031946054808F0EAFE13
:100FB00000BFE837BD4680BD0050014000440258E4
:100FC0000014025880B582B000AF78607B681B685F
:100FD000094A93420CD1094BD3F8F030074A23F465
:100FE0008013C2F8F0304FF46071054809F084F8BE
:100FF00000BF0837BD4680BD005001400044025884
:101000000014025880B582B000AF0C4BD3F8F43016
:101010000A4A43F00203C2F8F430084BD3F8F43024
:1010200003F002037B607B6800220F216FF0010058
:1010300005F0D1F800BF0837BD4680BD0044025816
:1010400080B584B000AF78607B68BB600023FB8113
:101050007B68002B10D002E0FB890133FB81FB8908
:10106000BA6813441B78002BF6D1FA896423796897
:1010700003480CF0A4FD00E000BF1037BD4680BD62
:10108000E001002480B588B000AF786039607868EE
:10109000FFF7D6FF1548FFF7D3FF0023FB6113E0EE
:1010A000FB69C3F107039B003A6822FA03F303F0DC
:1010B0000F030F4AD15C07F10802FB6913440A468B
:1010C0001A70FB690133FB61FB69072BE8D90D231B
:1010D0003B740A237B740023BB7407F10803184692
:1010E000FFF7AEFF00BF2037BD4680BD086B02088A
:1010F00048A0020880B582B000AF78602648FFF7AC
:101100009FFF7868FFF79CFF2448FFF799FF13F0D3
:10111000B7F90346012B0AD013F0A2F9034618468B
:1011200012F03EFD03461846FFF78AFF02E01C4816
:10113000FFF786FF1B48FFF783FF1B4BDB6A19464F
:101140001A48FFF79FFF184B9B6A19461848FFF78C
:1011500099FF154B5B6B19461648FFF793FF124B2F
:101160009B6B19461448FFF78DFF144806F02EFEBE
:10117000034619461248FFF785FF104B1B6803F51D
:101180008053D3F8603119460E48FFF77BFF00BF4C
:101190000837BD4680BD00BF0C6B0208186B020803
:1011A000206B0208E86C020800ED00E0286B0208E2
:1011B000306B0208386B0208406B02088C1E00245A
:1011C000486B0208506B020880B400AF00BFFDE717
:1011D00080B500AF0248FFF78DFF00BFFDE700BFFD
:1011E000586B020880B500AF0248FFF783FF00BFCD
:1011F000FDE700BF6C6B020880B500AF0248FFF747
:1012000079FF00BFFDE700BF806B020880B500AF2B
:101210000248FFF76FFF00BFFDE700BF946B0208B5
:1012200080B400AF00BFBD465DF8047B704700008E
:1012300080B500AF064B1B6804F08EFE13F020F95A
:101240000346012B01D014F037F800BF80BD00BF6A
:1012500010E000E080B500AF024806F0BFF900BF23
:1012600080BD00BF8C1E002480B500AF02480CF08A
:101270005BFE00BF80BD00BFE001002480B400AF72
:1012800001231846BD465DF8047B704780B483B0E7
:1012900000AF78603960054B16221A604FF0FF33BB
:1012A00018460C37BD465DF8047B7047789B0124D7
:1012B00080B582B000AF78604FF0FF317868FFF7FB
:1012C000E5FF00BFFDE780B586B000AFF860B9600C
:1012D0007A6000237B610AE0AFF300800146BB68BF
:1012E0005A1CBA60CAB21A707B6901337B617A6991
:1012F0007B689A42F0DB7B6818461837BD4680BD94
:1013000080B586B000AFF860B9607A6000237B6179
:1013100009E0BB685A1CBA601B781846AFF300801E
:101320007B6901337B617A697B689A42F1DB7B6878
:1013300018461837BD4680BD80B483B000AF7860D2
:101340004FF0FF3318460C37BD465DF8047B7047FD
:1013500080B483B000AF786039603B684FF40052CE
:101360005A60002318460C37BD465DF8047B704771
:1013700080B483B000AF7860012318460C37BD46B7
:101380005DF8047B704780B485B000AFF860B96049
:101390007A60002318461437BD465DF8047B704719
:1013A00080B487B000AF7860144A154BD31A7B61C4
:1013B0007B693B61134B1B68002B02D1114B124A16
:1013C0001A60104B1A687B6813443A699A4205D236
:1013D0000E4B0C221A604FF0FF3309E0094B1B68DB
:1013E000FB60084B1A687B681344064A1360FB686D
:1013F00018461C37BD465DF8047B70470000082482
:1014000000100000DC010024889B0124789B01244B
:1014100080B400AF434BD3F88830424A43F47003A2
:10142000C2F88830404B1B6803F00F03062B07D827
:101430003D4B1B6823F00F033B4A43F00703136047
:101440003A4B1B68394A43F001031360374B0022C3
:101450001A61364B1A683549354B13400B60324BD5
:101460001B6803F00803002B07D02F4B1B6823F0E9
:101470000F032D4A43F0070313602C4B00229A619F
:101480002A4B0022DA61294B00221A62274B294A93
:101490009A62264B284ADA62244B284A1A63234B65
:1014A00000225A63214B254A9A63204B0022DA63BB
:1014B0001E4B224A1A641D4B00225A641B4B1B68A8
:1014C0001A4A23F480231360184B00221A661C4B1F
:1014D0001A681C4B1340B3F1005F02D21A4B012271
:1014E0001A60124BD3F8D43003F48053002B13D17D
:1014F0000E4BD3F8D4300D4A43F48053C2F8D430A5
:10150000124B43F2D2021A60084BD3F8D430074A88
:1015100023F48053C2F8D43000BFBD465DF8047B8D
:10152000704700BF00ED00E0002000520044025868
:101530007FEDF6EA000202020000FF0180020101D5
:101540000010005C0000FFFF0881005100400052C5
:10155000044BDA6842F00202DA605A689204FCD561
:10156000704700BF0048025880B500AF224B234AA5
:101570001A60214B4FF4E1325A601F4B00229A60EF
:101580001D4B0022DA601C4B00221A611A4B0C2200
:101590005A61194B00229A61174B0022DA61164BEF
:1015A00000221A62144B00225A62134B00229A62E4
:1015B00011480CF0B4FA0346002B01D0FFF72AFCC7
:1015C00000210D480EF005FF0346002B01D0FFF768
:1015D00021FC002108480EF03AFF0346002B01D001
:1015E000FFF718FC04480EF0BBFE0346002B01D0A9
:1015F000FFF710FC00BF80BDE00100240078004030
:1016000080B500AF224B234A1A60214B4FF4E132E0
:101610005A601F4B00229A601D4B0022DA601C4B5F
:1016200000221A611A4B0C225A61194B00229A614E
:10163000174B0022DA61164B00221A62144B00226B
:101640005A62134B00229A6211480CF068FA034662
:10165000002B01D0FFF7DEFB00210D480EF0B9FE94
:101660000346002B01D0FFF7D5FB002108480EF000
:10167000EEFE0346002B01D0FFF7CCFB04480EF032
:101680006FFE0346002B01D0FFF7C4FB00BF80BDF7
:1016900074020024007C004080B5BEB000AF7860CA
:1016A00007F1E40300221A605A609A60DA601A6156
:1016B00007F12003C0220021184623F0A2FD7B6819
:1016C0001B68634A934273D14FF002024FF000034C
:1016D000C7E908230023C7F8983007F1200318460C
:1016E00009F080FE0346002B01D0FFF793FB594B16
:1016F000D3F8E830574A43F08043C2F8E830554BFE
:10170000D3F8E83003F08043FB61FB69514BD3F819
:10171000E030504A43F02003C2F8E0304D4BD3F89C
:10172000E03003F02003BB61BB694A4BD3F8E030E3
:10173000484A43F01003C2F8E030464BD3F8E0309B
:1017400003F010037B617B694023C7F8E430022378
:10175000C7F8E8300023C7F8EC300023C7F8F030B2
:101760000723C7F8F43007F1E40319463A4808F0B4
:1017700009FB4FF48073C7F8E4300223C7F8E83060
:101780000023C7F8EC300023C7F8F0300723C7F870
:10179000F43007F1E4031946304808F0F3FA002268
:1017A0000621522004F017FD522004F02EFD4AE0DD
:1017B0007B681B682A4A934245D14FF002024FF0E2
:1017C0000003C7E908230023C7F8983007F1200376
:1017D000184609F007FE0346002B01D0FFF71AFB5D
:1017E0001C4BD3F8E8301B4A43F00043C2F8E83002
:1017F000184BD3F8E83003F000433B613B69154BCD
:10180000D3F8E030134A43F01003C2F8E030114B34
:10181000D3F8E03003F01003FB60FB680323C7F844
:10182000E4300223C7F8E8300023C7F8EC30002387
:10183000C7F8F0300823C7F8F43007F1E40319467D
:10184000064808F09FFA00BFF837BD4680BD00BFCC
:10185000007800400044025800140258001002585A
:10186000007C004080B5C6B002AF00F047F9C7F871
:101870000C0107F1F80314221946104800F0F2FD9C
:1018800007F1E0031821184601F0DAF807F1F80231
:10189000381DD7F80C31019307F1E003009313468C
:1018A000074ADC2123F0DCFB3B1D184600F042FF19
:1018B00000BF07F58877BD4680BD00BF2803002420
:1018C000A86B020880B582B000AF00F0D1FC03F035
:1018D00029FD02F063FC00F03DF90346FB71FB7942
:1018E000002B08D003F076FE0346002B06D1002023
:1018F00000F0E6F802E00C4803F03AFD00F06EF864
:1019000000F0AAFEFB79002B02D0084800F012FF7D
:10191000074800F00FFF00F04FF9064800F00AFFFB
:1019200000BF0837BD4680BD28030024406C020874
:10193000806C0208CC6C020880B500AF02F02EFC6F
:1019400000F08AFE084800F0F5FE02F0C3FA03F04A
:101950002DFB00F045FA02F0DBF800F0C7F8FFF7C6
:1019600081FF00BF80BD00BFEC6C020880B500AFF6
:1019700002F0E2FA00F0A4FA02F040F900F066F892
:1019800000F0D4F800BF80BD80B588B000AF03463A
:10199000FB7107F10C0300221A605A609A60DA604A
:1019A0001A61FB791A464FF400410B4808F0C6FC57
:1019B0004FF40043FB6001233B6100237B61002364
:1019C000BB6107F10C031946034808F0DBF900BFBF
:1019D0002037BD4680BD00BF0010025880B500AF63
:1019E00000227821134808F0A9FC00224FF47C5112
:1019F000114808F0A3FC00224FF440710F4808F092
:101A00009DFC002204210E4808F098FC00220221CF
:101A10000C4808F093FC012204210A4808F08EFCCF
:101A20000120FFF7B1FF0FF025FE0346064A1360C1
:101A300000BF80BD00100258000802580000025884
:101A4000000C0258000402580803002480B582B03C
:101A500000AF0FF00FFE7860154B1B687A68D31A41
:101A6000F92B21D9124A7B681360124B1B7883F043
:101A70000103DAB20F4B1A700E4B1B78002B14BF08
:101A800001230023DBB21A4602210B4808F056FC62
:101A90000A4B1B78002B14BF01230023DBB21A462C
:101AA0000421054808F04AFC00BF0837BD4680BD48
:101AB000080300240C03002400040258080000243A
:101AC00080B483B000AF0346FB71FB79002B01D0DB
:101AD000012200E00022044B1A7000BF0C37BD4603
:101AE0005DF8047B704700BF0800002480B400AF9D
:101AF00000BFBD465DF8047B7047000080B483B032
:101B000000AF094BD3F8D0307B60074BD3F8D0300F
:101B1000054A43F48033C2F8D0307B6818460C374E
:101B2000BD465DF8047B70470044025880B400AFA6
:101B3000064B1B78002B03D0054B4AF6AA221A60ED
:101B400000BFBD465DF8047B704700BF0D03002455
:101B50000048005880B586B000AF3B4600221A60AE
:101B60005A609A60DA601A614FF400433B600023C8
:101B70007B600123BB600023FB603B4619460D4898
:101B800008F000F914200FF01AFE4FF40041094844
:101B900008F0BCFB0346FB750120FFF7F5FEFB7D5B
:101BA000002B01D1012300E0002318461837BD4661
:101BB00080BD00BF0010025880B500AF0020FFF7C5
:101BC000E3FE64200FF0FBFD0120FFF7DDFE4FF484
:101BD00096700FF0F4FD00BF80BD000080B584B0AA
:101BE00000AF78600023FB6019E01149FA681346E2
:101BF0005B0013449B000B441B681946786803F094
:101C000097FD0346002B07D1FA6813465B00134487
:101C10009B00074A134406E0FB680133FB60FB6846
:101C20000E2BE2D9002318461037BD4680BD00BFF9
:101C30006CA0020880B584B000AF78600B46FB70E2
:101C40001346BB707868FFF7C9FFF860FB68002B8C
:101C500003D0FB689B7A002B01D1002319E0BB78ED
:101C6000002B08D0FB685A68FB681B891946104690
:101C700008F07DFB0CE0FB685868FB681989FB786D
:101C8000002B14BF01230023DBB21A4608F056FBD9
:101C9000012318461037BD4680BD80B584B000AF23
:101CA000786039607868FFF799FFF860FB68002B6F
:101CB00002D03B68002B01D1002310E0FB685A687A
:101CC000FB681B891946104608F020FB0346012BD0
:101CD00001D1012200E000223B681A70012318465E
:101CE0001037BD4680BD0000B0B588B002AF786047
:101CF000396000237B617B68002B3DD03B68002B63
:101D00003AD07B6800221A7000233B6130E07A6889
:101D10007B69D0183A687B69D11A3B69002B01D1E5
:101D2000174C00E0174C184D3A6913465B001344FA
:101D30009B002B441B6800932346144A23F090F920
:101D4000F860FB68002B05DB3A687B69D21AFB68F8
:101D50009A4206D83B68013B7A68134400221A7005
:101D60000BE0FB687A6913447B613B6901333B619B
:101D70003B690E2BCBD900E000BF1837BD46B0BD84
:101D8000B8700208786D02086CA002087C6D020829
:101D900080B483B000AF0346FB71FB79082B28BFEA
:101DA0000823DBB21A46044B53F8223018460C378E
:101DB000BD465DF8047B704720A1020880B483B063
:101DC00000AF78607B68072B01D9082302E07B68AD
:101DD0001B0CDBB218460C37BD465DF8047B704720
:101DE00080B58AB002AF3B4620220021184623F07E
:101DF00008FA314807F056F82F4806F061FF2E4BDD
:101E000001229A632C4B0022DA632B4B08221A64BE
:101E1000294B04225A64284B08221A66264B0022BA
:101E20005A66254B04229A66234806F06BFD03464A
:101E3000002B06D0214B00221A700020FFF740FE35
:101E400037E000233B6000237B600223BB6001235B
:101E5000FB6000233B6100237B613B46194616482B
:101E600006F052FF0346002B0AD101230093012301
:101E700000220021104806F0BDFF0346002B06D0CB
:101E80000E4B00221A700020FFF71AFE11E00A48DC
:101E900006F0DDFF0346002B01D1012200E0002205
:101EA000064B1A70054B1B78002B02D10020FFF760
:101EB00007FE2037BD4680BDB00000240E0300247D
:101EC00080B58EB000AF20237B632BE007F12C039D
:101ED00000221A605A6007F12C033A1D40211B486A
:101EE00007F0B2F80346002B1CD113F051F97B68C0
:101EF000174A13603B691846FFF760FF03461A460E
:101F0000144B1A70134B1B781A4607F12C03194611
:101F1000114823F026FA114B1B6801330F4A136056
:101F200013F068F97B6B5A1E7A63002B0AD00C4BB6
:101F30001B78002B06D04021044807F0FFF9034628
:101F4000002BC3D100BF3837BD4680BDB000002490
:101F500018030024240300241C0300241403002479
:101F60000E03002480B590B000AFF860B96013464E
:101F7000FB7107F11C0324220021184623F041F9CC
:101F800007F1140300221A605A60254B1B78002BBE
:101F900009D0BB68002B06D0FB79082B03D8FB685F
:101FA000B3F1005F01D3002336E0FA7907F114039F
:101FB000B968184623F0D5F9FB68FB61FB68B3F5F7
:101FC000006F02D34FF0804300E000233B62002308
:101FD0007B62FB791846FFF7DBFE0346BB620023FA
:101FE000FB6200233B6300237B630023BB6300236E
:101FF000FB6307F1140207F11C031946094806F0B8
:10200000C8FF0346002B06D1074B1B680133064A65
:102010001360012300E0002318464037BD4680BD11
:102020000E030024B00000241003002480B588B003
:1020300002AF7860396013F0ABF80D4B1B78FB757D
:102040000C4B1B683B610C4B1B68FB6013F0D2F818
:10205000FA7DFB6801933B6900931346074A396890
:10206000786822F0FDFF00BF1837BD4680BD00BF75
:102070000E0300241003002414030024846D0208BE
:1020800080B592B002AF7860396013F081F81A4AD7
:1020900007F10C0392E8030083E80300174B1B7859
:1020A00087F83F30164B1B68BB63164B1B687B637E
:1020B00013F0A0F807F1140297F83F1007F10C0095
:1020C000202303F0D5FC7B6B002B05D10E4A396829
:1020D000786822F0C5FF0BE097F83F3007F1140253
:1020E00001920093BB6B094A3968786822F0B8FF07
:1020F00000BF4037BD4680BD1C03002424030024DC
:102100001803002414030024A06D0208A86D02081F
:1021100080B483B000AF78607B68002B01D10023CE
:1021200014E07B681B78002B0DD07B681B78DF2BBD
:1021300009D87B6803331B78002B04D07B680333FA
:102140001B78FF2B01D1002300E0012318460C3738
:10215000BD465DF8047B704780B483B000AF786003
:102160007B681B781A067B6801331B781B041A43B3
:102170007B6802331B781B0213437A6803321278A0
:10218000134318460C37BD465DF8047B704780B496
:1021900083B000AF78607B68002B12D07B681B781F
:1021A000002B10D17B6801331B78002B0BD17B688F
:1021B00002331B78002B06D17B6803331B78002B7E
:1021C00001D1012300E0002318460C37BD465DF81D
:1021D000047B704780B487B000AF78600023FB7544
:1021E0007B68002B01D100233BE07B681B781A063B
:1021F0007B6801331B781B041A437B6802331B780E
:102200001B0213437A680332127813433B613B6924
:10221000002B03D03B69B3F1FF3F01D1002320E045
:102220001F23BB7518E0BB7D1A463B69D340DBB268
:1022300003F00103FB73FB7B002B02D10123FB7531
:1022400004E0FB7D002B01D000230AE097F9163053
:10225000DBB2013BDBB2BB7597F91630002BE2DA3B
:10226000012318461C37BD465DF8047B704700000B
:1022700080B400AF164BC0221A70154BA8225A70BA
:10228000134B01229A70124B0A22DA70104BC022B3
:102290001A710F4BA8225A710D4B01229A710C4BE7
:1022A0000122DA710A4BFF221A72094BFF225A727D
:1022B000074BFF229A72064B0022DA72044B4FF44E
:1022C0007A629A8100BFBD465DF8047B704700BF0B
:1022D0002803002480B588B000AFF860B9607A6048
:1022E0007B80FB68002B11D0BB68002B0ED07B8855
:1022F000002B0BD0F868FFF70BFF0346002B05D02F
:10230000B868FFF767FF0346002B01D1002332E0D6
:10231000F868FFF721FFF861B868FFF71DFFB861A3
:10232000BB69DB43FA6913407B617B69002B04D0F6
:10233000BB69DB437A699A4201D100231BE07868CC
:10234000FFF725FF0346002B14D17868FFF7E0FE66
:102350000346002B01D100230DE07868FFF7FCFE57
:1023600038613A69FB695A40BB691340002B01D0C0
:10237000002300E0012318462037BD4680BD000041
:1023800080B586B000AF786039607B687B617B6820
:10239000002B02D03B68002B04D100235BE07B695B
:1023A00001337B617B691B7801332D4A13441B7811
:1023B00003F00803002BF2D10023FB7433E07B69A8
:1023C0001B780133264A13441B7803F00403002BC7
:1023D00001D100233FE007F108030A22194678697A
:1023E00022F05EFDF860BB687A699A4202D0FB6811
:1023F000FF2B01D900232EE0FB7C3A681344FA68D6
:10240000D2B21A70BB687B61FB7C022B08D87B6957
:102410001B782E2B01D000231DE07B6901337B61EB
:10242000FB7C0133FB74FB7C032BC8D902E07B6986
:1024300001337B617B691B780133094A13441B78A4
:1024400003F00803002BF2D17B691B78002B01D02D
:10245000002300E0012318461837BD4680BD00BFA9
:1024600031B7020880B588B004AFF860B9607A600F
:10247000BB68002B21D07B68002B1ED0FB68002B93
:1024800003D1BB6800221A7018E0FB681B7818465D
:10249000FB6801331B781A46FB6802331B78194628
:1024A000FB6803331B780293019100920346054AAF
:1024B0007968B86822F0D4FD00E000BF1037BD464F
:1024C00080BD00BF146A020880B500AF0122134925
:1024D00013480BF0DDFC0346002B1CD0104B1B688F
:1024E00008221A620E4B1B6802221A620C4B1B68F0
:1024F00004221A620A4B1B6801221A62084B00224E
:10250000C3F89020064B2022C3F88C2001220349F7
:1025100003480BF0BDFC00BF80BD00BF08040024D1
:10252000E001002480B582B000AF78607B68002BAA
:1025300009D07868FDF7DEFE03469AB2C8237968B1
:1025400003480BF03CFB00BF0837BD4680BD00BF11
:10255000E001002480B500AF0248FFF7E3FF00BFB1
:1025600080BD00BFC06D020880B582B000AF1148C9
:102570000CF0C6F878607B68002B17D00D4B1B68F9
:1025800008221A620B4B1B6802221A62094B1B6855
:1025900004221A62074B1B6801221A62054B0022B3
:1025A000C3F89020034B2022C3F88C2000BF0837CB
:1025B000BD4680BDE001002480B5B4B004AF7860B2
:1025C00007F1AC03142219461F48FFF74BFF1F49C0
:1025D0007868FDF785FE0346002B16D10FF04AF808
:1025E0000246194B9B8907F10C00029307F1AC03DB
:1025F000019300927B68164AA02122F031FD07F179
:102600000C031846FFF78EFF1AE00FF033F802466E
:102610000D4B9B8907F10C00039307F1AC03029368
:1026200007F1AC03019300927B680A4AA02122F0D3
:1026300017FD07F10C031846FFF774FFFFF78AFF39
:10264000C037BD4680BD00BF28030024CC6D020802
:10265000D86D0208F86D020880B58AB000AF244B2F
:102660001B78002B40D1224B01221A70214B0022F3
:102670001A800EF0FFFF024641F2883313441E4ACF
:1026800013601E48FFF74EFF1D48FFF74BFF1D4824
:10269000FFF748FF1C48FFF745FF1C48FFF78CFF7A
:1026A000FFF712FF1A4B1B68002B1ED13B1D242283
:1026B0000021184622F0A5FD164B7B604FF4805395
:1026C000BB612023FB613B1D1A46002112480EF01E
:1026D000E5FF03460E4A13600D4B1B68002B04D127
:1026E0000020FFF7EDF900E000BF2837BD4680BDB0
:1026F00000040024F8030024FC0300245C6E02089C
:102700008C6E0208B86E0208D46E0208006F0208D0
:1027100004040024086F02087928000880B400AF80
:10272000034B1B681846BD465DF8047B704700BF2D
:102730001005002480B582B000AF78607868FFF79C
:10274000F1FE00BF0837BD4680BD000080B584B0F3
:1027500000AF78607B68144A934220D1134B1B88EA
:102760009BB201339BB2DBB2FB81114B1B889BB246
:10277000FA899A420BD00D4B1B889BB21A460D4B1F
:1027800019780D4B9954094AFB89138004E00B4BCF
:102790001B680133094A1360FFF796FE00E000BF93
:1027A0001037BD4680BD00BFE00100240C050024A9
:1027B0000E050024080400240C0400241005002445
:1027C00080B582B000AF78607B68054A934202D141
:1027D000FFF77AFE00E000BF0837BD4680BD00BFAE
:1027E000E001002480B582B000AF78607868FFF720
:1027F000ADFF00BF0837BD4680BD80B582B000AFD9
:1028000078607868FFF7DCFF00BF0837BD4680BD01
:1028100080B5E0B000AF144B1B88002B03D1134BE5
:1028200000221A701BE0104B1B881A46104B002127
:1028300099543B464FF4C07219460D4801F086FD8D
:102840000C48FFF76FFE3B461846FFF76BFEFFF79D
:1028500081FE054B00221A80044B01221A7007F5F5
:10286000C077BD4680BD00BFF803002401040024EA
:1028700038030024E86C020880B582B000AFFFF78F
:1028800073FE51E03A4B1B889BB21A46394B9B5C56
:10289000FB71374B1B889BB201339BB2DBB29AB200
:1028A000334B1A80FB790D2B02D0FB790A2B0AD10E
:1028B000314B1B78002B03D02F4B00221A7033E0D2
:1028C000FFF7A6FF30E0FB79082B02D0FB797F2BC6
:1028D0000AD12A4B1B88002B26D0284B1B88013B92
:1028E0009AB2264B1A801FE0244B1B880133BF2B62
:1028F00012D8214B00221A70204B1B885A1C91B20F
:102900001E4A118019461E4AFB795354FB793F2B0E
:102910000AD1FFF77DFF07E0184B00221A80194803
:10292000FFF700FEFFF716FE114B1B889AB2164BFD
:102930001B889BB29A42A5D1104B1B88002B12D149
:102940000EF098FE0246114B1B68D31A002B0ADBCF
:102950000EF090FE024641F2883313440B4A136096
:102960000B48FFF729FE01200EF029FF87E700BF83
:102970000E0500240C04002401040024F8030024A4
:1029800038030024146F02080C050024FC03002403
:10299000CC6D0208000000002DE9B04F88B000AFF8
:1029A00003F006FB03467B6003F00EFB0346BB60AF
:1029B00003F016FB0346FB603B1D3B611EA3D3E9FE
:1029C0000023C7E9062300237B6128E03A697B697D
:1029D00013441B78DBB2002298469146D7E90623C0
:1029E00082EA080A83EA090BC7E906ABFB6940F2F1
:1029F000B31203FB02F2BB694FF4807101FB03F3D6
:102A00001344BA6940F2B311A2FB01452B441D46A1
:102A1000C7E90645C7E906457B6901337B617B69E8
:102A20000B2BD3D9D7E90623104619462037BD46CC
:102A3000BDE8B08FAFF30080B233DE2BB00F65146A
:102A40002DE9F04387B000AF786039607B68002BD8
:102A500042D03B68002B3FD03B68122B03D87B68E9
:102A600000221A7039E0FFF797FFC7E902017B687F
:102A700058221A707B68013343221A7000237B614D
:102A800022E07B69C3F10F039900D7E90223C1F16A
:102A90002006A1F1200022FA01F403FA06F63443DD
:102AA00023FA00F0044323FA01F504F00F084FF075
:102AB00000097B6902337A6813440A4A4244127857
:102AC0001A707B6901337B617B690F2BD9D97B68D5
:102AD000123300221A7000E000BF1C37BD46BDE86B
:102AE000F08300BF44A1020880B58CB000AF7860CD
:102AF000002387F82F307B68002B01D1002336E0BC
:102B000007F1080318211846FFF79AFF7868FDF7C8
:102B1000F1FB786207F108031846FDF7EBFB38621A
:102B20007A6A3B6A9A4201D0002320E00023BB620C
:102B300012E07A68BB6A13441A7807F10801BB6A8D
:102B40000B441B785340DAB297F82F30134387F8C1
:102B50002F30BB6A0133BB62BA6A3B6A9A42E8D340
:102B600097F82F30002B01D1012300E000231846F5
:102B70003037BD4680BD80B5AAB000AFF860B960FF
:102B80007A603B60FB68002B08D0BB68002B05D047
:102B90007B68002B02D03B68002B01D100237DE035
:102BA000B868FDF7A7FBC7F89C00FB68C7F8A4301E
:102BB0006CE0D7F8A420FB689A4205D0D7F8A4307F
:102BC000013B1B78262B51D1D7F89C20B968D7F848
:102BD000A40022F02BFB0346002B47D1D7F8A420FA
:102BE000D7F89C3013441B783D2B3FD1D7F89C304D
:102BF0000133D7F8A4201344C7F898302621D7F81A
:102C0000980022F006FBC7F89400D7F89430002B08
:102C100005D1D7F89800FDF76DFB034604E0D7F81F
:102C20009420D7F89830D31AC7F8A030D7F8A0303E
:102C30007F2B02D97F23C7F8A03007F11403D7F800
:102C4000A020D7F89810184622F08BFB07F1140249
:102C5000D7F8A030134400221A7007F114033A6821
:102C60007968184602F056FF034617E02621D7F888
:102C7000A40022F0CEFAC7F8A400D7F8A430002BA5
:102C80000AD0D7F8A4300133C7F8A430D7F8A4305D
:102C90001B78002B8DD100E000BF00231846A83719
:102CA000BD4680BD80B58AB000AFF860B9607A607B
:102CB0003B60FB68002B08D0BB68002B05D07B680D
:102CC000002B02D03B68002B01D1002379E0B868CB
:102CD000FDF710FBB8613D49F86822F0B9FA786257
:102CE00067E07B6A02337B627B6A1B780D2B04D121
:102CF0007B6A01331B780A2B5FD03449786A22F053
:102D0000A7FAF861FB69002B59D0FA697B6AD31ADC
:102D10001A46BB6993424AD27A6ABB6913441B784C
:102D20003A2B44D1BA69B968786A02F04BFD034680
:102D3000002B3CD1BB6901337A6A13443B6202E049
:102D40003B6A01333B623A6AFB699A420BD23B6AA7
:102D50001B78202BF4D03B6A1B78092BF0D002E0C3
:102D6000FB69013BFB61FA693B6A9A4209D9FB693D
:102D7000013B1B78202BF3D0FB69013B1B78092B0F
:102D8000EED0FA693B6AD31A7B617A693B689A4252
:102D900001D3002315E07A69396A786822F0E1FAF4
:102DA0007A687B69134400221A70012309E0FB69E9
:102DB0007B627B6A002B94D102E000BF00E000BF81
:102DC000002318462837BD4680BD00BFE86C0208C6
:102DD00080B590B000AFF860B9607A603B60FB6886
:102DE000FB63FB68002B05D07B68002B02D03B689F
:102DF000002B01D100238BE0F86801F023FA034691
:102E0000002B10D0F868FDF775FA02463B68934234
:102E100001D800237CE0FB683F4A3968786822F0DB
:102E20001FF9012374E0BB68002B07D0B868FFF7D7
:102E30005BFE0346002B57D1002369E0052237498A
:102E4000F86802F0BFFC0346002B01D000235FE0CE
:102E5000FB6805333B21184622F0DBF978637B6B76
:102E6000002B01D1002353E0FB6805337A6BD31AA2
:102E7000BB6302E0BB6B013BBB63BB6B002B0DD0A4
:102E8000BB6B0433FA6813441B78202BF2D0BB6B66
:102E90000433FA6813441B78092BEBD0BB6B002B6F
:102EA00002D0BB6B1F2B01D9002331E0FB68591DF9
:102EB00007F11403BA6B184622F053FA07F1140213
:102EC000BB6B134400221A7007F114031846FFF776
:102ED0000BFE0346002B01D1002319E07B6B01336D
:102EE000184602F0B9FCF863FB6B1B78002B06D088
:102EF000F86BFDF7FFF902463B68934201D80023C7
:102F000006E0FB6B044A3968786822F0A9F80123CF
:102F100018464037BD4680BD94760208386F0208D7
:102F200080B588B000AFF860B9607A600023FB61BB
:102F30000023FB762DE07A68FB69D31A7B617B69FD
:102F4000B3F5806F02D94FF480637B61BA68FB6987
:102F5000D11800237A69F86815F0C0FC38613B6924
:102F6000002B10DCFB7E0133FB76FB7E072B06D9A2
:102F70000C4B1B6801330B4A136000230EE0022048
:102F80000EF01DFC05E03B69FA691344FB61002368
:102F9000FB76FA697B689A42CDD301231846203725
:102FA000BD4680BD2C05002480B5B0B002AFF860EE
:102FB000B9607A607868FDF79DF9C7F8B40007F149
:102FC0001000D7F8B4300093BB68104AA02122F05B
:102FD00047F8C7F8B000D7F8B030002B11DDD7F8AC
:102FE000B0309F2B0DD8D7F8B02007F11003194649
:102FF000F868FFF795FFD7F8B4207968F868FFF70D
:103000008FFF00BFB837BD4680BD00BF406F0208CC
:1030100080B5ACB000AF786039603868FDF76AF908
:10302000C7F8AC0007F10800D7F8AC300F4AA02170
:1030300022F016F8C7F8A800D7F8A830002B11DD49
:10304000D7F8A8309F2B0DD8D7F8A82007F1080390
:1030500019467868FFF764FFD7F8AC2039687868BC
:10306000FFF75EFF00BFB037BD4680BD906F02081E
:1030700080B5B4B000AF786007F10C0017230F4A99
:10308000C02121F0EDFFC7F8CC00D7F8CC30002BE1
:1030900010DDD7F8CC30BF2B0CD8D7F8CC2007F1F7
:1030A0000C0319467868FFF73BFF1722044978683C
:1030B000FFF736FF00BFD037BD4680BD0070020865
:1030C00058A1020880B582B000AF7860412204495F
:1030D0007868FFF725FF00BF0837BD4680BD00BFF9
:1030E00070A1020880B59AB008AF786007F130038C
:1030F000142219462448FFF7B5F907F11C031422DE
:1031000019462248FFF7AEF907F1080314221946C1
:103110001F48FFF7A7F91C4B9B8919461A4B9B893F
:1031200007F1300207935023069307F10803059334
:1031300007F11C03049307F130030393029107F195
:103140000803019307F11C0300931346114A4FF43F
:10315000C051114821F084FF78647B6C002B03DBA5
:103160007B6CB3F5C05F04D30C497868FFF750FF60
:1031700007E07B6C0A4A1360074A0A497868FFF740
:1031800013FF4837BD4680BD2803002430030024C8
:103190002C030024B4A102083C0500248870020816
:1031A000380500249870020880B58EB000AFF86032
:1031B000B9607A603B60BB68002B09D07B68012B4B
:1031C00006D93B68002B03DD3B687A689A4202D837
:1031D0004FF0FF3360E000237B633B68BA68134421
:1031E00000221A702E49B86822F032F838633B6B1F
:1031F000002B30D000233B613B6B1A1DBB68D31AF8
:10320000FB6207F1140210232649B868FFF74AFD54
:103210000346002B10D07A68FB6AD31A591E07F1B7
:10322000100207F11403184602F066FB0346002B58
:1032300002D14FF0FF332FE03B69FA6A13447B63FE
:103240003B687A6B9A4206D8BA687B6B13440022BB
:103250001A707B6B20E07B685A1E3B689A4202D84A
:103260004FF0FF3318E03B687A68D31A013BBB622A
:103270003B68BA68D118BA6A0023F86815F018FBE1
:1032800078627B6A002B02DC4FF0FF3304E03A687F
:103290007B6A13443B609EE718463837BD4680BDC5
:1032A000B4700208BC70020880B5ADF5647D02AF51
:1032B00007F56273A3F561731860112202210220E1
:1032C00015F014FCC7F88403D7F88433002B04DA14
:1032D0004FF47A700EF073FA9CE007F55C731022DD
:1032E0000021184621F08DFF022387F87133002357
:1032F000C7F87433484B9B89184616F005FA034605
:10330000A7F872334FF001024FF00003C7E9D8234A
:103310000023C7F8683307F558731022009241F272
:10332000060240F6FF71D7F8840315F0F5FD07F5A6
:103330005C7310221946D7F8840314F0B1FE0346DB
:10334000002B08D0D7F8840314F00AFF4FF47A70EA
:103350000EF035FA5EE0304B9A89304B1A804FE020
:103360001023C7F84C3307F1CC0107F553730193D1
:1033700007F5547300930023FF22D7F8840315F058
:1033800009FAC7F88003D7F88033002B38DD07F53A
:103390006273A3F52F72D7F88033134400221A709A
:1033A00007F10C0207F1CC00C0230021FFF710FD4C
:1033B0000346002B09D007F5E67107F10C034FF423
:1033C000C072184600F0C2FF07E007F5E673144A22
:1033D0004FF4C071184621F043FE07F5E673184616
:1033E000FCF788FF0246D7F84C3307F5E6710193E6
:1033F00007F5547300930023D7F8840315F0D0FA2F
:10340000054B9A89054B1B889A42A9D0D7F88403AB
:1034100014F0A6FE51E700BF280300241C05002479
:10342000CC70020890B5ADF23C4D04AF07F5856352
:10343000A3F22443186007F58563A3F5856319603B
:103440000023C7F8203407F58563A3F59873184661
:1034500020231A46002121F0D4FE07F5467307F514
:10346000836207F58561A1F58560B349006821F0A5
:103470002DFE0346022B08D007F58563A3F22443F3
:10348000AE491868FFF7C4FD02E207F546733F2115
:10349000184621F0BEFEC7F82004D7F82034002BD0
:1034A00006D0D7F820345A1CC7F8202400221A70FE
:1034B00007F58563A3F58563A149186821F0C8FE67
:1034C000C7F82404D7F82434002B04D0D7F82434C8
:1034D0000433C7F8243407F53E7207F58563A3F576
:1034E0008560202397490068FFF7DCFB07F54673EA
:1034F00095491846FCF7F4FE0346002B19D107F551
:1035000083639249184602F013F90346002B07D152
:1035100007F58563A3F224431868FFF7E3FDB7E1DD
:1035200007F58563A3F2244389491868FFF770FD06
:10353000AEE107F5467387491846FCF7D1FE03460E
:10354000002B07D107F58563A3F224431868FFF722
:10355000B9FD9DE107F546737F491846FCF7C0FEAB
:103560000346002B40F0408107F583637B491846F2
:1035700002F0DEF80346002B40F0CC8007F53E73E6
:103580001846FFF7B1FA0346002B07D107F585630C
:10359000A3F224431868FFF76BFD79E1D7F82434D0
:1035A000002B57D007F5297218236D49D7F824044A
:1035B000FFF7E1FA0346002B4CD007F523721823DE
:1035C0006849D7F82404FFF7D6FA0346002B41D008
:1035D00007F51D7218236449D7F82404FFF7CBFAC6
:1035E0000346002B36D007F51A720C235F49D7F833
:1035F0002404FFF7C0FA0346002B2BD007F51972FD
:1036000007F5297311461846FEF7BAFE0346002B4C
:1036100020D007F5187207F5237311461846FEF7F8
:10362000AFFE0346002B15D007F5177207F51D7383
:1036300011461846FEF7A4FE0346002B0AD007F2F7
:103640004A2207F51A731146184602F027F9034675
:10365000002B08D107F58563A3F224434449186879
:10366000FFF7D6FC14E107F58563A3F5E2731A684A
:1036700007F58563A3F5EE731A6007F58563A3F577
:10368000E4731A6807F58563A3F5EE739A6007F58E
:103690008563A3F5E6731A6807F58563A3F5EE73F2
:1036A0005A6007F58563A3F5EF731A8807F58563FC
:1036B000A3F5EE739A8107F58563A3F5EE739C89F4
:1036C00007F513731A1D07F5137303F1080107F5C6
:1036D00013702346FEF7FEFD0346002B07D007F5C7
:1036E0001373184601F08AFE0346002B08D107F534
:1036F0008563A3F224431E491868FFF789FCC7E0DD
:1037000007F58563A3F224431A4A1B491868FFF79B
:103710004BFCBDE007F583630C49184602F008F83E
:103720000346002B2AD007F58563A3F224430849FA
:103730001868FFF76DFCABE0F0700208FC7002083F
:10374000B4700208087102081471020818710208A6
:103750001C71020830710208407102084C710208A5
:1037600068980208547102085C71020860710208CE
:1037700068710208807102089C71020807F53973AC
:10378000142219464448FEF76DFE07F534731422DF
:1037900019464248FEF766FE07F52F7314221946B4
:1037A0003F48FEF75FFE3C4B9B89194607F539728F
:1037B00007F1C80050230393029107F52F7301937B
:1037C00007F5347300931346364A4FF4807121F0A5
:1037D00047FC07F1C80207F58563A3F22443324989
:1037E0001868FFF7E1FB53E007F546732F491846C9
:1037F000FCF776FD0346002B42D107F583632C4985
:10380000184601F095FF0346002B08D1D7F8243461
:10381000002B04D0D7F824341B78002B08D107F5EF
:103820008563A3F2244323491868FFF7F1FB2FE0D7
:1038300007F1080207F53E71C023D7F82404FFF70B
:10384000C7FA0346002B07D107F58563A3F224438B
:103850001868FFF70DFC1BE007F1C80107F108032A
:103860004FF4C072184600F071FD07F1C80207F569
:103870008563A3F2244310491868FFF795FB07E01E
:1038800007F58563A3F224430C491868FFF7C0FBD2
:1038900007F22C47BD4690BD2803002430030024C6
:1038A0002C030024B871020800720208207202087A
:1038B0004C7102082C7202089C71020848720208BE
:1038C00080B5ADF58A6D02AF07F58963A3F2444375
:1038D00018600123C7F82034844B00221A70062296
:1038E0000121022015F002F9C7F84404D7F8443446
:1038F000002B09DA7E4B1B6801337D4A13604FF4BD
:103900007A700DF05CFFEFE007F58463042200920B
:10391000042240F6FF71D7F8440415F0FDFA07F2CF
:10392000244310220021184621F06BFC022387F863
:1039300025340023C7F82834502015F0E5FE03464F
:10394000A7F8263407F2244310221946D7F8440476
:1039500014F0A6FB0346002B07D10421D7F844043A
:1039600014F058FC0346002B0DD0D7F8440414F093
:10397000F7FB5F4B1B6801335D4A13604FF47A70AD
:103980000DF01DFFB0E0594B01221A7000220021FA
:10399000D7F8440414F078FAC7F84004D7F8403454
:1039A000002BC0F290800123C7F80C344FF00002C6
:1039B0004FF0000307F58261C1E900234D4BC7F8C2
:1039C000183407F20C430422009201220621D7F892
:1039D000400415F0A1FA07F582631022009241F22B
:1039E000060240F6FF71D7F8400415F095FA4FF043
:1039F00000024FF0000307F58261C1E900233E4B4E
:103A0000C7F8183407F582631022009241F20502CC
:103A100040F6FF71D7F8400415F07EFA07F10C016B
:103A2000002340F2FF32D7F8400414F041FFC7F8FA
:103A30003C04324B1B680133304A1360D7F83C34E6
:103A4000002B3BDD0DF016FEC7F838042C4B1B682D
:103A500001332B4A136007F10C01D7F83C344FF4C3
:103A60008062D7F84004FFF79FFBC7F83C04D7F803
:103A70003C34002B07DD07F10C031946D7F840044E
:103A8000FFF7D0FC04E01F49D7F84004FFF7C0FA65
:103A90000DF0F0FD0246D7F83834D31AC7F83434A5
:103AA000194AD7F834341360184B1B68D7F83424FC
:103AB0009A4203D9154AD7F834341360D7F8400432
:103AC00014F04EFB62E700BF084B00221A70D7F8D3
:103AD000440414F045FB064B1B680133044A136091
:103AE0004FF47A700DF06BFEF3E600BF1F05002463
:103AF00020050024400D030020A107002405002418
:103B000028050024547202083005002434050024DE
:103B100080B500AF00F002F800BF80BD80B592B064
:103B200000AF07F1240324220021184621F069FB8D
:103B3000204B7B624FF4C053BB631823FB633B46AF
:103B400024220021184621F05CFB1B4B3B604FF404
:103B500000537B611823BB61184B1B68002B10D1ED
:103B600007F124031A46002115480DF097FD03467E
:103B7000124A1360114B1B68002B02D10020FDF785
:103B80009FFF104B1B68002B0FD13B461A460021AC
:103B90000D480DF083FD03460A4A1360094B1B686C
:103BA000002B02D10020FDF78BFF00BF4837BD4638
:103BB00080BD00BF747202088072020814050024E0
:103BC000A932000818050024C138000880B400AFED
:103BD000074B1B68002B03D0064B1B68002B02D140
:103BE000054B01221A7000BFBD465DF8047B70478B
:103BF00014050024180500241E05002480B500AF1C
:103C0000054B1B78DBB2002B04D0034B00221A704B
:103C1000FFF784FF00BF80BD1E0500242DE9F041A1
:103C2000A4B014AFF863B963404B1B7898463F4B80
:103C30005B78FB623D4B9B78BB623C4BDB787B62E5
:103C40003B4B93F82D3003F00103DBB2002B02D085
:103C500001237B6301E000237B63354B93F82D3018
:103C60009B0803F00103DBB2002B02D001233B636E
:103C700001E000233B632F4B1B78DBB23B622E4BF2
:103C80001A68FA612D4B1968B9612D4B1868786173
:103C90002C4B1C683C612C4B1D68FD602B4B1E6837
:103CA000BE602B4B1B687B602A4B5E68294B1D68EE
:103CB000294804F08BF80446274804F094F801469C
:103CC000254B1B6803F58053D3F86021224B1B68FA
:103CD000D3F800321293119210910F940E950D9615
:103CE0007B680C93BE680B96FD680A953C69099445
:103CF00078690890B9690791FA6906923B6A059359
:103D00003B6B04937B6B03937B6A0293BB6A0193C7
:103D1000FB6A00934346114AB96BF86B21F0A0F996
:103D200000BF4037BD46BDE8F08100BF2803002436
:103D3000FC1D00241F050024240500242805002460
:103D4000200500242C05002430050024340500241F
:103D5000380500243C1F00248C1E00248C720208AD
:103D6000F0B597B00AAF786139614FF0FF337B62ED
:103D70004FF0FF333B624FF0FF33FB614FF0FF33F7
:103D8000BB614FF0FF33FB622D4B1B68BB622C4BBA
:103D90005B68002B22D0BB6A1F2B1FD807F12403BE
:103DA0000122B96A274803F02BFD07F12003022204
:103DB000B96A244803F024FD07F11C030322B96A01
:103DC000204803F01DFD07F118031F22B96A1D48A2
:103DD00003F016FD1A4801F0C5FFF862184B5B6846
:103DE000FB607C6A3D6AFE69BA69BA60154803F0F7
:103DF000EDFF7860134803F0F6FF0146114B1B6896
:103E000003F58053D3F860310E4A1268D2F80022CD
:103E100009920893079179680691BA680592049609
:103E200003950294FB6A0193BB6A0093FB68064A00
:103E30003969786921F014F900BF3437BD46F0BD07
:103E40003C1F00248C1E002470730208B0B588B09B
:103E500006AF786039607B68002B30D03B68002B60
:103E60002DD0194B93F82C30062B05D0174A396802
:103E7000786821F0F5F823E0134B93F826301D46BF
:103E8000114B93F827301A460F4B93F828301946F8
:103E90000D4B93F8293018460B4B93F82A301C46EB
:103EA000094B93F82B3004930394029001910092F4
:103EB0002B46074A3968786821F0D2F800E000BF45
:103EC0000837BD46B0BD00BFFC1D002404740208C5
:103ED0001074020880B584B000AF134B1B68002B30
:103EE00015D13B4600221A605A609A60DA600F4B87
:103EF0003B603B4618460DF07CFC03460A4A1360C3
:103F0000094B1B68002B02D10020FDF7D9FD0022D0
:103F10000821074806F012FA064B00221A7000BF6B
:103F20001037BD4680BD00BFC81D00243074020894
:103F3000001002583C1D002480B582B000AF402321
:103F40007B60294B1B68002B49D0274B1B68002145
:103F500018460DF0D3FC0346002B40D127E0FB7838
:103F60000D2B02D0FB780A2B12D1204B1B88002B83
:103F70001DD01E4B1B881A461D4B002199541D4B0A
:103F80001B6801331B4A1360184B00221A800EE095
:103F9000164B1B8801337F2B09D8144B1B885A1CE6
:103FA00091B2124A11801A46F978114B99547B68E4
:103FB0005A1E7A60002B08D0F91C002301220E48FB
:103FC00009F096FE0346002BC9D0074B1B68002B57
:103FD00006D0054B1B6818460DF0DAFC00E000BF68
:103FE0000837BD4680BD00BFC81D0024C41D002485
:103FF0003C1D0024BC1D00247402002480B584B044
:1040000000AF78607B68002B01D1002348E0264B8D
:104010001B68002B09D0244B1B684FF0FF3118465A
:104020000DF06CFC0346002B01D0002338E0012288
:1040300008211E4806F082F97868FCF75BF9034610
:104040009AB24FF4FA737968194809F0B8FD03463B
:10405000FB73FB7B002B07D1322302221549144846
:1040600009F0ADFD0346FB73002208210F4806F05E
:1040700065F9FB7B002B04D10F4B1B6801330E4A03
:104080001360094B1B68002B04D0074B1B681846B4
:104090000DF07EFCFB7B002B01D1012300E000230F
:1040A00018461037BD4680BDC81D002400100258B8
:1040B00074020024E86C0208C01D002480B586B09C
:1040C00002AF78603960134B1B68002B06D0114B90
:1040D0001B684FF0FF3118460DF010FC0E4B1B68AB
:1040E000FB600E4B1B68BB600A4B1B68002B04D0A7
:1040F000084B1B6818460DF04BFCBB680093FB682F
:10410000074A3968786820F0ABFF00BF1037BD461A
:1041100080BD00BFC81D0024C01D0024BC1D00249C
:104120003C74020880B5A2B000AF78603960174BCC
:104130001B68002B06D0154B1B684FF0FF3118464B
:104140000DF0DCFB124A07F10803114680221846E5
:1041500021F007F90D4B1B68002B04D00B4B1B689B
:1041600018460DF015FC002387F887303B7A002BAA
:1041700002D007F1080300E0064B074A3968786867
:1041800020F06EFF00BF8837BD4680BDC81D0024EB
:104190003C1D0024A06D02089476020880B584B00E
:1041A00000AF0F4B1B68002B15D13B4600221A6055
:1041B0005A609A60DA600B4B3B603B4618460DF044
:1041C00018FB0346064A1360054B1B68002B02D1FF
:1041D0000020FDF775FC00BF1037BD4680BD00BF55
:1041E000CC1D00245074020890B589B000AFF8606F
:1041F000B9607A607B80FB681B683B61BB681B68A9
:10420000BB617B681B687B617B88BB83BC8B07F1D0
:1042100010031A1D07F1100303F1080107F1100044
:104220002346FEF757F80346002B01D1002305E093
:1042300007F11003184601F0E1F803461846243749
:10424000BD4690BD80B5B4B000AF78607B68002BF0
:1042500001D1002335E007F108007B681B4AC0212B
:1042600020F0FEFE07F10803184601F023FAC7F814
:10427000C8000023C7F8CC3013E0154AD7F8CC307B
:1042800052F823301946D7F8C80001F051FA034616
:10429000002B01D1012314E0D7F8CC300133C7F84B
:1042A000CC30D7F8CC30142BE7D90A220949D7F8FB
:1042B000C80001F087FA0346002B01D1012300E07A
:1042C00000231846D037BD4680BD00BF9476020853
:1042D00020B402085C74020880B596B004AF786020
:1042E000396007F13403142219461448FEF7BAF86E
:1042F00007F12003142219461148FEF7B3F807F11D
:104300000C03142219460F48FEF7ACF80B4B9B899F
:10431000194607F1340250230393029107F10C036D
:10432000019307F1200300931346074A3968786820
:1043300020F096FE00BF4837BD4680BD280300240C
:104340002C030024300300246874020880B5ADF506
:104350002C7D04AF07F52873A3F52573186007F5C6
:104360002873A3F52673196007F52873A3F527733F
:104370001A60002387F89E3207F52873A3F5267389
:104380001B68002B00F0F98507F52873A3F5277348
:104390001B68002B00F0F18507F52873A3F5267341
:1043A0001B6800221A7007F52873A3F525731B6894
:1043B000002B0ED107F52873A3F5277107F5287395
:1043C000A3F52673C84A0968186820F049FE00F072
:1043D000D5BD07F52873A3F5257307F5E2701B68B3
:1043E000C24AC02120F03CFE07F5E273184601F0F6
:1043F00061F9C7F89802D7F898321B78002B0ED1D4
:1044000007F52873A3F5277107F52873A3F526731D
:10441000B54A0968186820F023FE00F0AFBDB44B20
:104420001B68002B0ED107F52873A3F5277107F53C
:104430002873A3F52673AF4A0968186820F010FEA8
:1044400000F09CBDAA4B1B684FF0FF3118460DF0E1
:1044500055FA0346002B0ED007F52873A3F52771F4
:1044600007F52873A3F52673A24A0968186820F097
:10447000F7FD00F083BD012387F89E329E49D7F8EF
:10448000980201F055F90346002B07D09B49D7F855
:10449000980201F04DF90346002B0FD107F5287360
:1044A000A3F5277107F52873A3F52670944B8F4A5F
:1044B0000968006820F0D4FD00F055BD9149D7F897
:1044C000980201F035F90346002B0ED107F5287349
:1044D000A3F5277107F52873A3F526738A4A09689F
:1044E000186820F0BDFD00F03EBD8849D7F898025D
:1044F00001F01EF90346002B0ED107F52873A3F532
:10450000277107F52873A3F52673814A096818688F
:1045100020F0A6FD00F027BD7E49D7F8980201F0F3
:1045200007F90346002B10D1FDF758FA07F5287359
:10453000A3F5277107F52873A3F52673744A096854
:10454000186820F08DFD00F00EBD7349D7F8980271
:1045500001F0EEF80346002B0ED107F52873A3F502
:10456000277107F52873A3F526736C4A0968186844
:1045700020F076FD00F0F7BC6949D7F8980201F009
:10458000D7F80346002B0ED107F52873A3F5277142
:1045900007F52873A3F52673624A0968186820F0A6
:1045A0005FFD00F0E0BC6049D7F8980201F0C0F868
:1045B0000346002B3ED107F1380350211846FDF782
:1045C00035FD07F1880350211846FFF777FD07F105
:1045D000D8035021184600F043FD07F59473782165
:1045E0001846FFF779FEFEF799F8034607F1100029
:1045F0004E4A282120F034FD07F5947207F5287300
:10460000A3F5277107F52873A3F5267007F11003AA
:10461000039307F1D803029307F18803019307F18D
:10462000380300931346424A0968006820F018FDD9
:1046300000F099BC3F49D7F8980201F079F8034699
:10464000002B0ED107F52873A3F5277207F5287301
:10465000A3F52673126819683748FDF703FF00F0C9
:1046600082BC07223549D7F8980201F0ABF803461F
:10467000002B6DD1D7F898320733184601F0ECF8CB
:10468000024607F5E07319461046FDF779FE03462A
:10469000002B19D0284B9B8907F5E070284A29493F
:1046A000FFF7A2FD0346002B0ED007F52873A3F5F4
:1046B000277107F52873A3F52673234A096818683C
:1046C00020F0CEFC00F04FBC07F52873A3F527714E
:1046D00007F52873A3F526731C4A0968186820F0AB
:1046E000BFFC00F040BC00BF8C7402089476020846
:1046F000CC1D0024A8740208D0740208D8740208E3
:10470000E0740208007502080875020810750208B6
:10471000207C020818750208207502082C75020812
:10472000506E02083C750208AC78020878760208E0
:10473000887602089876020828030024A0760208EA
:104740002C0300243003002480710208A87602089C
:10475000C049D7F8980200F0EBFF0346002B11D1B7
:10476000BD4B9B891A4607F52873A3F5277107F5FA
:104770002873A3F526701346B84A0968006820F02C
:104780006FFCF0E3B649D7F8980200F0D1FF03467A
:10479000002B0DD107F52873A3F5277207F52873B1
:1047A000A3F5267312681968AE48FDF75BFEDAE3DD
:1047B0000922AD49D7F8980201F004F80346002B0E
:1047C00036D1D7F898320933184601F045F8024639
:1047D00007F5DE7319461046FDF7D2FD0346002BA0
:1047E00018D09D4B9B8907F5DE71A04A9A48FFF7C8
:1047F000FBFC0346002B0DD007F52873A3F52771AA
:1048000007F52873A3F52673994A0968186820F0FC
:1048100027FCA8E307F52873A3F5277107F528738C
:10482000A3F52673934A0968186820F019FC9AE3E7
:104830009149D7F8980200F07BFF0346002B0DD179
:1048400007F52873A3F5277207F52873A3F52673D8
:10485000126819688548FDF705FE84E30922874937
:10486000D7F8980200F0AEFF0346002B36D1D7F8F8
:1048700098320933184600F0EFFF024607F5DC7363
:1048800019461046FDF77CFD0346002B18D0724BED
:104890009B8907F5DC7273496F48FFF7A5FC034657
:1048A000002B0DD007F52873A3F5277107F52873A2
:1048B000A3F526736E4A0968186820F0D1FB52E30D
:1048C00007F52873A3F5277107F52873A3F5267359
:1048D0006B4A0968186820F0C3FB44E30922694960
:1048E000D7F8980200F06EFF0346002B35D1D7F8B9
:1048F00098320933184600F0AFFF024607F5DB7324
:104900001946104600F0CAFF0346002B17D0B7F82F
:10491000B631564A53495048FFF766FC0346002B10
:104920000DD007F52873A3F5277107F52873A3F5B4
:1049300026734F4A0968186820F092FB13E307F5C5
:104940002873A3F5277107F52873A3F526734E4A3C
:104950000968186820F084FB05E34C49D7F89802F1
:1049600000F0E6FE0346002B0CD107F52873A3F5F3
:10497000277207F52873A3F5267311681868FFF7E7
:10498000ABFCF0E24249D7F8980200F0D1FE0346B2
:10499000002B07D03F49D7F8980200F0C9FE034624
:1049A000002B0CD107F52873A3F5277207F52873A0
:1049B000A3F5267311681868FFF730F9D3E236497A
:1049C000D7F8980200F0B4FE0346002B0CD107F58F
:1049D0002873A3F5277207F52873A3F526731168CA
:1049E0001868FFF7BDF9BEE22C49D7F8980200F02D
:1049F0009FFE0346002B07D02949D7F8980200F004
:104A000097FE0346002B0FD1FFF7E0F807F5287358
:104A1000A3F5277107F52873A3F52673214A0968C2
:104A2000186820F01DFB9EE21F49D7F8980200F09D
:104A30007FFE0346002B39D107F52873A3F52772B3
:104A400007F52873A3F5267311681868FFF7FEF9B8
:104A500089E200BFC0760208280300248874020897
:104A6000CC76020830030024D87602082C030024F8
:104A700080710208E4760208007702080C770208C9
:104A8000187702083477020840770208587702083E
:104A9000647702087077020874770208807702084A
:104AA0008C77020898770208A4770208CB49D7F8D8
:104AB000980200F03DFE0346002B0CD107F5287349
:104AC000A3F5277207F52873A3F5267311681868F4
:104AD000FDF70AF947E20A22C149D7F8980200F027
:104AE00071FE0346002B31D1D7F898320A331846AD
:104AF00000F0B2FEC7F8840207F2B5131946D7F8E2
:104B00008402FDF7CAF80346002B11D097F8B5319F
:104B10001A4607F52873A3F5277107F52873A3F53F
:104B200026701346AF4A0968006820F099FA1AE225
:104B300007F52873A3F5277107F52873A3F52673E6
:104B4000A94A0968186820F08BFA0CE20922A749E3
:104B5000D7F8980200F036FE0346002B40F08E8016
:104B6000D7F898320933C7F88C322C21D7F88C0249
:104B700020F04FFBC7F88802D7F88832002B6FD09F
:104B8000D7F8883200221A70D7F88C0200F092FD14
:104B9000C7F88C02D7F888320133184600F08AFD36
:104BA000C7F888029249D7F8880200F0C1FD034691
:104BB000002B09D101220021D7F88C02FDF73AF829
:104BC000034687F89F3231E08A49D7F88802FBF71D
:104BD00087FB0346002B07D08749D7F88802FBF7ED
:104BE0007FFB0346002B11D1D7F888321B78312B7D
:104BF00001D1012300E0002300221946D7F88C02DE
:104C0000FDF718F8034687F89F320FE007F5287381
:104C1000A3F5277107F52873A3F52673774A09686A
:104C2000186820F01DFA022387F89F3297F89F3208
:104C3000022B00F0988197F89F32002B01D0704B27
:104C400000E0694B07F52872A2F5277107F5287275
:104C5000A2F526706B4A0968006820F001FA82E12B
:104C600007F52873A3F5277107F52873A3F52673B5
:104C7000654A0968186820F0F3F974E16349D7F8C8
:104C8000980200F055FD0346002B0CD107F5287360
:104C9000A3F5277207F52873A3F526731168186822
:104CA000FDF7C4F95FE15A49D7F8980200F040FDDA
:104CB0000346002B0CD107F52873A3F5277207F5DF
:104CC0002873A3F5267311681868FDF7D9F94AE12E
:104CD00009225049D7F8980200F074FD0346002BD2
:104CE00067D1D7F898320933C7F894322C21D7F816
:104CF000940220F08EFAC7F89002002387F8AB31B7
:104D0000D7F89032002B0DD107F52873A3F5277142
:104D100007F52873A3F526733B4A0968186820F045
:104D20009FF920E1D7F8903200221A70D7F8940248
:104D300000F0C0FC07F5D2731A466FF0604100F036
:104D4000DBFD0346002B26D0D7F89032581C07F223
:104D5000AB1307F5D671082200F00AFE0346002BBC
:104D600019D0D7F8A43197F8AB2107F5D6711846BA
:104D7000FDF7F8F80346002B0DD007F52873A3F5CF
:104D8000277107F52873A3F526731D4A096818686B
:104D900020F066F9E7E007F52873A3F5277107F51A
:104DA0002873A3F526731C4A0968186820F058F97F
:104DB000D9E01A49D7F8980200F0BAFC0346002B54
:104DC0002ED107F52873A3F5277207F52873A3F5ED
:104DD000267311681868FFF771F9C4E0B07702080C
:104DE0005C74020888740208BC770208D477020851
:104DF000D46D020868930208E0770208E47702089D
:104E0000207C0208947602080878020828780208B4
:104E1000347802083C78020848780208647802086E
:104E20005849D7F8980200F083FC0346002B0CD1B8
:104E300007F52873A3F5277207F52873A3F52673E2
:104E400011681868FFF76EF98DE00B224E49D7F80C
:104E5000980200F0B7FC0346002B1DD1D7F898321A
:104E60000B33184600F0F8FC03461846FFF7C6F867
:104E70000346002B01D0454B00E0454B07F5287257
:104E8000A2F5277107F52872A2F52670414A096834
:104E9000006820F0E5F866E03F49D7F8980200F096
:104EA00047FC0346002B0CD107F52873A3F52772A6
:104EB00007F52873A3F526731168186800F0D0F879
:104EC00051E00A223549D7F8980200F07BFC0346EE
:104ED000002B3BD1002387F8A331D7F8983203F198
:104EE0000A0007F2A31307F1D801202200F040FDC9
:104EF0000346002B1CD097F8A32107F5947107F106
:104F0000D803184600F076F80346002B10D097F827
:104F1000A31107F52873A3F5277307F52872A2F5E7
:104F2000267207F594701B68126800F0A1FD1AE064
:104F300007F52873A3F5277107F52873A3F52673E2
:104F4000174A0968186820F08BF80CE007F52873F9
:104F5000A3F5277107F52873A3F52673114A09688D
:104F6000186820F07DF897F89E32002B06D00E4B83
:104F70001B6818460CF00CFD00E000BF07F5287711
:104F8000BD4680BD707802087C780208207C02084B
:104F90008878020894760208A8780208B478020893
:104FA000C0780208E0780208CC1D002480B500AF6C
:104FB0000E4BDB68072B13D00C4808F063F90B4B42
:104FC0000722DA60094808F039F80346002B03D1BC
:104FD000074B01221A7006E00020FCF771FD02E089
:104FE000034B01221A7000BF80BD00BF5401002492
:104FF000D01D002480B586B002AFF860B9601346BA
:10500000FB71144B1B78002B08D0FB68002B05D0DC
:10501000BB68002B02D0FB79002B01D1002314E0E8
:10502000FB799BB24FF4FA720092BA68F9680A48A9
:1050300008F052F90346002B06D1084B1B680133D8
:10504000064A1360012300E0002318461037BD46CE
:1050500080BD00BFD01D002454010024D41D0024B5
:1050600080B584B002AF78603960084B1B781A466F
:10507000074B1B6800931346064A396878681FF08F
:10508000EFFF00BF0837BD4680BD00BFD01D002424
:10509000D41D0024FC78020880B485B000AF78608D
:1050A0003960104BFB600023BB600FE07A68BB687F
:1050B00013441B781A46FB685340FB60FB680A4A9E
:1050C00002FB03F3FB60BB680133BB60BA683B685B
:1050D0009A42EBD3FB6818461437BD465DF8047B53
:1050E000704700BFC59D1C819301000180B500AFD2
:1050F000094B1B68002B0BD0074B1B684FF0FF318F
:1051000018460CF0FBFB0346002B01D1012300E005
:105110000023184680BD00BFD81D002480B500AF15
:10512000054B1B68002B04D0034B1B6818460CF082
:105130002FFC00BF80BD00BFD81D002480B485B007
:1051400000AF78607B68BB600023FB600CE0FB680D
:105150009B00BA6813441B68B3F1FF3F01D00023E2
:1051600006E0FB680133FB60FB68072BEFD90123E6
:1051700018461437BD465DF8047B704780B584B08F
:1051800000AF78607B681B68164A934207D17B6842
:105190009B88022B03D17B68DB88202B01D0002366
:1051A0001CE01C217868FFF777FFF8607B68DB69FB
:1051B000FA689A4211D17B6803F10C007B6803F115
:1051C00014017B6803F110027B681B8BFDF782F8EA
:1051D0000346002B01D0012300E0002318461037BE
:1051E000BD4680BD3130435880B582B000AF786095
:1051F0007B681B68124A93420ED17B689B88012B07
:105200000AD17B6808330E211846FFF745FF024696
:105210007B689B699A4201D000230DE07B6803F113
:1052200008007B6803F110017B6803F10C027B68C6
:105230009B8AFDF74FF8034618460837BD4680BDE8
:105240003130435880B586B000AF786039600023B4
:105250007B613B6800221A6000233B6126E03A69CB
:10526000184B13445B01FB603B681B68002B08D1A3
:10527000F868FFF763FF0346002B02D0FA683B682B
:105280001A60F868FFF77AFF0346002B0BD07B69A2
:10529000002B06D0FB689A687B699B68D31A002BA9
:1052A00001DDFB687B613B6901333B613B69B3F521
:1052B000005FD4D37B687A691A6000BF1837BD4697
:1052C00080BD00BF00E0400080B588B000AF7860CE
:1052D00007F10C0300221A605A609A60DA601A61C2
:1052E0000023BB600023FB6002233B617B680C4A08
:1052F000934201D8062300E007237B610123BB61B1
:105300002023FB6107F1080207F10C031146184640
:1053100004F0C6FB034618462037BD4680BD00BFDB
:10532000FFFF1D0880B584B000AF0F4B1B68002B3A
:1053300015D13B4600221A605A609A60DA600B4B26
:105340003B603B4618460CF054FA0346064A13608D
:10535000054B1B68002B02D10020FCF7B1FB00BFFE
:105360001037BD4680BD00BFD81D00241479020847
:1053700090B587B000AF78601F4B3B610023FB7591
:105380007B68002B04D0FFF7B1FE0346002B01D150
:1053900000232CE007F1080207F10C031146184620
:1053A000FFF750FFFB68002B0CD0FB687A681446AF
:1053B0000C3307CB20606160A2601B88A3810123AE
:1053C000FB7511E03869FFF70FFF0346002B0BD088
:1053D0007A683B691446083307CB20606160A2609D
:1053E0001B88A3810123FB75FFF798FEFB7D184600
:1053F0001C37BD4690BD00BF00001E08B0B59AB076
:1054000000AF786007F16803603B1F335B095C0104
:10541000012387F863307B68002B11D078687B68A4
:1054200003F108017B681A1D7B689B89FCF752FF1A
:105430000346002B04D0FFF759FE0346002B01D191
:105440000023B7E007F1400207F144031146184674
:10545000FFF7F8FE3B6C7B667B6E002B0BD17B6C01
:10546000002B06D07B6C1A46544B9A4201D8544B01
:1054700000E0544B7B662022002120461FF0C1FE35
:10548000514B23600223A3802023E3807B6C002BFD
:1054900003D07B6C9B68013300E00123A3607A6832
:1054A00004F10C03154628686968AA6807C3AA892D
:1054B0001A801C212046FFF7EFFD0346E36104F04C
:1054C000F1F90346002B1AD1002387F863303B6CB7
:1054D000002B05D1786EFFF7F7FE034687F863309F
:1054E00097F86330002B08D123461A46796E0120C5
:1054F00004F046F9034687F8633004F00DFA334BA5
:105500005B6903F48033002B36D03B6C002B03D156
:105510007A6E2F4B134000E07B6EFB653B6C002BDB
:1055200002D14FF4003300E02023BB65FB6D7B65A7
:10553000BB6D3B653B6D002B1DDD7B6D03F01F02DA
:105540003B6D1344FB647B6DBB64BFF34F8F00BFA7
:105550001E4ABB6CC2F85C32BB6C2033BB64FB6C74
:10556000203BFB64FB6C002BF2DCBFF34F8F00BFD2
:10557000BFF36F8F00BF00BF97F86330002B09D1D6
:105580007B6E1846FFF7FAFD0346002B02D101237C
:1055900087F8633097F86330002B02D00020FCF7C7
:1055A0008FFAFFF7BBFD97F86330002B01D1012381
:1055B00000E0002318466837BD46B0BDFFFF1D0858
:1055C00000001E0800001C083130435800ED00E0C8
:1055D0000000FEFF80B58CB000AF07F10803002289
:1055E0001A605A609A60DA601A6100237B600123B6
:1055F00087F82F30FFF77AFD0346002B01D10023F7
:1056000050E004F04FF90346002B15D10023BB6096
:105610000223FB6006233B6102237B612023BB61E5
:105620003A1D07F108031146184604F039FA0346FB
:1056300087F82F3004F070F91C4B5B6903F480335A
:10564000002B26D01A4BBB624FF480237B627B6A0F
:10565000002B1DDDBB6A03F01F027B6A13443B6213
:10566000BB6AFB61BFF34F8F00BF104AFB69C2F8F2
:105670005C32FB692033FB613B6A203B3B623B6A47
:10568000002BF2DCBFF34F8F00BFBFF36F8F00BF63
:1056900000BFFFF743FD97F82F30002B01D1012306
:1056A00000E0002318463037BD4680BD00ED00E025
:1056B00000001C0880B584B000AF78607B68002BC8
:1056C00004D17B682EE07B6801337B607B681B78AC
:1056D000002B09D07B681B780133144A13441B78D4
:1056E00003F00803002BEED17868FAF703FE0246B8
:1056F0007B681344FB6002E0FB68013BFB60FA68D7
:105700007B689A420AD9FB68013B1B780133074A40
:1057100013441B7803F00803002BEDD1FB68002233
:105720001A707B6818461037BD4680BD31B7020835
:1057300080B487B000AF786039602DE07B685A1C78
:105740007A601B78FB75FB7D01331D4A13441B787F
:1057500003F00303022B02D1FB7D203B00E0FB7D25
:105760003B613B685A1C3A601B78FB73FB7B01333F
:10577000134A13441B7803F00303022B02D1FB7B73
:10578000203B00E0FB7BBB603A69BB689A4203D0D8
:105790003A69BB68D31A0DE07B681B78002B03D0F5
:1057A0003B681B78002BC9D17B681B781A463B6885
:1057B0001B78D31A18461C37BD465DF8047B70472A
:1057C00031B7020880B489B000AFF860B9607A6080
:1057D00033E0FB685A1CFA601B78FB77FB7F0133D0
:1057E0001C4A13441B7803F00303022B02D1FB7FF6
:1057F000203B00E0FB7FBB61BB685A1CBA601B7892
:10580000FB75FB7D0133134A13441B7803F003033C
:10581000022B02D1FB7D203B00E0FB7D3B61BA699E
:105820003B699A4205D1BB69002B02D03B69002B32
:1058300003D1BA693B69D31A05E07B685A1E7A60C6
:10584000002BC6D1002318462437BD465DF8047BE3
:10585000704700BF31B7020880B483B000AF7860F2
:1058600002E07B6801337B607B68002B0DD07B6896
:105870001B78002B09D07B681B780133064A134440
:105880001B7803F00803002BEBD17B6818460C371C
:10589000BD465DF8047B704731B7020880B584B01F
:1058A00000AF786039607B68002B02D03B68002B2A
:1058B00001D100231CE007F1080300221946786893
:1058C0001FF0EEFAF860BB681846FFF7C5FF034605
:1058D000BB60BB681B78002B03D1FB68B3F5803F2E
:1058E00001D3002304E0FB689AB23B681A800123CD
:1058F00018461037BD4680BD80B586B000AFF86051
:10590000B9607A60FB68002B02D07B68002B01D164
:10591000002329E0F868FFF79FFFF860FB681B7819
:10592000002B03D0FB681B782D2B01D100231BE03B
:1059300007F1100300221946F8681FF0B1FA7861E8
:105940003B691846FFF788FF03463B613B691B78BC
:10595000002B03D17A69BB689A4201D9002303E086
:105960007B687A691A60012318461837BD4680BDE6
:1059700080B588B000AFF860B9603B601346FB713A
:105980000023FB77FB68002B05D0BB68002B02D0FF
:105990003B68002B5CD1002364E007F11403002175
:1059A0000A461A800A469A70F868FFF755FFF860B1
:1059B000FB681B78002B50D0FB681B782C2B03D185
:1059C000FB680133FB6043E0FA7FFB799A4209D21E
:1059D000FB681B780133254A13441B7803F044030A
:1059E000002B01D100233DE0FB681B783B75FB6871
:1059F00001331B7801331D4A13441B7803F0440321
:105A0000002B07D0FB6801331B787B75FB680233E2
:105A1000FB6002E0FB680133FB6007F1100107F156
:105A20001403102218461FF03BFAB8613B691B783B
:105A3000002B02D1BB69FF2B01D9002312E0FB7FB1
:105A40005A1CFA771A46BB681344BA69D2B21A7064
:105A5000FB681B78002BA0D100E000BF3B68FA7FF9
:105A60001A70012318462037BD4680BD31B70208A1
:105A700090B58BB002AFF8607A603B600B46FB726A
:105A80000023FB617B68002B3AD03B68002B37D0AA
:105A90007B6800221A700023FB762CE07A68FB6991
:105AA000D0183A68FB69D11AFB7E002B01D1164C45
:105AB00000E0164CFB7EFA6813441B7800932346E3
:105AC000134A1FF0CDFA78617B69002B05DB3A6839
:105AD000FB69D21A7B699A4206D83B68013B7A6817
