:020000040802F0
:1000000000000824F18802081110020819100208E3
:100010002D100208411002085510020800000000CF
:10002000000000000000000000000000617E0308E6
:100030006910020800000000F1800308791002082E
:100040004589020845890208458902084589020850
:100050004589020845890208458902084589020840
:100060004589020845890208458902084589020830
:100070004589020845890208458902084589020820
:100080004589020845890208458902084589020810
:100090004589020845890208458902084589020800
:1000A00045890208458902084589020845890208F0
:1000B00045890208458902084589020845890208E0
:1000C00045890208458902084589020845890208D0
:1000D00045890208458902084589020845890208C0
:1000E0004589020845890208000000004589020888
:1000F00045890208458902084589020845890208A0
:10010000458902084589020845890208458902088F
:10011000458902084589020845890208458902087F
:10012000458902084589020845890208458902086F
:10013000458902089D100208458902084589020880
:1001400000000000000000000000000000000000AF
:10015000458902084589020845890208458902083F
:10016000458902084589020845890208458902082F
:1001700045890208458902084589020800000000F7
:100180004589020845890208B1100208458902081C
:1001900045890208458902084589020845890208FF
:1001A00045890208458902084589020845890208EF
:1001B00045890208458902084589020845890208DF
:1001C00045890208458902084589020845890208CF
:1001D00045890208458902084589020845890208BF
:1001E00045890208458902084589020845890208AF
:1001F000458902084589020845890208458902089F
:10020000458902084589020845890208458902088E
:10021000458902084589020845890208458902087E
:100220004589020845890208458902080000000046
:100230004589020845890208000000004589020836
:10024000458902084589020845890208458902084E
:10025000458902084589020845890208458902083E
:10026000458902084589020845890208458902082E
:1002700045890208458902084589020800000000F6
:1002800045890208458902084589020800000000E6
:0802900000000000458902088E
:1002A00010F8012B11F8013B012A28BF9A42F7D020
:1002B000D01A7047034613F8012B002AFBD1181AF5
:1002C000013870470000000000000000000000003E
:1002D00001F0FF01102A2BDB10F0070F08D010F8F7
:1002E000013B013A8B422DD010F0070F42B3F6D1FB
:1002F000F0B441EA012141EA014122F007047FF014
:1003000000070023F0E80256083C85EA010586EA6A
:10031000010685FA47F5A3FA87F586FA47F6A5FAA6
:1003200087F68EB9EED1F0BC01F0FF0102F00702B2
:1003300032B110F8013B013A83EA010313B1F8D15D
:100340000020704701387047002D06BF354603383E
:10035000073815F0010F07D1013015F4807F02BF77
:10036000013015F4C03F0130F0BC0138704700BFC8
:1003700053B94AB9002908BF00281CBF4FF0FF310C
:100380004FF0FF3000F00CB8ADF1080C6DE904CE71
:1003900029F076FADDF804E0DDE9022304B07047C5
:1003A000704700BF0348044B834202D0034B03B1A4
:1003B00018477047980000249800002400000000AF
:1003C0000548064B1B1AD90F01EBA301491002D0B7
:1003D000034B03B11847704798000024980000248D
:1003E0000000000010B5064C237843B9FFF7DAFF90
:1003F000044B13B10448AFF300800123237010BDF8
:10040000A000002400000000A09B040808B5054BD4
:100410001BB105490548AFF30080BDE80840FFF770
:10042000CFBF00BF00000000A4000024A09B040870
:1004300080B500AF2F4B304A1A602E4B00229A60D5
:100440002C4B0022DA602B4B00221A74294B00221D
:100450005A74284B00229A74264B10225A61254B5D
:1004600001229A61234B0122DA61224B01221A6296
:10047000204B01225A621F4B01229A621D4B01221E
:10048000DA621C4B01221A631A4B00225A63194B81
:1004900000229A63174B0022DA63164B00221A647B
:1004A000144B04225A64134B00229A64114B042209
:1004B000DA64104B00221A650E4B04225A650D4B6C
:1004C00000229A650B4B0022DA650A4B00221A665D
:1004D000084B00225A66074B04229A6605480BF027
:1004E000B1F80346002B03D0002001F027FA00BF2B
:1004F00080BD00BFBC00002400A0004080B5BAB0A1
:1005000000AF786007F1D40300221A605A609A6045
:10051000DA601A6107F11003C0220021184627F0A3
:10052000BCFD7B681B68274A934248D14FF40042C8
:100530004FF00003C7E904234FF08053C7F8803021
:1005400007F1100318460DF0EDFD0346002B03D014
:10055000002001F0F3F932E01B4BD3F8EC301A4ADB
:1005600043F48073C2F8EC30174BD3F8EC3003F44B
:100570008073FB60FB68144BD3F8E030124A43F001
:100580000803C2F8E030104BD3F8E03003F0080362
:10059000BB60BB680323C7F8D4300223C7F8D83048
:1005A0000023C7F8DC300023C7F8E0300923C7F880
:1005B000E43007F1D403194604480CF083FAE83715
:1005C000BD4680BD00A0004000440258000C025807
:1005D00080B582B000AF78607B681B68094A93429F
:1005E0000BD1094BD3F8EC30074A23F48073C2F8DF
:1005F000EC30032105480CF01FFC00BF0837BD4656
:1006000080BD00BF00A0004000440258000C02580A
:1006100080B500AF044A0021044813F0E5FE03460C
:10062000034A136000BF80BDCCDA04083506020817
:100630005C01002480B582B000AF786001F078F8EA
:1006400012F032FE01F0B6F801F0CEF8012013F0FE
:1006500063FF00BFF8E780B400AFBFF34F8F00BF68
:1006600030BFBFF36F8F00BF00BFBD465DF8047B96
:1006700070470000B0B588B000AF0D4B3C461D463A
:100680000FCD0FC495E8070003C4227039466423D8
:100690001822084810F033F94FF0500383F3118803
:1006A000BFF36F8FBFF34F8FFB6100BF00BFFDE74C
:1006B000889C0408EC010024B0B58AB000AF7860D3
:1006C0003960184B07F108041D460FCD0FC495E89B
:1006D000070003C4228007F108016423192212488D
:1006E00010F00DF93B68002B09D03868FFF7E2FDE8
:1006F00003469AB2642339680B4810F000F964236A
:1007000002220A49084810F0FAF84FF0500383F328
:100710001188BFF36F8FBFF34F8F7B6200BF00BFA5
:10072000FDE700BFA49C0408EC010024C49E04085B
:1007300080B58CB000AF07F11C0300221A605A602C
:100740009A60DA601A61694BD3F8E030674A43F087
:100750001003C2F8E030654BD3F8E03003F010032B
:10076000BB61BB69614BD3F8E030604A43F00403DE
:10077000C2F8E0305D4BD3F8E03003F004037B6156
:100780007B695A4BD3F8E030584A43F02003C2F853
:10079000E030564BD3F8E03003F020033B613B6977
:1007A000524BD3F8E030514A43F08003C2F8E030B6
:1007B0004E4BD3F8E03003F08003FB60FB684B4BFB
:1007C000D3F8E030494A43F00103C2F8E030474B28
:1007D000D3F8E03003F00103BB60BB68434BD3F8B0
:1007E000E030424A43F00203C2F8E0303F4BD3F816
:1007F000E03003F002037B607B683C4BD3F8E030D1
:100800003A4A43F00803C2F8E030384BD3F8E030FE
:1008100003F008033B603B68002248F2780134484B
:100820000CF02CFC00224FF47C5132480CF026FCDA
:100830000022062130480CF021FC00224FF44071C8
:100840002E480CF01BFC002204212D480CF016FC55
:1008500048F27803FB6101233B6200237B620023A3
:10086000BB6207F11C03194621480CF02BF94FF429
:100870007C53FB6101233B6200237B620023BB624C
:1008800007F11C0319461B480CF01CF90623FB61F9
:1008900001233B6200237B620023BB6207F11C0340
:1008A000194615480CF00EF94FF44073FB61012313
:1008B0003B6200237B620023BB6207F11C031946E5
:1008C0000E480CF0FFF80423FB6101233B62002378
:1008D0007B620023BB6207F11C03194608480CF039
:1008E000F1F800BF3037BD4680BD00BF004402585C
:1008F0000010025800080258000402580000025874
:10090000000C025880B500AF08F0FAF908F008FAB8
:1009100008F016FA064B5B6D054A43F480235365D5
:10092000034B5B6B024A43F04003536300BF80BD3F
:100930000010005C80B584B000AF414B414A9A6022
:1009400000F0FCF808F006F962B600BFFFF7DAFF26
:100950003B4B5B6903F40033002B1BD1BFF34F8F7C
:1009600000BFBFF36F8F00BF354B0022C3F850228A
:10097000BFF34F8F00BFBFF36F8F00BF304B5B697A
:100980002F4A43F400335361BFF34F8F00BFBFF3CF
:100990006F8F00E000BF2A4B5B6903F48033002BAC
:1009A00038D1274B0022C3F88420BFF34F8F00BFFC
:1009B000234BD3F88030FB60FB685B0BC3F30E0363
:1009C000BB60FB68DB08C3F309037B60BB685A01AB
:1009D00043F6E07313407A68920719491343C1F84C
:1009E00060327B685A1E7A60002BEFD1BB685A1EBA
:1009F000BA60002BE5D1BFF34F8F00BF104B5B698E
:100A00000F4A43F480335361BFF34F8F00BFBFF3EE
:100A10006F8F00E000BF00F017F8FFF789FEFFF7C7
:100A200007FD00F033F900F0C3FC00F015FD13F0F2
:100A300077FCFFF7EDFD13F099FC00BFFDE700BF69
:100A400000ED00E00000020880B59CB000AF07F1A7
:100A500024034C220021184627F01FFB3B1D2022B7
:100A60000021184627F019FB02200CF03BFB002365
:100A70003B60304B9B692F4A43F4404393612D4BBD
:100A80009B6903F440433B602B4BDB6A2A4A43F0EB
:100A90000103D362284BDB6A03F001033B603B6830
:100AA00000BF244B9B6903F40053B3F5005FF8D1FA
:100AB00001237B624FF48033BB620223BB640223B9
:100AC000FB6405233B65C0237B650223BB650823CC
:100AD000FB6502233B6608237B660023BB6600237D
:100AE000FB6607F1240318460CF036FB0346002B87
:100AF00001D000F06BF83F237B600323BB60002331
:100B0000FB6009233B6100237B610023BB61002361
:100B1000FB6100233B623B1D012118460CF076FF70
:100B20000346002B01D000F051F800BF7037BD46DE
:100B300080BD00BF004802580004005880B584B052
:100B400000AF3B4600221A605A609A60DA6008F0F3
:100B500017FA01233B7000237B7000237B601F2367
:100B60003B7287237B720023BB720023FB7201233D
:100B70003B7301237B730023BB730023FB733B4652
:100B8000184608F035FA01233B7001237B704FF0C3
:100B900040537B600E233B7200237B720123BB72A8
:100BA0000323FB7200233B7300237B730023BB737F
:100BB0000023FB733B46184608F01AFA042008F09D
:100BC000F7F900BF1037BD4680BD0000B0B58AB050
:100BD00000AF284BD3F8E030264A43F00203C2F8B6
:100BE000E030244BD3F8E030234B1B6823F0300374
:100BF000214A43F0100313601F4B5B681E4A23F029
:100C0000040353601C4B9B681B4A23F03003936022
:100C1000194BDB68184A23F03003D360164B4FF4AE
:100C200080229A61154B3C1D1D460FCD0FC40FCD80
:100C30000FC42B682380124B1B68124A934205D1C4
:100C4000391D642321220E480FF059FE72B600BFF1
:100C500000233B6003E000BF3B6801333B603B681F
:100C6000094A9342F7D9044B5B69034A83F00403B2
:100C70005361EDE70044025800040258C09C040888
:100C8000EC01002400780040DF93040080B500AF41
:100C9000274B284A1A60264B4FF480025A60244B97
:100CA00000229A60224B0722DA60214B00221A614F
:100CB0001F4B00225A611E4B4FF080629A611C4B01
:100CC0000022DA611A4B00221A62194B00225A6282
:100CD000174B00229A62164B0022DA62144B4FF037
:100CE00080425A63124B00229A63114B0022DA634E
:100CF0000F4B00221A640E4B00225A640C4B002248
:100D00009A640B4B0022DA64094B00221A65084BE7
:100D100000225A65064B00229A6505480FF02EF80E
:100D20000346002B03D0002000F008FE00BF80BD6A
:100D3000600100240050014080B5BAB000AF786077
:100D400007F1D40300221A605A609A60DA601A61CF
:100D500007F11003C0220021184627F09EF97B6896
:100D60001B68274A934247D14FF400524FF00003CB
:100D7000C7E9042300237B6707F1100318460DF031
:100D8000D1F90346002B03D0002000F0D7FD33E05B
:100D90001C4BD3F8F0301B4A43F48013C2F8F030F8
:100DA000184BD3F8F03003F48013FB60FB68154B4D
:100DB000D3F8E030134A43F02003C2F8E030114B7F
:100DC000D3F8E03003F02003BB60BB684FF46073DE
:100DD000C7F8D4300223C7F8D8300023C7F8DC3076
:100DE0000023C7F8E0300523C7F8E43007F1D40347
:100DF000194605480BF066FEE837BD4680BD00BFCA
:100E000000500140004402580014025880B582B0DE
:100E100000AF78607B681B68094A93420CD1094B8C
:100E2000D3F8F030074A23F48013C2F8F0304FF4BF
:100E3000607105480CF000F800BF0837BD4680BD62
:100E400000500140004402580014025880B582B09E
:100E500000AF0C4BD3F8F4300A4A43F00203C2F857
:100E6000F430084BD3F8F43003F002037B607B6866
:100E700000220F216FF0010008F04DF800BF083785
:100E8000BD4680BD0044025880B584B000AF786094
:100E90007B68BB600023FB817B68002B10D002E0E5
:100EA000FB890133FB81FB89BA6813441B78002B53
:100EB000F6D1FA896423796803480FF020FD00E039
:100EC00000BF1037BD4680BDEC01002480B588B05E
:100ED00000AF786039607868FFF7D6FF1548FFF7F4
:100EE000D3FF0023FB6113E0FB69C3F107039B0001
:100EF0003A6822FA03F303F00F030F4AD15C07F1BB
:100F00000802FB6913440A461A70FB690133FB614E
:100F1000FB69072BE8D90D233B740A237B7400235C
:100F2000BB7407F108031846FFF7AEFF00BF203778
:100F3000BD4680BDE49C0408F0DA040880B582B0A8
:100F400000AF78602648FFF79FFF7868FFF79CFFA7
:100F50002448FFF799FF16F0DFF90346012B0AD06A
:100F600016F0CAF90346184615F064FD0346184604
:100F7000FFF78AFF02E01C48FFF786FF1B48FFF7D8
:100F800083FF1B4BDB6A19461A48FFF79FFF184B7C
:100F90009B6A19461848FFF799FF154B5B6B19467A
:100FA0001648FFF793FF124B9B6B19461448FFF747
:100FB0008DFF144809F0AAFD034619461248FFF7B1
:100FC00085FF104B1B6803F58053D3F86031194639
:100FD0000E48FFF77BFF00BF0837BD4680BD00BF4E
:100FE000E89C0408F49C0408FC9C0408C49E0408C3
:100FF00000ED00E0049D04080C9D0408149D040805
:101000001C9D0408103B0024249D04082C9D04080A
:1010100080B400AF00BFFDE780B500AF0248FFF726
:101020008DFF00BFFDE700BF349D040880B500AF11
:101030000248FFF783FF00BFFDE700BF489D04089B
:1010400080B500AF0248FFF779FF00BFFDE700BFA2
:101050005C9D040880B500AF0248FFF76FFF00BF3A
:10106000FDE700BF709D040880B400AF00BFBD461F
:101070005DF8047B7047000080B500AF064B1B682D
:1010800007F0DAFD16F048F90346012B01D017F0FE
:1010900063F800BF80BD00BF10E000E080B500AF86
:1010A000024809F03BF900BF80BD00BF103B00249F
:1010B00080B500AF02480FF0D7FD00BF80BD00BF74
:1010C000EC01002480B400AF01231846BD465DF852
:1010D000047B704780B483B000AF78603960054B03
:1010E00016221A604FF0FF3318460C37BD465DF8E4
:1010F000047B7047FCB7012480B582B000AF7860F4
:101100004FF0FF317868FFF7E5FF00BFFDE780B5DE
:1011100086B000AFF860B9607A6000237B610AE0B6
:10112000AFF300800146BB685A1CBA60CAB21A709D
:101130007B6901337B617A697B689A42F0DB7B686B
:1011400018461837BD4680BD80B586B000AFF86040
:10115000B9607A6000237B6109E0BB685A1CBA6001
:101160001B781846AFF300807B6901337B617A6995
:101170007B689A42F1DB7B6818461837BD4680BD14
:1011800080B483B000AF78604FF0FF3318460C375F
:10119000BD465DF8047B704780B483B000AF7860D3
:1011A00039603B684FF400525A60002318460C37F0
:1011B000BD465DF8047B704780B483B000AF7860B3
:1011C000012318460C37BD465DF8047B704780B498
:1011D00085B000AFF860B9607A6000231846143714
:1011E000BD465DF8047B704780B487B000AF78607F
:1011F000144A154BD31A7B617B693B61134B1B6807
:10120000002B02D1114B124A1A60104B1A687B68EE
:1012100013443A699A4205D20E4B0C221A604FF0E1
:10122000FF3309E0094B1B68FB60084B1A687B68B9
:101230001344064A1360FB6818461C37BD465DF828
:10124000047B70470000082400100000E80100241F
:1012500010B80124FCB7012480B400AF434BD3F88D
:101260008830424A43F47003C2F88830404B1B6810
:1012700003F00F03062B07D83D4B1B6823F00F0329
:101280003B4A43F0070313603A4B1B68394A43F06B
:1012900001031360374B00221A61364B1A68354937
:1012A000354B13400B60324B1B6803F00803002BD7
:1012B00007D02F4B1B6823F00F032D4A43F0070381
:1012C00013602C4B00229A612A4B0022DA61294BD1
:1012D00000221A62274B294A9A62264B284ADA6270
:1012E000244B284A1A63234B00225A63214B254A78
:1012F0009A63204B0022DA631E4B224A1A641D4B6C
:1013000000225A641B4B1B681A4A23F48023136083
:10131000184B00221A661C4B1A681C4B1340B3F181
:10132000005F02D21A4B01221A60124BD3F8D4305C
:1013300003F48053002B13D10E4BD3F8D4300D4A55
:1013400043F48053C2F8D430124B43F2D2021A60F5
:10135000084BD3F8D430074A23F48053C2F8D43072
:1013600000BFBD465DF8047B704700BF00ED00E0A4
:1013700000200052004402587FEDF6EA000202020B
:101380000000FF01800201010010005C0000FFFF6F
:101390000881005100400052044BDA6842F002021A
:1013A000DA605A689204FCD5704700BF00480258C2
:1013B00080B500AF264B274A1A60254B4FF4E13227
:1013C0005A60234B00229A60214B0022DA60204BA6
:1013D00000221A611E4B0C225A611D4B00229A6199
:1013E0001B4B0022DA611A4B00221A62184B0022B2
:1013F0005A62174B00229A6215480FF030FA0346E2
:10140000002B03D0002000F099FA1FE000211048C3
:1014100011F07FFE0346002B03D0002000F08EFA6F
:1014200014E000210A4811F0B2FE0346002B03D05D
:10143000002000F083FA09E0054811F031FE034670
:10144000002B03D0002000F079FA00BF80BD00BF60
:10145000EC0100240078004080B500AF264B274AFD
:101460001A60254B4FF4E1325A60234B00229A60F8
:10147000214B0022DA60204B00221A611E4B0C2205
:101480005A611D4B00229A611B4B0022DA611A4BF4
:1014900000221A62184B00225A62174B00229A62ED
:1014A00015480FF0DCF90346002B03D0002000F0B4
:1014B00045FA1FE00021104811F02BFE0346002BD7
:1014C00003D0002000F03AFA14E000210A4811F09D
:1014D0005EFE0346002B03D0002000F02FFA09E047
:1014E000054811F0DDFD0346002B03D0002000F07D
:1014F00025FA00BF80BD00BF80020024007C0040B0
:1015000080B5BEB000AF786007F1E40300221A6036
:101510005A609A60DA601A6107F12003C022002144
:10152000184626F0BAFD7B681B68644A934275D161
:101530004FF002024FF00003C7E908230023C7F869
:10154000983007F1200318460CF0ECFD0346002B01
:1015500003D0002000F0F2F9ADE0594BD3F8E830A9
:10156000574A43F08043C2F8E830554BD3F8E8308F
:1015700003F08043FB61FB69514BD3F8E030504AE4
:1015800043F02003C2F8E0304D4BD3F8E03003F0D5
:101590002003BB61BB694A4BD3F8E030484A43F0B3
:1015A0001003C2F8E030464BD3F8E03003F01003EC
:1015B0007B617B694023C7F8E4300223C7F8E83039
:1015C0000023C7F8EC300023C7F8F0300723C7F832
:1015D000F43007F1E40319463A480BF073FA4FF47C
:1015E0008073C7F8E4300223C7F8E8300023C7F857
:1015F000EC300023C7F8F0300723C7F8F43007F1C8
:10160000E403194630480BF05DFA0022062152200F
:1016100007F081FC522007F098FC4CE07B681B68C7
:101620002A4A934247D14FF002024FF00003C7E924
:1016300008230023C7F8983007F1200318460CF060
:1016400071FD0346002B03D0002000F077F932E053
:101650001B4BD3F8E8301A4A43F00043C2F8E83095
:10166000174BD3F8E83003F000433B613B69144B60
:10167000D3F8E030124A43F01003C2F8E030104BC8
:10168000D3F8E03003F01003FB60FB680323C7F8D6
:10169000E4300223C7F8E8300023C7F8EC30002319
:1016A000C7F8F0300823C7F8F43007F1E40319460F
:1016B00005480BF007FAF837BD4680BD00780040BA
:1016C000004402580014025800100258007C0040E8
:1016D00080B5C6B002AF00F04BF9C7F80C0107F1B6
:1016E000F80314221946104800F0EEFD07F1E0035C
:1016F0001821184601F090FD07F1F802381DD7F8BF
:101700000C31019307F1E00300931346074ADC21F3
:1017100026F0F6FB3B1D184600F03CFF00BF07F526
:101720008877BD4680BD00BF34030024849D040833
:1017300080B582B000AF00F0CFFC06F09FFA06F053
:10174000D5FD0346002B02D1002000F0F7F804F08D
:10175000B3FF00F037F90346FB71FB79002B08D08B
:1017600006F0BEFB0346002B06D1002000F0E6F891
:1017700002E00C4806F0A8FA00F06EF800F09EFEB9
:10178000FB79002B02D0084800F004FF074800F066
:1017900001FF00F049F9064800F0FCFE00BF0837E1
:1017A000BD4680BD340300241C9E04085C9E0408D2
:1017B000A89E040880B500AF04F07EFF00F07EFE16
:1017C000084800F0E7FE04F013FE05F019FF00F0F2
:1017D0003FFA04F015FC00F0C5F8FFF779FF00BFF1
:1017E00080BD00BFC89E040880B500AF04F032FE83
:1017F00000F09EFA04F07AFC00F066F800F0D0F8F1
:1018000000BF80BD80B588B000AF0346FB7107F113
:101810000C0300221A605A609A60DA601A61FB7940
:101820001A464FF400410B480BF028FC4FF40043DC
:10183000FB6001233B6100237B610023BB6107F157
:101840000C03194603480BF03DF900BF2037BD4695
:1018500080BD00BF0010025880B500AF0022782183
:1018600013480BF00BFC00224FF47C5111480BF095
:1018700005FC00224FF440710F480BF0FFFB0022E3
:1018800004210E480BF0FAFB002202210C480BF059
:10189000F5FB012204210A480BF0F0FB0120FFF7C1
:1018A000B1FF12F08DFD0346064A136000BF80BDF4
:1018B000001002580008025800000258000C02589C
:1018C000000402581403002480B582B000AF12F067
:1018D00077FD7860154B1B687A68D31AF92B21D9EC
:1018E000124A7B681360124B1B7883F00103DAB253
:1018F0000F4B1A700E4B1B78002B14BF01230023D3
:10190000DBB21A4602210B480BF0B8FB0A4B1B78DE
:10191000002B14BF01230023DBB21A460421054823
:101920000BF0ACFB00BF0837BD4680BD140300249C
:1019300018030024000402580800002480B483B077
:1019400000AF0346FB71FB79002B01D0012200E0C0
:101950000022034B1A7000BF0C37BD4680BC704795
:101960000800002480B400AF00BFBD4680BC7047B3
:1019700080B483B000AF094BD3F8D0307B60074B05
:10198000D3F8D030054A43F48033C2F8D0307B68B6
:1019900018460C37BD4680BC704700BF0044025853
:1019A00080B400AF054B1B78002B03D0044B4AF6E4
:1019B000AA221A6000BFBD4680BC704719030024EC
:1019C0000048005880B586B000AF3B4600221A6040
:1019D0005A609A60DA601A614FF400433B6000235A
:1019E0007B600123BB600023FB603B4619460D482A
:1019F0000BF068F8142012F08FFD4FF400410948F5
:101A00000BF024FB0346FB750120FFF7FBFEFB7D7B
:101A1000002B01D1012300E0002318461837BD46F2
:101A200080BD00BF0010025880B500AF0020FFF756
:101A3000E9FE642012F070FD0120FFF7E3FE4FF491
:101A4000967012F069FD00BF80BD000080B584B0C3
:101A500000AF78600023FB6019E01149FA68134673
:101A60005B0013449B000B441B681946786806F022
:101A7000CFFC0346002B07D1FA6813465B001344E2
:101A80009B00074A134406E0FB680133FB60FB68D8
:101A90000E2BE2D9002318461037BD4680BD00BF8B
:101AA00014DB040880B584B000AF78600B46FB708F
:101AB0001346BB707868FFF7C9FFF860FB68002B1E
:101AC00003D0FB689B7A002B01D1002319E0BB787F
:101AD000002B08D0FB685A68FB681B891946104622
:101AE0000BF0E5FA0CE0FB685868FB681989FB7895
:101AF000002B14BF01230023DBB21A460BF0BEFA01
:101B0000012318461037BD4680BD80B584B000AFB4
:101B1000786039607868FFF799FFF860FB68002B00
:101B200002D03B68002B01D1002310E0FB685A680B
:101B3000FB681B89194610460BF088FA0346012BF7
:101B400001D1012200E000223B681A7001231846EF
:101B50001037BD4680BD0000B0B588B002AF7860D8
:101B6000396000237B617B68002B3DD03B68002BF4
:101B70003AD07B6800221A7000233B6130E07A681B
:101B80007B69D0183A687B69D11A3B69002B01D177
:101B9000174C00E0174C184D3A6913465B0013448C
:101BA0009B002B441B6800932346144A26F0A8F997
:101BB000F860FB68002B05DB3A687B69D21AFB688A
:101BC0009A4206D83B68013B7A68134400221A7097
:101BD0000BE0FB687A6913447B613B6901333B612D
:101BE0003B690E2BCBD900E000BF1837BD46B0BD16
:101BF00060A30408549F040814DB0408589F0408D9
:101C000080B483B000AF0346FB71FB79082B28BF7B
:101C10000823DBB21A46044B53F8223018460C371F
:101C2000BD465DF8047B7047C8DB040880B483B010
:101C300000AF78607B68072B01D9082302E07B683E
:101C40001B0CDBB218460C37BD465DF8047B7047B1
:101C500080B58AB002AF3B4620220021184626F00C
:101C60001CFA314809F0BEFF2F4809F0C9FE2E4B7F
:101C700001229A632C4B0022DA632B4B08221A6450
:101C8000294B04225A64284B08221A66264B00224C
:101C90005A66254B04229A66234809F0D3FC034672
:101CA000002B06D0214B00221A700020FFF746FEC1
:101CB00037E000233B6000237B600223BB600123ED
:101CC000FB6000233B6100237B613B4619461648BD
:101CD00009F0BAFE0346002B0AD101230093012329
:101CE00000220021104809F025FF0346002B06D0F2
:101CF0000E4B00221A700020FFF720FE11E00A4868
:101D000009F045FF0346002B01D1012200E000222B
:101D1000064B1A70054B1B78002B02D10020FFF7F1
:101D20000DFE2037BD4680BDBC0000241A030024F0
:101D300080B58EB000AF20237B632BE007F12C032E
:101D400000221A605A6007F12C033A1D40211B48FB
:101D50000AF01AF80346002B1CD116F069F97B68CB
:101D6000174A13603B691846FFF760FF03461A469F
:101D7000144B1A70134B1B781A4607F12C031946A3
:101D8000114826F03CFA114B1B6801330F4A1360CF
:101D900016F080F97B6B5A1E7A63002B0AD00C4B2D
:101DA0001B78002B06D0402104480AF067F903464F
:101DB000002BC3D100BF3837BD4680BDBC00002416
:101DC00024030024300300242803002420030024DB
:101DD0001A03002480B590B000AFF860B9601346D4
:101DE000FB7107F11C0324220021184626F055F947
:101DF00007F1140300221A605A60254B1B78002B50
:101E000009D0BB68002B06D0FB79082B03D8FB68F0
:101E1000B3F1005F01D3002336E0FA7907F1140330
:101E2000B968184626F0EBF9FB68FB61FB68B3F56F
:101E3000006F02D34FF0804300E000233B62002399
:101E40007B62FB791846FFF7DBFE0346BB6200238B
:101E5000FB6200233B6300237B630023BB630023FF
:101E6000FB6307F1140207F11C031946094809F046
:101E700030FF0346002B06D1074B1B680133064A8F
:101E80001360012300E0002318464037BD4680BDA3
:101E90001A030024BC0000241C03002480B588B071
:101EA00002AF7860396016F0C3F80D4B1B78FB75F4
:101EB0000C4B1B683B610C4B1B68FB6016F0EAF88F
:101EC000FA7DFB6801933B6900931346074A396822
:101ED000786826F015F800BF1837BD4680BD00BFF2
:101EE0001A0300241C03002420030024609F04081C
:101EF00080B592B002AF7860396016F099F81A4A4E
:101F000007F10C0392E8030083E80300174B1B78EA
:101F100087F83F30164B1B68BB63164B1B687B630F
:101F200016F0B8F807F1140297F83F1007F10C000B
:101F3000202306F00DFC7B6B002B05D10E4A39687F
:101F4000786825F0DDFF0BE097F83F3007F11402C9
:101F500001920093BB6B094A3968786825F0D0FF7D
:101F600000BF4037BD4680BD280300243003002455
:101F700024030024200300247C9F0408849F040879
:101F800080B483B000AF78607B68002B01D1002360
:101F900014E07B681B78002B0DD07B681B78DF2B4F
:101FA00009D87B6803331B78002B04D07B6803338C
:101FB0001B78FF2B01D1002300E0012318460C37CA
:101FC000BD4680BC704780B483B000AF78607B684A
:101FD0001B781A067B6801331B781B041A437B6845
:101FE00002331B781B0213437A68033212781343BF
:101FF00018460C37BD4680BC704780B483B000AF34
:1020000078607B68002B12D07B681B78002B10D186
:102010007B6801331B78002B0BD17B6802331B7864
:10202000002B06D17B6803331B78002B01D10123E1
:1020300000E0002318460C37BD4680BC704780B4D2
:1020400087B000AF78600023FB757B68002B01D15F
:1020500000233BE07B681B781A067B6801331B7802
:102060001B041A437B6802331B781B0213437A68F4
:102070000332127813433B613B69002B03D03B6969
:10208000B3F1FF3F01D1002320E01F23BB7518E00F
:10209000BB7D1A463B69D340DBB203F00103FB73FF
:1020A000FB7B002B02D10123FB7504E0FB7D002BA1
:1020B00001D000230AE097F91630DBB2013BDBB216
:1020C000BB7597F91630002BE2DA012318461C374E
:1020D000BD4680BC7047000080B400AF154BC022E5
:1020E0001A70144BA8225A70124B01229A70114B8D
:1020F0000A22DA700F4BC0221A710E4BA8225A71B5
:102100000C4B01229A710B4B0122DA71094BFF2211
:102110001A72084BFF225A72064BFF229A72054B25
:102120000022DA72034B4FF47A629A8100BFBD46F7
:1021300080BC70473403002480B588B000AFF860DD
:10214000B9607A607B80FB68002B11D0BB68002BE4
:102150000ED07B88002B0BD0F868FFF711FF0346E9
:10216000002B05D0B868FFF76AFF0346002B01D1AA
:10217000002332E0F868FFF726FFF861B868FFF740
:1021800022FFB861BB69DB43FA6913407B617B695D
:10219000002B04D0BB69DB437A699A4201D100234A
:1021A0001BE07868FFF729FF0346002B14D17868FD
:1021B000FFF7E6FE0346002B01D100230DE078680F
:1021C000FFF701FF38613A69FB695A40BB69134068
:1021D000002B01D0002300E0012318462037BD4624
:1021E00080BD000080B586B000AF786039607B6844
:1021F0007B617B68002B02D03B68002B04D100235D
:102200005BE07B6901337B617B691B7801332D4A7D
:1022100013441B7803F00803002BF2D10023FB7456
:1022200033E07B691B780133264A13441B7803F0A3
:102230000403002B01D100233FE007F108030A2229
:102240001946786925F07CFDF860BB687A699A4286
:1022500002D0FB68FF2B01D900232EE0FB7C3A68FB
:102260001344FA68D2B21A70BB687B61FB7C022B04
:1022700008D87B691B782E2B01D000231DE07B69D9
:1022800001337B61FB7C0133FB74FB7C032BC8D9DE
:1022900002E07B6901337B617B691B780133094A6A
:1022A00013441B7803F00803002BF2D17B691B78E1
:1022B000002B01D0002300E0012318461837BD464B
:1022C00080BD00BF8205050880B588B004AFF86006
:1022D000B9607A60BB68002B21D07B68002B1ED0D0
:1022E000FB68002B03D1BB6800221A7018E0FB6862
:1022F0001B781846FB6801331B781A46FB680233CB
:102300001B781946FB6803331B78029301910092F6
:102310000346054A7968B86825F0F2FD00E000BF81
:102320001037BD4680BD00BFB89B040880B500AF24
:102330000122134913480EF04BFC0346002B1CD01E
:10234000104B1B6808221A620E4B1B6802221A628D
:102350000C4B1B6804221A620A4B1B6801221A628A
:10236000084B0022C3F89020064B2022C3F88C2093
:102370000122034903480EF02BFC00BF80BD00BFC3
:1023800014040024EC01002480B582B000AF786012
:102390007B68002B09D07868FDF78CFF03469AB262
:1023A000C823796803480EF0AAFA00BF0837BD4673
:1023B00080BD00BFEC01002480B500AF0248FFF7EC
:1023C000E3FF00BF80BD00BF9C9F040880B582B0C2
:1023D00000AF11480FF034F878607B68002B17D0FD
:1023E0000D4B1B6808221A620B4B1B6802221A62F3
:1023F000094B1B6804221A62074B1B6801221A62F0
:10240000054B0022C3F89020034B2022C3F88C20F8
:1024100000BF0837BD4680BDEC01002480B5B4B0D4
:1024200004AF786007F1AC03142219461F48FFF788
:102430004BFF1F497868FDF733FF0346002B16D189
:1024400011F0BEFF0246194B9B8907F10C00029365
:1024500007F1AC03019300927B68164AA02125F096
:102460004FFD07F10C031846FFF78EFF1AE011F03D
:10247000A7FF02460D4B9B8907F10C00039307F160
:10248000AC03029307F1AC03019300927B680A4A04
:10249000A02125F035FD07F10C031846FFF774FF66
:1024A000FFF78AFFC037BD4680BD00BF340300245C
:1024B000A89F0408B49F0408D49F040880B58AB07C
:1024C00000AF244B1B78002B40D1224B01221A7005
:1024D000214B00221A8011F073FF024641F288332B
:1024E00013441E4A13601E48FFF74EFF1D48FFF7B6
:1024F0004BFF1D48FFF748FF1C48FFF745FF1C48EE
:10250000FFF78CFFFFF712FF1A4B1B68002B1ED141
:102510003B1D24220021184625F0BFFD164B7B6091
:102520004FF48053BB612023FB613B1D1A46002101
:10253000124811F059FF03460E4A13600D4B1B68F9
:10254000002B04D10020FFF7F9F900E000BF283785
:10255000BD4680BD0C0400240404002408040024AB
:1025600038A0040868A0040894A00408B0A00408D7
:10257000DCA0040810040024E4A00408D926020802
:1025800080B400AF024B1B681846BD4680BC704744
:102590001C05002480B582B000AF78607868FFF732
:1025A000F3FE00BF0837BD4680BD000080B584B093
:1025B00000AF78607B68144A934220D1134B1B888C
:1025C0009BB201339BB2DBB2FB81114B1B889BB2E8
:1025D000FA899A420BD00D4B1B889BB21A460D4BC1
:1025E00019780D4B9954094AFB89138004E00B4B71
:1025F0001B680133094A1360FFF798FE00E000BF33
:102600001037BD4680BD00BFEC0100241805002432
:102610001A05002414040024180400241C050024B6
:1026200080B582B000AF78607B68054A934202D1E2
:10263000FFF77CFE00E000BF0837BD4680BD00BF4D
:10264000EC01002480B582B000AF78607868FFF7B5
:10265000ADFF00BF0837BD4680BD80B582B000AF7A
:1026600078607868FFF7DCFF00BF0837BD4680BDA3
:1026700080B5E0B000AF144B1B88002B03D1134B87
:1026800000221A701BE0104B1B881A46104B0021C9
:1026900099543B464FF4C07219460D4804F0E4F8D3
:1026A0000C48FFF771FE3B461846FFF76DFEFFF73B
:1026B00083FE054B00221A80044B01221A7007F595
:1026C000C077BD4680BD00BF040400240D04002473
:1026D00044030024C49E040880B582B000AFFFF715
:1026E00075FE51E03A4B1B889BB21A46394B9B5CF6
:1026F000FB71374B1B889BB201339BB2DBB29AB2A2
:10270000334B1A80FB790D2B02D0FB790A2B0AD1AF
:10271000314B1B78002B03D02F4B00221A7033E073
:10272000FFF7A6FF30E0FB79082B02D0FB797F2B67
:102730000AD12A4B1B88002B26D0284B1B88013B33
:102740009AB2264B1A801FE0244B1B880133BF2B03
:1027500012D8214B00221A70204B1B885A1C91B2B0
:102760001E4A118019461E4AFB795354FB793F2BB0
:102770000AD1FFF77DFF07E0184B00221A801948A5
:10278000FFF702FEFFF718FE114B1B889AB2164B9B
:102790001B889BB29A42A5D1104B1B88002B12D1EB
:1027A00011F00EFE0246114B1B68D31A002B0ADBF8
:1027B00011F006FE024641F2883313440B4A1360BF
:1027C0000B48FFF72BFE012011F0A6FE87E700BFA4
:1027D0001A050024180400240D0400240404002415
:1027E00044030024F0A00408180500240804002471
:1027F000A89F040880B489B000AFF860B9607A601F
:1028000033E0FB685A1CFA601B78FB77FB7F0133CF
:102810001C4A13441B7803F00303022B02D1FB7FF5
:10282000203B00E0FB7FBB61BB685A1CBA601B7891
:10283000FB75FB7D0133134A13441B7803F003033C
:10284000022B02D1FB7D203B00E0FB7D3B61BA699E
:102850003B699A4205D1BB69002B02D03B69002B32
:1028600003D1BA693B69D31A05E07B685A1E7A60C6
:10287000002BC6D1002318462437BD465DF8047BE3
:10288000704700BF8205050880B584B000AF78604E
:1028900039603868FDF70EFDF860FA6839687868C5
:1028A000FFF7A8FF0346002B01D1012300E000231E
:1028B00018461037BD4680BD80B483B000AF786045
:1028C00002E07B6801337B607B681B78202BF8D0AB
:1028D0007B681B78092BF4D07B6818460C37BD4603
:1028E0005DF8047B704780B58AB000AFF860B960CE
:1028F0007A603B60B868FDF7DDFC78613A21F868E2
:1029000025F0D3FB78627B68002B02D03B68002B5C
:1029100001D1002377E07B6800221A707B6A002BCC
:1029200001D100236FE07B6A01337B6264E0786A47
:10293000FFF7C2FF78627B6A1B783B2B03D17B6A6F
:1029400001337B6258E07A69B968786AFFF752FF11
:102950000346002B48D17A6A7B6913441B783D2BD0
:1029600042D17B6901337A6A13443B623B6A1B782C
:10297000222B0CD13B6A01333B622221386A25F0BD
:1029800094FBF861FB69002B17D100233BE03B6A05
:10299000FB6102E0FB690133FB61FB691B78002BE3
:1029A0000BD0FB691B783B2B07D0FB691B78202BD6
:1029B00003D0FB691B78092BECD1FA693B6AD31A67
:1029C000BB61BA693B689A4202D33B68013BBB6179
:1029D000BA69396A786825F012FC7A68BB691344D1
:1029E00000221A7001230EE03B21786A25F05DFB7E
:1029F00078627B6A002B04D07B6A1B78002B96D10F
:102A000000E000BF002318462837BD4680BD80B5D2
:102A100084B000AF78607868FDF74CFCF86007E0A0
:102A2000FB68013BFB607A68FB68134400221A7064
:102A3000FB68002B0DD0FB68013B7A6813441B78C0
:102A40000A2BEDD0FB68013B7A6813441B780D2BF1
:102A5000E6D000BF1037BD4680BD80B584B000AF62
:102A6000F8600B467A60FB727B6800221A70FB6884
:102A7000D3F8AC32FE2B05D9FB68012283F8B922CA
:102A8000002324E0FB68D3F8AC32591CFA68C2F882
:102A9000AC12FA681344FA7A83F82D21FB68D3F854
:102AA000AC32FA681344002283F82D21FB7A0A2BFA
:102AB0000CD1FB6803F22D131846FFF7A8FFFB6843
:102AC0000022C3F8AC227B6801221A700123184649
:102AD0001037BD4680BD80B483B000AF78607B689E
:102AE000002283F8B5227B68002283F8B6227B6837
:102AF0000022C3F8A8227B68002283F82D2200BFA1
:102B00000C37BD465DF8047B7047000080B588B087
:102B100000AF78607B6803F22D131C491846FFF75D
:102B2000B3FE0346002B2BD07B6803F22D1007F178
:102B3000080218231649FFF7D6FE0346002B1FD0C4
:102B400007F1080313491846FDF7AAFB0346002BBB
:102B500008D007F1080310491846FDF7A1FB03460A
:102B6000002B0DD17B68012283F8B5227B6803F22C
:102B70002D107B6803F22D2260230849FFF7B3FE76
:102B8000012318462037BD4680BD00BFC49B040802
:102B9000DC9B0408E49B0408EC9B0408F09B0408FD
:102BA00080B582B000AF78607B68022283F8B422DF
:102BB0007B680022C3F8A8227B6893F8B532002B0B
:102BC0002BD07B6893F8B732002B05D07B680122AD
:102BD00083F8B922002321E07B68012283F8B72221
:102BE0007B68012283F8B6227B68D3F89032002BF1
:102BF00013D07B68D3F890327A68D2F89C027A6856
:102C000002F22D22114698470346002B05D17B681E
:102C1000012283F8B922002300E001231846083777
:102C2000BD4680BD80B584B000AF78607B6893F806
:102C3000C830FB737B6803F1C8007B68C833591C3C
:102C40007B68D3F8A832013B1A4625F00DFA7B6861
:102C5000D3F8A8325A1E7B68C3F8A8227B6893F881
:102C6000B632002B1ED07B68D3F89432002B12D0E2
:102C70007B68D3F894327A68D2F89C0207F10F018E
:102C8000012298470346002B05D17B68012283F877
:102C9000B922002307E07B68D3F8B0325A1C7B6866
:102CA000C3F8B022012318461037BD4680BD80B559
:102CB00082B000AF78600B46FB707B68D3F8A83217
:102CC000642B05D97B68012283F8B922002354E0E4
:102CD0007B68D3F8A832591C7A68C2F8A8127A68BF
:102CE0001344FA7883F8C82007E07868FFF79AFF62
:102CF0000346002B01D100233FE07B68D3F8A822D4
:102D00007B68D3F8A4329A42EFD87B68D3F8A82224
:102D10007B68D3F8A4329A422ED17B6803F1C800B5
:102D20007B6803F163017B68D3F8A4321A4625F06F
:102D30008BF90346002B1FD17B6893F8B632002B2A
:102D40000CD07B68D3F89832002B07D07B68D3F87F
:102D500098327A68D2F89C22104698477B68002205
:102D600083F8B6227B680022C3F8A8227B6803227E
:102D700083F8B422012300E0012318460837BD463A
:102D800080BD90B587B000AFF860B9607A60FB682D
:102D9000002B05D0BB68002B02D07B68002B01D133
:102DA00000234FE0B868FDF785FA78617B69002B56
:102DB00002D07B69602B01D9002343E04FF42F72CE
:102DC0000021F86825F069F9FB682D221A70FB686C
:102DD0002D225A70FB6802337A69B968184625F0CB
:102DE0000EFA7B690233FA680021D1547B699A1C80
:102DF000FB68C3F8A022FB680D2283F86320FB6800
:102E00000A2283F86420FB686333981CF968FB6826
:102E1000D3F8A03201331A4625F0F1F9FB68D3F854
:102E2000A0329A1CFB68C3F8A422FB687A6803F5F9
:102E3000247413460FCB84E80F00FB68002283F84C
:102E4000B422012318461C37BD4690BD80B586B01C
:102E500000AFF860B9607A60FB68002B0AD0BB68ED
:102E6000002B02D17B68002B04D1FB6893F8B932A8
:102E7000002B01D00023C5E000237B61BCE0BA68D1
:102E80007B6913441B78FB74FB6893F8B432062B00
:102E900000F2A28001A252F823F000BFB92E02086E
:102EA0000B2F0208532F0208672F0208932F0208E6
:102EB000B72F0208E52F020807F11202FB7C194622
:102EC000F868FFF7CAFD0346002B01D1002399E003
:102ED000BB7C002B00F08880FB6803F22D13FA689E
:102EE00011461846FDF7DCF90346002B05D0FB68B8
:102EF000012283F8B922002384E0F868FFF7EBFD94
:102F0000FB68012283F8B4226EE007F11202FB7C19
:102F10001946F868FFF7A1FD0346002B01D10023F5
:102F200070E0BB7C002B61D0FB6893F82D31002B47
:102F300007D1F868FFF734FE0346002B56D1002373
:102F400060E0F868FFF7E2FD0346002B4ED1002356
:102F500058E0FB7C1946F868FFF7A9FE0346002BF2
:102F600046D100234EE0FB7C2D2B04D1FB680422CC
:102F700083F8B4223DE0FB7C0D2B04D1FB680522D5
:102F800083F8B42235E0FB68012283F8B9220023DC
:102F900038E0FB7C2D2B05D0FB68012283F8B92299
:102FA00000232FE0FB68012283F8B822FB68062289
:102FB00083F8B4221DE0FB7C0A2B05D0FB680122BC
:102FC00083F8B92200231DE0F868FFF784FDFB6851
:102FD000012283F8B4220CE0FB68012283F8B922B5
:102FE00000230FE000BF04E000BF02E000BF00E0EC
:102FF00000BF7B6901337B617A697B689A42FFF489
:103000003EAF012318461837BD4680BD80B483B05B
:1030100000AF78607B68002B0BD07B6893F8B832E8
:10302000002B06D07B6893F8B932002B01D1012325
:1030300000E0002318460C37BD465DF8047B70475E
:1030400080B483B000AF78607B68002B0BD07B68C6
:1030500093F8B732002B06D07B6893F8B932002B77
:1030600001D1012300E0002318460C37BD465DF86E
:10307000047B704780B400AFBFF34F8F00BF064B97
:10308000DB6803F4E0620449044B1343CB60BFF3F5
:103090004F8F00BF00BFFDE700ED00E00400FA0520
:1030A00080B485B000AFB9607A603B600346FB73C3
:1030B000BB68642B28BF6423094A1360094A7B68F4
:1030C0001360094A3B681360084ABB691360084AE9
:1030D000FB7B137000BF1437BD4680BC704700BF38
:1030E0006039002464390024683900240C0000246D
:1030F0005D39002480B483B000AF0346FB71FB79D7
:10310000062B1CD0062B1CDC052B16D0052B18DC3F
:10311000042B10D0042B14DC032B0AD0032B10DC5F
:10312000012B02D0022B02D00BE0094B0AE0094B25
:1031300008E0094B06E0094B04E0094B02E0094BAB
:1031400000E0094B18460C37BD4680BC704700BFF5
:103150001CA1040824A1040830A104083CA104080F
:1031600044A1040850A1040858A10408000000006C
:103170002DE9B04F88B000AF05F08AFD03467B60B3
:1031800005F092FD0346BB6005F09AFD0346FB6027
:103190003B1D3B611EA3D3E90023C7E9062300239F
:1031A0007B6128E03A697B6913441B78DBB200221B
:1031B00098469146D7E9062382EA080A83EA090B72
:1031C000C7E906ABFB6940F2B31203FB02F2BB692D
:1031D0004FF4807101FB03F31344BA6940F2B31159
:1031E000A2FB01452B441D46C7E90645C7E9064534
:1031F0007B6901337B617B690B2BD3D9D7E906232C
:10320000104619462037BD46BDE8B08FAFF30080A9
:10321000B233DE2BB00F65142DE9F04387B000AF59
:10322000786039607B68002B42D03B68002B3FD030
:103230003B68122B03D87B6800221A7039E0FFF735
:1032400097FFC7E902017B6858221A707B68013337
:1032500043221A7000237B6122E07B69C3F10F03D4
:103260009900D7E90223C1F12006A1F1200022FA3A
:1032700001F403FA06F6344323FA00F0044323FA78
:1032800001F504F00F084FF000097B6902337A68FA
:1032900013440A4A424412781A707B6901337B61F5
:1032A0007B690F2BD9D97B68123300221A7000E09A
:1032B00000BF1C37BD46BDE8F08300BFECDB04084F
:1032C00080B58CB000AF7860002387F82F307B6822
:1032D000002B01D1002336E007F10803182118461E
:1032E000FFF79AFF7868FCF7E5FF786207F10803BB
:1032F0001846FCF7DFFF38627A6A3B6A9A4201D0CF
:10330000002320E00023BB6212E07A68BB6A13440A
:103310001A7807F10801BB6A0B441B785340DAB2F4
:1033200097F82F30134387F82F30BB6A0133BB6205
:10333000BA6A3B6A9A42E8D397F82F30002B01D142
:10334000012300E0002318463037BD4680BD000051
:1033500080B584B000AF78600023FB737B68002BDE
:1033600005D07868FCF7A6FF0346032B01D00023A5
:103370001BE00023BB600FE07A68BB6813441A7837
:103380000C49BB680B441B785340DAB2FB7B1343F8
:10339000FB73BB680133BB60BB68022BECD9FB7BC2
:1033A000002B01D1012300E0002318461037BD4651
:1033B00080BD00BF00DC040880B5AAB000AFF86093
:1033C000B9607A603B60FB68002B08D0BB68002BBB
:1033D00005D07B68002B02D03B68002B01D1002375
:1033E0007EE0B868FCF766FFC7F89C00FB68C7F88A
:1033F000A4306DE0D7F8A420FB689A4205D0D7F836
:10340000A430013B1B78262B52D1D7F89C20B968F9
:10341000D7F8A40024F057FE0346002B48D1D7F874
:10342000A420D7F89C3013441B783D2B40D1D7F80B
:103430009C300133D7F8A4201344C7F898302621D4
:10344000D7F8980024F031FEC7F89400D7F89430EC
:10345000002B06D1D7F89800FCF72CFFC7F8A00086
:1034600006E0D7F89420D7F89830D31AC7F8A030E0
:10347000D7F8A0307F2B02D97F23C7F8A03007F1FF
:103480001403D7F8A020D7F89810184624F0B7FEF8
:1034900007F11402D7F8A030134400221A7007F184
:1034A00014033A687968184605F0A4F9034617E052
:1034B0002621D7F8A40024F0F8FDC7F8A400D7F817
:1034C000A430002B0AD0D7F8A4300133C7F8A430B9
:1034D000D7F8A4301B78002B8CD100E000BF00236C
:1034E0001846A837BD4680BD80B58AB000AFF860E9
:1034F000B9607A603B60FB68002B08D0BB68002B8A
:1035000005D07B68002B02D03B68002B01D1002343
:1035100079E0B868FCF7CEFEB8613D49F86824F060
:10352000E4FD786267E07B6A02337B627B6A1B782A
:103530000D2B04D17B6A01331B780A2B5FD03449F1
:10354000786A24F0D2FDF861FB69002B59D0FA6942
:103550007B6AD31A1A46BB6993424AD27A6ABB691C
:1035600013441B783A2B44D1BA69B968786A04F0DD
:1035700099FF0346002B3CD1BB6901337A6A13449F
:103580003B6202E03B6A01333B623A6AFB699A4262
:103590000BD23B6A1B78202BF4D03B6A1B78092B9B
:1035A000F0D002E0FB69013BFB61FA693B6A9A4299
:1035B00009D9FB69013B1B78202BF3D0FB69013B48
:1035C0001B78092BEED0FA693B6AD31A7B617A69C2
:1035D0003B689A4201D3002315E07A69396A78681A
:1035E00024F00DFE7A687B69134400221A700123CF
:1035F00009E0FB697B627B6A002B94D102E000BF8B
:1036000000E000BF002318462837BD4680BD00BF3C
:10361000C49E040880B590B000AFF860B9607A60CD
:103620003B60FB68FB63FB68002B05D07B68002BCD
:1036300002D03B68002B01D100238BE0F86803F037
:103640008FF80346002B10D0F868FCF733FE0246D3
:103650003B68934201D800237CE0FB683F4A39680D
:10366000786824F04DFC012374E0BB68002B07D080
:10367000B868FFF725FE0346002B57D1002369E009
:1036800005223749F86804F00DFF0346002B01D0EE
:1036900000235FE0FB6805333B21184624F005FD5D
:1036A00078637B6B002B01D1002353E0FB6805336B
:1036B0007A6BD31ABB6302E0BB6B013BBB63BB6B92
:1036C000002B0DD0BB6B0433FA6813441B78202BFE
:1036D000F2D0BB6B0433FA6813441B78092BEBD090
:1036E000BB6B002B02D0BB6B1F2B01D9002331E039
:1036F000FB68591D07F11403BA6B184624F07FFDCF
:1037000007F11402BB6B134400221A7007F1140373
:103710001846FFF7D5FD0346002B01D1002319E021
:103720007B6B0133184604F007FFF863FB6B1B78D3
:10373000002B06D0F86BFCF7BDFD02463B689342B8
:1037400001D8002306E0FB6B044A3968786824F04E
:10375000D7FB012318464037BD4680BD40B1040861
:1037600060A1040880B588B000AFF860B9607A60E5
:103770000023FB610023FB762DE07A68FB69D31AF6
:103780007B617B69B3F5806F02D94FF480637B6105
:10379000BA68FB69D11800237A69F86817F0EEFF60
:1037A00038613B69002B10DCFB7E0133FB76FB7E2E
:1037B000072B06D90C4B1B6801330B4A13600023FF
:1037C0000EE0022010F0A8FE05E03B69FA69134400
:1037D000FB610023FB76FA697B689A42CDD3012313
:1037E00018462037BD4680BD3C05002480B5B0B0EA
:1037F00002AFF860B9607A607868FCF75BFDC7F8E3
:10380000B40007F11000D7F8B4300093BB68104A39
:10381000A02124F075FBC7F8B000D7F8B030002B1A
:1038200011DDD7F8B0309F2B0DD8D7F8B02007F1B5
:1038300010031946F868FFF795FFD7F8B4207968A8
:10384000F868FFF78FFF00BFB837BD4680BD00BFE7
:1038500068A1040880B5ACB000AF78603960386802
:10386000FCF728FDC7F8AC0007F10800D7F8AC302A
:103870000F4AA02124F044FBC7F8A800D7F8A830CD
:10388000002B11DDD7F8A8309F2B0DD8D7F8A82032
:1038900007F1080319467868FFF764FFD7F8AC20F2
:1038A00039687868FFF75EFF00BFB037BD4680BD5E
:1038B000B8A1040880B5B4B000AF786007F10C007F
:1038C00017230F4AC02124F01BFBC7F8CC00D7F800
:1038D000CC30002B10DDD7F8CC30BF2B0CD8D7F86C
:1038E000CC2007F10C0319467868FFF73BFF17223D
:1038F00004497868FFF736FF00BFD037BD4680BD6A
:1039000028A2040804DC040880B582B000AF786007
:10391000412204497868FFF725FF00BF0837BD46FC
:1039200080BD00BF1CDC040880B5DEB006AF07F523
:10393000B073A3F5AE731860224B1B7887F85B3128
:10394000214B1B68C7F85431204B1B68C7F8503116
:103950001F4B1B68C7F84C311E4B1B68C7F85C3106
:10396000D7F85C31002B02D11B4BC7F85C3197F8BC
:103970005B311846FFF7BEFB024607F10C00174B00
:103980000493D7F85C310393D7F84C310293D7F8FE
:1039900050310193D7F8543100931346104A4FF435
:1039A000A07124F0ADFA07F10C0207F5B073A3F58E
:1039B000AE730C491868FFF719FF00BF07F5B07721
:1039C000BD4680BD5D39002460390024643900247F
:1039D000683900240C00002460A3040808A304082C
:1039E000B0A2040810A30408B0B59CB00AAF786078
:1039F00007F13003142219462848FEF765FC07F149
:103A00001C03142219462648FEF75EFC07F1080342
:103A1000142219462348FEF757FC204B9B891C466D
:103A20001E4B9B891D4604F0B1FA034607F1300294
:103A3000099308955023079307F10803069307F1AC
:103A40001C03059307F130030493174B039302946F
:103A500007F10803019307F11C0300931346134A6F
:103A60004FF44051124824F04BFA78647B6C002BE1
:103A700003DB7B6CB3F5405F04D30E497868FFF736
:103A8000E9FE07E07B6C0C4A1360094A0B49786831
:103A9000FFF7ACFE4837BD46B0BD00BF340300247D
:103AA0003C0300243803002408A3040860DC040855
:103AB0005405002430A304084805002440A304084A
:103AC00080B58EB000AFF860B9607A603B60BB68CB
:103AD000002B09D07B68012B06D93B68002B03DD46
:103AE0003B687A689A4202D84FF0FF3360E00023C7
:103AF0007B633B68BA68134400221A702E49B86889
:103B000024F0F3FA38633B6B002B30D000233B6189
:103B10003B6B1A1DBB68D31AFB6207F1140210231A
:103B20002649B868FFF7E0FC0346002B10D07A68FE
:103B3000FB6AD31A591E07F1100207F11403184645
:103B400004F04AFD0346002B02D14FF0FF332FE073
:103B50003B69FA6A13447B633B687A6B9A4206D8E6
:103B6000BA687B6B134400221A707B6B20E07B6881
:103B70005A1E3B689A4202D84FF0FF3318E03B6868
:103B80007A68D31A013BBB623B68BA68D118BA6A3B
:103B90000023F86817F0DCFD78627B6A002B02DCFA
:103BA0004FF0FF3304E03A687B6A13443B609EE7C2
:103BB00018463837BD4680BD5CA3040864A30408DA
:103BC00080B586B000AFF860B9607A603B60BB68D2
:103BD000002B09D07B68012B06D93B68002B03DD45
:103BE0003B687A689A4202D84FF0FF332EE03B6878
:103BF000BA68134400221A701649B86824F075FA9E
:103C00000346002B01D03B6820E07B685A1E3B68CE
:103C10009A4202D84FF0FF3318E03B687A68D31A13
:103C2000013B7B613B68BA68D1187A690023F86868
:103C300017F08EFD38613B69002B02DC4FF0FF333B
:103C400004E03A683B6913443B60D0E718461837F4
:103C5000BD4680BD5CA3040880B596B000AFF86097
:103C6000B9607A60FB68002B1ED007F1100307F1E2
:103C700050021049F86824F075F90346022B13D15D
:103C800007F15003B968184604F0C2FB0346002B45
:103C90000AD107F1100379681846FCF701FB0346C7
:103CA000002B01D1012300E0002318465837BD4600
:103CB00080BD00BF74A3040880B588B000AFF86071
:103CC000B9607A60FB68002B0DD0BB68002B0AD06E
:103CD0007B68002B07D013223849F86804F0E2FB18
:103CE0000346002B01D0002363E0FB68FB6102E088
:103CF000FB690133FB61FB691B78002B07D00922AC
:103D00002F49F86904F0CEFB0346002BF0D1FB6984
:103D1000002B01D100234CE0FB691B78002B01D163
:103D2000002346E0FB690933FB61FB691B78222B0A
:103D300008D1FB690133FB612221F86924F0B5F950
:103D4000B86115E0FB69BB6102E0BB690133BB618F
:103D5000BB691B78002B0BD0BB691B783B2B07D0B2
:103D6000BB691B78202B03D0BB691B78092BECD1D6
:103D7000BB69002B03D0BA69FB699A4201D80023C2
:103D800017E0BA69FB69D31A7B617A697B689A424A
:103D900002D27B69602B01D900230AE07A69F969B4
:103DA000B86824F02CFABA687B69134400221A70B0
:103DB000012318462037BD4680BD00BF80A30408FC
:103DC00094A3040880B5A8B002AFF860B9607A6027
:103DD000FB7000237B61BA687B689A4210D004F0C4
:103DE00073FA2D4B19682D4B00937B68BA68062037
:103DF000FFF756F92949F868FFF72CFD002347E043
:103E0000274B00937B68BA685C210320FFF748F9D1
:103E100007F114031946B86804F09EF90346002B15
:103E20000DD1204B00937B68BA685C210620FFF718
:103E300037F91C49F868FFF70DFD002328E01A4BFD
:103E400000937B68BA6862210420FFF729F9FB78A8
:103E5000002B0ED07B6907F11800144A802124F052
:103E60004FF807F118031A461149F868FFF7BEFC2E
:103E70000DE07B6907F118000E4A802124F040F81C
:103E800007F118031A460C49F868FFF7AFFC012345
:103E900018469837BD4680BD60390024A0A30408A9
:103EA000B8A30408D4A30408F8A3040814A40408BD
:103EB00010A3040848A4040860A4040880B586B0D0
:103EC00002AF786039607B68FB60FB68002B03D031
:103ED000FB681B7A002B01D0002322E0FB681B68E3
:103EE000124A0092002202210120FFF7D9F8FB6854
:103EF0001B68184604F052F80346002B04D1FB68F7
:103F00000B4ADA6000230CE0FB6801221A72FB689E
:103F10001B68084A0092002205210220FFF7C0F822
:103F2000012318461037BD4680BD00BF7CA404089D
:103F30009CA40408C4A404082DE9B04F8AB002AFC1
:103F400078613961FA607B69FB61FB69002B11D0F4
:103F5000FB691B7A002B0DD0FB695A68FB691B6853
:103F60009A4207D8FB691A68FB695B68D31AFA683A
:103F70009A4207D9FB69002B02D0FB692A4ADA6012
:103F800000234BE0F968386904F084F80346002BFD
:103F900004D1FB69254ADA6000233FE0FB695A68D7
:103FA000FB681A44FB695A60FB695B68002298460B
:103FB000914642464B464FF000004FF000019900F9
:103FC00041EA9271900002460B4612EB080443EB63
:103FD00009054FF000024FF000032B0143EA147370
:103FE000220114EB020A45EB030BFB691B6800225C
:103FF0003B607A60D7E9002350465946FCF7B8F990
:1040000002460B461346591DFB695A68FB691B683B
:10401000074800900220FFF743F801231846203795
:10402000BD46BDE8B08F00BFA0A30408D8A4040813
:10403000C4A4040880B485B000AF78607B68FB60DE
:10404000FB68002B02D0FB6801225A7200BF1437B4
:10405000BD4680BC704700002DE9B04FADF5906DB6
:1040600002AF07F58F63A3F24443186007F58F632F
:10407000A3F58963196007F58F63A3F24C431A60B7
:104080000023C7F8743407F58F63A3F58963BB4A2F
:10409000BB491868FFF7E0FD0346002B11D1B94B6F
:1040A00000930023002200210620FEF7F9FF07F508
:1040B0008F63A3F24443B3491868FFF7CBFB002397
:1040C000D0E107F58F63A3F58963AF49186824F041
:1040D0000CF8C7F86804D7F86834002B1ED007F234
:1040E0004C4207F58F63A3F589601023A749006848
:1040F000FFF7FAF90346002B10D003F047FF014603
:1041000007F5896307F24C401A4604F065FA034646
:10411000002B03D0D7F84834072B11D89C4B0093C1
:104120000023002200210620FEF7BAFF07F58F6367
:10413000A3F2444396491868FFF78CFB002391E1F2
:10414000D7F868340433C7F8683407F58F63A3F5EC
:104150008963D7F868241B68D31AC7F86434D7F882
:1041600048248C4B00931346002202210120FEF7C5
:1041700097FFD7F84834184603F010FF0346002B8A
:1041800012D1D7F84834844A009200220021062038
:10419000FEF786FF07F58F63A3F244437E49186854
:1041A000FFF758FB00235DE1D7F848247B4B0093D1
:1041B0001346002205210220FEF772FF4FF0050290
:1041C0004FF0000307F58761C1E900230023C7F81A
:1041D000403407F5876207F58F63A3F2444010234C
:1041E0000093134641F2060240F6FF71006817F093
:1041F000E3FD07F58F63A3F24C431A68D7F86434E4
:10420000934280F01B8107F58F63A3F24C431A6839
:10421000D7F86434D31AC7F87034D7F84824D7F8DD
:104220007034934203D9D7F84834C7F87034D7F8BC
:104230007014D7F8680403F02DFF0346002B15D146
:1042400004F042F8D7F84834554A0092D7F874245D
:1042500000210620FEF724FF07F58F63A3F24443F5
:104260004F491868FFF7F6FA0023FBE0D7F87034DF
:10427000C7F87434D7F8743400229A4693465246ED
:104280005B464FF000004FF00001990041EA927147
:10429000900002460B4612EB0A0443EB0B054FF06D
:1042A00000024FF000032B0143EA14732201A1180E
:1042B000396245EB03037B62D7F848340022BB61C7
:1042C000FA61D7E90623D7E90801FCF751F802465D
:1042D0000B461346591DD7F84834304A0092D7F898
:1042E00074240220FEF7DCFEA8E0D7F84824D7F8B3
:1042F0007434D31AC7F86034D7F86034B3F5806FDC
:1043000004D2D7F86034C7F86C3403E04FF480630C
:10431000C7F86C34D7F86C2407F1380107F58F63C0
:10432000A3F244400023006817F012FAC7F85C04B7
:10433000D7F85C34002B0ADDD7F85C2407F138038A
:104340001146184603F0A6FE0346002B2ED103F0BB
:10435000BBFF144B1968D7F84834134A0092D7F8BA
:1043600074240620FEF79CFE07F58F63A3F24443F6
:104370000D491868FFF76EFA002373E0F4A40408EF
:1043800004A504080CA504085CA3040864A304089D
:1043900028A504087CA404089CA40408C4A4040858
:1043A000D8A404086039002440A50408D7F85C3478
:1043B000D7F874241344C7F87434D7F8743400223F
:1043C0003B617A61D7E9044522462B464FF0000055
:1043D0004FF00001990041EA9271900002460B46AD
:1043E000214612EB0108294643EB01094FF0000278
:1043F0004FF000034FEA091343EA18734FEA08121B
:1044000018EB0201B96049EB0303FB60D7F84834AD
:1044100000223B607A60D7E90023D7E90201FBF76D
:10442000A7FF02460B461346591DD7F84834104AD9
:104430000092D7F874240220FEF732FED7F84834F1
:10444000D7F874249A42FFF450AFD7F8482407F500
:104450008F63A3F244400023D7F874140068FFF779
:10446000B1FC0346184607F58F67BD46BDE8B08F1F
:10447000C4A4040880B5ADF6580D02AF07F5056376
:10448000A3F64403186007F50563A3F64803196013
:1044900007F50563A3F64C031A6007F50563A3F55A
:1044A000B8731A460023136053609360D36007F516
:1044B0000563A3F23C43CA4A1A6007F50563A3F2F9
:1044C0003C43C84A5A6007F50563A3F23C43C64A19
:1044D0009A6007F50563A3F23C4307F5DC62DA60F6
:1044E00007F50563A3F64803C049186823F0FDFDEE
:1044F000C7F8400807F5016207F50563A3F6480011
:104500001023BB490068FEF7EFFF034687F83F38EA
:10451000D7F84038002B35D007F5026207F5056360
:10452000A3F648001023B3490068FEF7DDFF0346F9
:10453000002B27D007F5EE6207F50563A3F64800C8
:10454000A023AD490068FEF7CFFF0346002B19D02A
:1045500007F20C7107F5EE6361221846FFF7ACFB1A
:104560000346002B0ED003F011FD034603F58051E6
:1045700007F5E16207F50263184604F02DF80346DB
:10458000002B11D19D4B0093002300220021062017
:10459000FEF786FD07F50563A3F6440397491868FF
:1045A000FFF758F900231BE297F83F38002B31D072
:1045B00003F0ECFC014607F2047207F501631846AC
:1045C00004F00AF80346002B12D007F50563A3F5A3
:1045D000A6731B68072B0BD907F50563A3F5A47316
:1045E0001A6807F50563A3F5A6731B689A4219D8E4
:1045F000834B00930023002200210620FEF750FD8C
:1046000007F50563A3F644037D491868FFF722F90F
:104610000023E5E103F0BAFC024607F50563A3F5C4
:10462000A6731A6007F50563A3F5A6731A6807F564
:104630000563A3F5B8731A6007F2144207F20C7110
:1046400007F224431846FEF79CFB0346002B15D1C6
:1046500007F50563A3F5A6731B686A4A009200225A
:1046600000210620FEF71CFD07F50563A3F64403B1
:1046700064491868FFF7EEF80023B1E107F5056318
:10468000A3F5A6731B68604A009200220121022054
:10469000FEF706FD07F50563A3F5B0714FF00502BF
:1046A0004FF00003C1E9002307F50563A3F5B073DC
:1046B00000229A6007F5DE6307F50562A2F6440062
:1046C0001022009241F2060240F6FF71006817F0D6
:1046D00073FBD7F840380433C7F8403807F5056353
:1046E000A3F64803D7F840281B68D31AC7F8383810
:1046F0000023C7F84C3807F50563A3F64C031B6885
:10470000D7F838289A4280F0028107F50563A3F6AE
:104710004C031A68D7F83838D31AC7F8483807F561
:104720000563A3F5A4731B68D7F848289A4206D9F5
:1047300007F50563A3F5A4731B68C7F8483807F2AB
:104740002443D7F84828D7F840181846FEF77EFBD0
:104750000346002B3FD107F50563A3F5B8731B7A19
:10476000002B01D003F0B0FD284B196807F5056355
:10477000A3F5B8735A6807F50563A3F5A67318681F
:1047800007F50563A3F5B873DB68002B05D007F5C3
:104790000563A3F5B873DB6800E01D4B0093034687
:1047A0000620FEF77DFC07F50563A3F5B873DB680B
:1047B000002B05D007F50563A3F5B873DB6800E0AF
:1047C000134B07F50562A2F6440219461068FFF77D
:1047D00041F8002304E1D7F84838C7F84C3896E090
:1047E000BD3E0208393F0208354002085CA30408B8
:1047F0005CA5040864A3040874A5040884A504083F
:10480000A8A50408C8A50408E4A504086039002484
:10481000FCA5040807F50563A3F5A4731A68D7F887
:104820004C38D31AC7F83438D7F83438B3F5806F1A
:1048300004D2D7F83438C7F8443803E04FF4806323
:10484000C7F84438D7F8442807F1140107F5056381
:10485000A3F644000023006816F07AFFC7F830087A
:10486000D7F83038002B0BDDD7F8302807F11401CA
:1048700007F224431846FEF7E9FA0346002B3FD11E
:1048800007F50563A3F5B8731B7A002B01D003F07D
:104890001BFD564B196807F50563A3F5B8735A68F5
:1048A00007F50563A3F5A673186807F50563A3F577
:1048B000B873DB68002B05D007F50563A3F5B87363
:1048C000DB6800E04A4B009303460620FEF7E8FB56
:1048D00007F50563A3F5B873DB68002B05D007F572
:1048E0000563A3F5B873DB6800E0414B07F505628B
:1048F000A2F6440219461068FEF7ACFF00236FE0F1
:10490000D7F83038D7F84C281344C7F84C3807F597
:104910000563A3F5A4731B68D7F84C289A42FFF4EB
:1049200079AF07F224431846FEF770FB0346002BCD
:1049300015D007F224431846FEF782FB0346002BEE
:104940000DD007F50563A3F5B8735B7A002B06D08D
:1049500007F50563A3F5B8731B7A002B23D107F580
:104960000563A3F5B8731B7A002B01D003F0ACFCF0
:104970001E4B196807F50563A3F5B8735A6807F568
:104980000563A3F5A6731B681A4800900620FEF77E
:1049900087FB07F50563A3F6440316491868FEF77D
:1049A00059FF00231CE007F50563A3F5B8735968A8
:1049B00097F83F38002B05D107F50563A3F5B873C9
:1049C0005A6804E007F50563A3F5A6731A6807F5AE
:1049D0000563A3F6440001230068FFF7F3F90346DB
:1049E000184607F50567BD4680BD00BF6039002445
:1049F00040A5040814A6040880B586B002AFF8608C
:104A0000B9607A60174A1849B868FFF725F9034674
:104A1000002B06D07A68B968F868FFF71DFB0346DB
:104A20001BE0124A1049B868FFF716F90346002B3D
:104A300006D07A68B968F868FFF71CFD03460CE0F9
:104A40000B4B00930023002200210620FEF728FBD9
:104A50000749F868FEF7FEFE002318461037BD46EA
:104A600080BD00BFF4A4040804A5040830A604080F
:104A700044A6040880B584B000AF78607B68FB6012
:104A8000FB681868FB6803F10801FB685B681A465D
:104A9000FFF7B2FFFB681B68184616F0B1FAFB6817
:104AA0004FF0FF321A60044B00221A60034B0022C1
:104AB0001A700FF02AFD00BF280500245C3900247D
:104AC00080B5ADF5647D02AF07F56273A3F5617340
:104AD000186011220221022016F058FFC7F8840343
:104AE000D7F88433002B04DA4FF47A700FF014FDFA
:104AF0009CE007F55C7310220021184623F0CDFAE4
:104B0000022387F871330023C7F87433484B9B891D
:104B1000184617F049FD0346A7F872334FF001021B
:104B20004FF00003C7E9D8230023C7F8683307F51F
:104B300058731022009241F2060240F6FF71D7F836
:104B4000840317F039F907F55C7310221946D7F87A
:104B5000840316F0F5F90346002B08D0D7F8840338
:104B600016F04EFA4FF47A700FF0D6FC5EE0304B40
:104B70009A89304B1A804FE01023C7F84C3307F165
:104B8000CC0107F55373019307F554730093002389
:104B9000FF22D7F8840316F04DFDC7F88003D7F83D
:104BA0008033002B38DD07F56273A3F52F72D7F839
:104BB0008033134400221A7007F10C0207F1CC0075
:104BC000C0230021FEF726FD0346002B09D007F580
:104BD000E67107F10C034FF4C072184601F044FE71
:104BE00007E007F5E673144A4FF4C071184623F046
:104BF00087F907F5E6731846FBF75CFB0246D7F822
:104C00004C3307F5E671019307F5547300930023C5
:104C1000D7F8840316F014FE054B9A89054B1B88C0
:104C20009A42A9D0D7F8840316F0EAF951E700BFF9
:104C3000340300242C05002464A6040880B483B047
:104C400000AF786002E07B6801337B607B68002BFB
:104C50000FD07B681B78202BF5D07B681B78092B45
:104C6000F1D07B681B780D2BEDD07B681B780A2B6D
:104C7000E9D07B6818460C37BD4680BC7047000001
:104C800080B596B000AFF860B9607A603B60FB68B1
:104C9000002B08D0BB68002B05D07B68002B02D00E
:104CA0003B68002B01D100239DE007F11400BB6895
:104CB0004F4A302123F024F90346002B01DC002366
:104CC00091E007F114031846FBF7F4FA7864FB68E7
:104CD0007B6579E07A6D7B6C13441846FFF7AEFF75
:104CE00038650023FB643B6D1B783A2B04D07A6D4A
:104CF0007B6C13447B6567E03B6D01331846FFF71F
:104D00009DFF38653B6D1B78222B04D07A6D7B6C40
:104D100013447B6558E03B6D01333B653CE03B6DE4
:104D20005A1C3A651B7887F84B3097F84B305C2B50
:104D300020D13B6D1B78002B1CD03B6D5A1C3A6573
:104D40001B7887F84B3097F84B306E2B03D10A2332
:104D500087F84B300EE097F84B30722B03D10D23C0
:104D600087F84B3006E097F84B30742B02D10923BB
:104D700087F84B30FB6C01333A689A4204D87B6861
:104D800000221A7000232EE0FB6C5A1CFA647A6829
:104D9000134497F84B201A703B6D1B78002B03D0FF
:104DA0003B6D1B78222BBAD13B6D1B78222B04D094
:104DB0007B6800221A70002315E07A68FB6C1344AC
:104DC00000221A7001230EE007F114031946786DD2
:104DD00023F08BF978657B6D002B7FF47BAF7B68CC
:104DE00000221A70002318465837BD4680BD00BF08
:104DF00088A6040880B487B000AFF860B9607A6014
:104E000000237B61FB68002B6ED0BB68002B6BD04E
:104E10007B68002B59D1374B7B6056E07B685A1C6E
:104E20007A601B78FB74FB7C222B02D0FB7C5C2B12
:104E300013D17B690233BA689A420ED97B695A1C36
:104E40007A61FA6813445C221A707B695A1C7A6191
:104E5000FA681344FA7C1A7037E0FB7C0D2B13D1EF
:104E60007B690233BA689A420ED97B695A1C7A610F
:104E7000FA6813445C221A707B695A1C7A61FA68DA
:104E8000134472221A7020E0FB7C0A2B13D17B6939
:104E90000233BA689A420ED97B695A1C7A61FA6861
:104EA00013445C221A707B695A1C7A61FA681344B5
:104EB0006E221A7009E0FB7C1F2B06D97B695A1CF5
:104EC0007A61FA681344FA7C1A707B681B78002BAD
:104ED00004D07B690133BA689A429FD8FA687B692B
:104EE000134400221A7000E000BF1C37BD4680BC8E
:104EF000704700BF60A30408B0B588B006AF786003
:104F000039607B68002B07D03B680C2B04D91B4B06
:104F100093F82C30062B09D07B68002B29D03B68F6
:104F2000002B26D07B6800221A7022E0134B93F8E6
:104F300026301D46114B93F827301A460F4B93F835
:104F4000283019460D4B93F8293018460B4B93F82F
:104F50002A301C46094B93F82B300493039402909B
:104F6000019100922B46064A3968786822F0C8FF02
:104F700000E000BF0837BD46B0BD00BF803A002446
:104F800090A6040880B5ADF5767D02AF07F5747381
:104F9000A3F57173186007F57473A3F573731A6042
:104FA00007F57473A3F2C5330A461A7007F57473D4
:104FB000A3F5737307F504701A684FF4E071FFF7F7
:104FC00019FF07F57473A3F2C5331B78002B01D0CA
:104FD0000E4A00E00E4A07F1100007F50473009333
:104FE00013460C4A4FF4007122F08AFF07F11002B9
:104FF00007F57473A3F5717307491868FEF7F6FB9C
:1050000000BF07F57477BD4680BD00BFACA604089D
:10501000B4A60408BCA6040810A3040880B58AB08E
:1050200000AF786039603868FEF792F90346002BCC
:1050300001D001231BE007F1080220230E49786804
:10504000FFF71EFE0346002B09D107F108022023BB
:105050000A497868FFF714FE0346002B06D007F1D3
:1050600008031846FEF774F9034600E000231846CB
:105070002837BD4680BD00BFD8A60408DCA60408BA
:10508000B0B5ADF53E7D08AF07F53673A3F53573C2
:10509000186007F53173142219462448FDF714F9F6
:1050A00007F52C73142219462148FDF70DF907F571
:1050B0002773142219461F48FDF706F907F52373D5
:1050C00010211846FFF718FF03F0E2FD044603F035
:1050D000EBFD054603F0F4FD024607F10C00164B0C
:1050E000079307F52373069307F52773059307F5D1
:1050F0002C73049307F53173039302920195009486
:105100000D4B0E4A4FF4207122F0FAFE07F10C020B
:1051100007F53673A3F5357309491868FEF766FB82
:1051200000BF07F53677BD46B0BD00BF340300248D
:105130003C0300243803002408A30408E8A604085C
:1051400010A3040880B5B4B002AF786007F1B403CF
:10515000142219461548FDF7B7F807F1A0031422E9
:1051600019461348FDF7B0F807F18C0314221946CD
:105170001048FDF7A9F807F1B40207F10C0007F198
:105180008C03019307F1A003009313460A4A802180
:1051900022F0B6FE07F10C031A4608497868FEF7BC
:1051A00025FB00BFC837BD4680BD00BF34030024C7
:1051B0003C03002438030024E4A7040810A30408D7
:1051C00090B5ADF56B7D02AF07F56873A3F5657318
:1051D000186007F56873A3F56673196007F56873BF
:1051E000A3F567731A6007F56873A3F566731B6808
:1051F000002B0DD007F55E7207F56873A3F5667096
:105200002823C3490068FFF73BFD0346002B09D163
:1052100007F56873A3F56573BE4A00211868FFF7A8
:10522000B1FE06E207F55E73BB491846FBF738F896
:105230000346002B07D107F56873A3F5657318685B
:10524000FFF71EFFF5E107F55E73B4491846FBF75B
:1052500027F80346002B08D007F55E73B0491846BF
:10526000FBF71EF80346002B4FD107F1140207F598
:105270006873A3F56670C023AA490068FFF700FDB4
:105280000346002B09D107F56873A3F56573A64A99
:1052900000211868FFF776FECBE107F1D40207F58D
:1052A0006873A3F5677107F11400C0230968FEF75E
:1052B000B1F90346002B07D107F56873A3F56573B1
:1052C0001868FEF7F7FAB4E107F5CA7107F1D403DD
:1052D0004FF4C072184601F0C7FA07F5CA730422EA
:1052E0009249184603F0DEF80346002B14BF012351
:1052F0000023DBB2194607F5CA7207F56873A3F5F8
:1053000065731868FFF73EFE93E107F55E73884901
:105310001846FAF7C5FF0346002B07D107F5687357
:10532000A3F565731868FFF70DFF82E107F55E735B
:1053300080491846FAF7B4FF0346002B40F0A980D5
:1053400007F56873A3F5677207F56873A3F56673CD
:1053500011681868FFF762FE0346002B07D107F5B6
:105360006873A3F565731868FEF7A4FA61E107F5A1
:10537000587207F56873A3F5667018236E490068C4
:10538000FFF77EFC0346002B3CD007F5527207F571
:105390006873A3F56670182368490068FFF770FC0E
:1053A0000346002B2ED007F54C7207F56873A3F562
:1053B0006670182362490068FFF762FC0346002B01
:1053C00020D007F54B7207F5587311461846FCF7C5
:1053D00009FF0346002B15D007F54A7207F55273F3
:1053E00011461846FCF7FEFE0346002B0AD007F5CF
:1053F000497207F54C7311461846FCF7F3FE034655
:10540000002B09D107F56873A3F565734D4A002198
:105410001868FFF7B7FD0CE1D7F82C33C7F8143341
:10542000D7F82833C7F81C33D7F82433C7F8183314
:10543000454B9B89A7F82033B7F8204307F5457300
:105440001A1D07F5457303F1080107F5457023465A
:10545000FCF772FE0346002B07D007F5457318468C
:1054600002F060FC0346002B09D107F56873A3F531
:105470006573344A00211868FFF784FDD9E007F509
:105480006873A3F56573314A01211868FFF77AFD47
:10549000CFE007F55E732E491846FAF701FF034681
:1054A000002B67D12B4B1B78DBB2042B13D12A4B7B
:1054B0001A682A4B1B682A49009164210520FDF7D0
:1054C000EFFD0EF07DFF034603F5FA73254A1360E6
:1054D000254B01221A701F4B1B78DBB2052B04D021
:1054E0001C4B1B78DBB2042B01D1012100E0002111
:1054F000184B1B78DBB2062B01D11C4A00E01C4A7A
:1055000007F56873A3F565731868FFF73BFD90E036
:1055100004AA04080CA804081CA8040828A8040865
:1055200034A8040844A804083CA8040848A80408AF
:1055300050A8040864A8040810D3040878A8040834
:1055400080A8040888A8040834030024A0A804083C
:10555000BCA804085D39002464390024683900249B
:10556000D0A80408500500244C050024F0A8040825
:10557000C8B6040807F55E7330491846FAF790FE7E
:105580000346002B26D107F56873A3F5677207F56C
:105590006873A3F5667311681868FFF73FFD03464B
:1055A000002B07D107F56873A3F565731868FEF73C
:1055B00081F93EE0FCF790FD214802F0B3FB034681
:1055C000194607F56873A3F565731E4A1868FFF757
:1055D000D9FC2EE007F55E731B491846FAF760FE0A
:1055E0000346002B09D107F56873A3F56573174AC5
:1055F00017491868FEF7FAF81BE007F55E731549BE
:105600001846FAF74DFE0346002B09D107F56873DB
:10561000A3F56573104A0E491868FEF7E7F808E02D
:1056200007F56873A3F565730C4A00211868FFF746
:10563000A9FC07F56977BD4690BD00BF08A904081D
:1056400034030024A0A8040818A9040824A9040805
:1056500010A304083CA904084CA90408F8A90408EC
:1056600090B5ADF23C4D04AF07F58563A3F224433A
:10567000186007F58563A3F5856319600023C7F8F3
:10568000203407F58563A3F59873184620231A463E
:10569000002122F002FD07F5467307F5836207F546
:1056A0008561A1F58560C149006822F05BFC034675
:1056B000022B08D007F58563A3F22443BC49186880
:1056C000FEF7C8F897E207F546733F21184622F027
:1056D000ECFCC7F82004D7F82034002B06D0D7F80C
:1056E00020345A1CC7F8202400221A7007F585635D
:1056F000A3F58563AF49186822F0F7FCC7F82404C6
:10570000D7F82434002B04D0D7F824340433C7F856
:10571000243407F53E7207F58563A3F585602023E1
:10572000A5490068FDF7E0FE07F54673A349184652
:10573000FAF7B6FD0346002B19D107F58363A0499C
:10574000184602F065FE0346002B07D107F5856376
:10575000A3F224431868FEF747F94CE207F5856386
:10576000A3F2244397491868FEF774F843E207F55B
:10577000467395491846FAF793FD0346002B07D167
:1057800007F58563A3F224431868FEF7BDF832E2FB
:1057900007F546738D491846FAF782FD0346002B3C
:1057A00021D107F583638A49184602F031FE03468A
:1057B000002B03D1D7F82434002B08D107F58563DB
:1057C000A3F2244383491868FEF744F813E207F56F
:1057D0003E7207F58563A3F22443D7F824141868B2
:1057E000FFF7EEFC07E207F546737B491846FAF728
:1057F00057FD0346002B09D107F58563A3F2244327
:10580000764A77491868FDF7F1FFF4E107F546732A
:1058100074491846FAF744FD0346002B09D107F5F1
:105820008563A3F22443704A70491868FDF7DEFFD0
:10583000E1E107F546736E491846FAF731FD034674
:10584000002B07D107F58563A3F224431868FEF700
:105850005BF8D0E107F5467366491846FAF720FD74
:105860000346002B19D107F583635549184602F00A
:10587000CFFD0346002B08D007F58563A3F2244330
:1058800050491868FDF7E6FFB5E107F58563A3F217
:1058900024431868FEF748F8ADE107F5467356490A
:1058A0001846FAF7FDFC0346002B40F0508107F53F
:1058B00083634749184602F0ABFD0346002B40F0D6
:1058C000FE8007F53E731846FDF742FD0346002BA8
:1058D00007D107F58563A3F224431868FDF7EAFFB3
:1058E00089E1D7F82434002B57D007F52972182303
:1058F0004249D7F82404FDF75FFD0346002B4CD046
:1059000007F5237218233E49D7F82404FDF754FD08
:105910000346002B41D007F51D7218233949D7F8EB
:105920002404FDF749FD0346002B36D007F51A7213
:105930000C233549D7F82404FDF73EFD0346002B20
:105940002BD007F5197207F5297311461846FCF795
:1059500049FC0346002B20D007F5187207F5237386
:1059600011461846FCF73EFC0346002B15D007F500
:10597000177207F51D7311461846FCF733FC0346F2
:10598000002B0AD007F24A2207F51A73114618466F
:1059900002F0F4FD0346002B3AD107F58563A3F22C
:1059A00024431A491868FDF755FF24E10CAA04089E
:1059B00018AA04085CA3040824AA040830AA04084E
:1059C00034AA040838AA04084CAA04085CAA0408EB
:1059D00004A5040864AA04087CAA040884AA04088C
:1059E000F4AA040814AB04084CA9040810A3040882
:1059F00020AB04082CAB040844AB040810D3040803
:105A000078A8040850AB040854AB040888A804081C
:105A100007F58563A3F5E2731A6807F58563A3F5B7
:105A2000EE731A6007F58563A3F5E4731A6807F54A
:105A30008563A3F5EE739A6007F58563A3F5E673B6
:105A40001A6807F58563A3F5EE735A6007F5856359
:105A5000A3F5EF731A8807F58563A3F5EE739A81B2
:105A600007F58563A3F5EE739C8907F513731A1D7B
:105A700007F5137303F1080107F513702346FCF7CC
:105A80005BFB0346002B07D007F51373184602F0A3
:105A900049F90346002B08D107F58563A3F2244397
:105AA00057491868FDF7D6FEA5E007F58563A3F210
:105AB0002443544A54491868FDF798FE9BE007F5C3
:105AC00083635249184602F0A3FC0346002B08D01A
:105AD00007F58563A3F224434D491868FDF7BAFE24
